{
	"Counter.sol": {
		"Counter": {
			"abi": [
				{
					"anonymous": false,
					"inputs": [
						{
							"indexed": false,
							"internalType": "uint256",
							"name": "newCount",
							"type": "uint256"
						},
						{
							"indexed": false,
							"internalType": "string",
							"name": "action",
							"type": "string"
						}
					],
					"name": "CountChanged",
					"type": "event"
				},
				{
					"inputs": [
						{
							"internalType": "uint256",
							"name": "amount",
							"type": "uint256"
						}
					],
					"name": "add",
					"outputs": [],
					"stateMutability": "nonpayable",
					"type": "function"
				},
				{
					"inputs": [],
					"name": "count",
					"outputs": [
						{
							"internalType": "uint256",
							"name": "",
							"type": "uint256"
						}
					],
					"stateMutability": "view",
					"type": "function"
				},
				{
					"inputs": [],
					"name": "decrement",
					"outputs": [],
					"stateMutability": "nonpayable",
					"type": "function"
				},
				{
					"inputs": [],
					"name": "double",
					"outputs": [
						{
							"internalType": "uint256",
							"name": "",
							"type": "uint256"
						}
					],
					"stateMutability": "view",
					"type": "function"
				},
				{
					"inputs": [],
					"name": "getCount",
					"outputs": [
						{
							"internalType": "uint256",
							"name": "",
							"type": "uint256"
						}
					],
					"stateMutability": "view",
					"type": "function"
				},
				{
					"inputs": [],
					"name": "half",
					"outputs": [
						{
							"internalType": "uint256",
							"name": "",
							"type": "uint256"
						}
					],
					"stateMutability": "view",
					"type": "function"
				},
				{
					"inputs": [
						{
							"internalType": "uint256",
							"name": "amount",
							"type": "uint256"
						}
					],
					"name": "increment",
					"outputs": [],
					"stateMutability": "nonpayable",
					"type": "function"
				},
				{
					"inputs": [],
					"name": "increment",
					"outputs": [],
					"stateMutability": "nonpayable",
					"type": "function"
				},
				{
					"inputs": [],
					"name": "isEven",
					"outputs": [
						{
							"internalType": "bool",
							"name": "",
							"type": "bool"
						}
					],
					"stateMutability": "view",
					"type": "function"
				},
				{
					"inputs": [],
					"name": "isOdd",
					"outputs": [
						{
							"internalType": "bool",
							"name": "",
							"type": "bool"
						}
					],
					"stateMutability": "view",
					"type": "function"
				},
				{
					"inputs": [
						{
							"internalType": "uint256",
							"name": "divisor",
							"type": "uint256"
						}
					],
					"name": "modulo",
					"outputs": [
						{
							"internalType": "uint256",
							"name": "",
							"type": "uint256"
						}
					],
					"stateMutability": "view",
					"type": "function"
				},
				{
					"inputs": [
						{
							"internalType": "uint256",
							"name": "factor",
							"type": "uint256"
						}
					],
					"name": "multiply",
					"outputs": [],
					"stateMutability": "nonpayable",
					"type": "function"
				},
				{
					"inputs": [],
					"name": "reset",
					"outputs": [],
					"stateMutability": "nonpayable",
					"type": "function"
				},
				{
					"inputs": [
						{
							"internalType": "uint256",
							"name": "amount",
							"type": "uint256"
						}
					],
					"name": "subtract",
					"outputs": [],
					"stateMutability": "nonpayable",
					"type": "function"
				}
			],
			"devdoc": {
				"kind": "dev",
				"methods": {},
				"version": 1
			},
			"evm": {
				"assembly": "    /* \"Counter.sol\":56:2501  contract Counter {... */\n  mstore(0x40, 0x80)\n    /* \"Counter.sol\":150:151  0 */\n  0x00\n    /* \"Counter.sol\":127:151  uint256 public count = 0 */\n  0x00\n  sstore\n    /* \"Counter.sol\":56:2501  contract Counter {... */\n  callvalue\n  dup1\n  iszero\n  tag_1\n  jumpi\n  revert(0x00, 0x00)\ntag_1:\n  pop\n  dataSize(sub_0)\n  dup1\n  dataOffset(sub_0)\n  0x00\n  codecopy\n  0x00\n  return\nstop\n\nsub_0: assembly {\n        /* \"Counter.sol\":56:2501  contract Counter {... */\n      mstore(0x40, 0x80)\n      callvalue\n      dup1\n      iszero\n      tag_1\n      jumpi\n      revert(0x00, 0x00)\n    tag_1:\n      pop\n      jumpi(tag_2, lt(calldatasize, 0x04))\n      shr(0xe0, calldataload(0x00))\n      dup1\n      0x886c6f51\n      gt\n      tag_17\n      jumpi\n      dup1\n      0xc6888fa1\n      gt\n      tag_18\n      jumpi\n      dup1\n      0xc6888fa1\n      eq\n      tag_13\n      jumpi\n      dup1\n      0xd09de08a\n      eq\n      tag_14\n      jumpi\n      dup1\n      0xd826f88f\n      eq\n      tag_15\n      jumpi\n      dup1\n      0xf6a6462c\n      eq\n      tag_16\n      jumpi\n      jump(tag_2)\n    tag_18:\n      dup1\n      0x886c6f51\n      eq\n      tag_10\n      jumpi\n      dup1\n      0x8fdb7189\n      eq\n      tag_11\n      jumpi\n      dup1\n      0xa87d942c\n      eq\n      tag_12\n      jumpi\n      jump(tag_2)\n    tag_17:\n      dup1\n      0x2baeceb7\n      gt\n      tag_19\n      jumpi\n      dup1\n      0x2baeceb7\n      eq\n      tag_6\n      jumpi\n      dup1\n      0x36b166ba\n      eq\n      tag_7\n      jumpi\n      dup1\n      0x43bd0d70\n      eq\n      tag_8\n      jumpi\n      dup1\n      0x7cf5dab0\n      eq\n      tag_9\n      jumpi\n      jump(tag_2)\n    tag_19:\n      dup1\n      0x06661abd\n      eq\n      tag_3\n      jumpi\n      dup1\n      0x1003e2d2\n      eq\n      tag_4\n      jumpi\n      dup1\n      0x1dc05f17\n      eq\n      tag_5\n      jumpi\n    tag_2:\n      revert(0x00, 0x00)\n        /* \"Counter.sol\":127:151  uint256 public count = 0 */\n    tag_3:\n      tag_20\n      tag_21\n      jump\t// in\n    tag_20:\n      mload(0x40)\n      tag_22\n      swap2\n      swap1\n      tag_23\n      jump\t// in\n    tag_22:\n      mload(0x40)\n      dup1\n      swap2\n      sub\n      swap1\n      return\n        /* \"Counter.sol\":1005:1114  function add(uint256 amount) public {... */\n    tag_4:\n      tag_24\n      0x04\n      dup1\n      calldatasize\n      sub\n      dup2\n      add\n      swap1\n      tag_25\n      swap2\n      swap1\n      tag_26\n      jump\t// in\n    tag_25:\n      tag_27\n      jump\t// in\n    tag_24:\n      stop\n        /* \"Counter.sol\":1170:1366  function subtract(uint256 amount) public {... */\n    tag_5:\n      tag_28\n      0x04\n      dup1\n      calldatasize\n      sub\n      dup2\n      add\n      swap1\n      tag_29\n      swap2\n      swap1\n      tag_26\n      jump\t// in\n    tag_29:\n      tag_30\n      jump\t// in\n    tag_28:\n      stop\n        /* \"Counter.sol\":464:680  function decrement() public {... */\n    tag_6:\n      tag_31\n      tag_32\n      jump\t// in\n    tag_31:\n      stop\n        /* \"Counter.sol\":2055:2138  function isEven() public view returns (bool) {... */\n    tag_7:\n      tag_33\n      tag_34\n      jump\t// in\n    tag_33:\n      mload(0x40)\n      tag_35\n      swap2\n      swap1\n      tag_36\n      jump\t// in\n    tag_35:\n      mload(0x40)\n      dup1\n      swap2\n      sub\n      swap1\n      return\n        /* \"Counter.sol\":2198:2275  function isOdd() public view returns (bool) {... */\n    tag_8:\n      tag_37\n      tag_38\n      jump\t// in\n    tag_37:\n      mload(0x40)\n      tag_39\n      swap2\n      swap1\n      tag_36\n      jump\t// in\n    tag_39:\n      mload(0x40)\n      dup1\n      swap2\n      sub\n      swap1\n      return\n        /* \"Counter.sol\":1876:1997  function increment(uint256 amount) public {... */\n    tag_9:\n      tag_40\n      0x04\n      dup1\n      calldatasize\n      sub\n      dup2\n      add\n      swap1\n      tag_41\n      swap2\n      swap1\n      tag_26\n      jump\t// in\n    tag_41:\n      tag_42\n      jump\t// in\n    tag_40:\n      stop\n        /* \"Counter.sol\":2334:2499  function modulo(uint256 divisor) public view returns (uint256) {... */\n    tag_10:\n      tag_43\n      0x04\n      dup1\n      calldatasize\n      sub\n      dup2\n      add\n      swap1\n      tag_44\n      swap2\n      swap1\n      tag_26\n      jump\t// in\n    tag_44:\n      tag_45\n      jump\t// in\n    tag_43:\n      mload(0x40)\n      tag_46\n      swap2\n      swap1\n      tag_23\n      jump\t// in\n    tag_46:\n      mload(0x40)\n      dup1\n      swap2\n      sub\n      swap1\n      return\n        /* \"Counter.sol\":1591:1672  function double() public view returns (uint256) {... */\n    tag_11:\n      tag_47\n      tag_48\n      jump\t// in\n    tag_47:\n      mload(0x40)\n      tag_49\n      swap2\n      swap1\n      tag_23\n      jump\t// in\n    tag_49:\n      mload(0x40)\n      dup1\n      swap2\n      sub\n      swap1\n      return\n        /* \"Counter.sol\":730:809  function getCount() public view returns (uint256) {... */\n    tag_12:\n      tag_50\n      tag_51\n      jump\t// in\n    tag_50:\n      mload(0x40)\n      tag_52\n      swap2\n      swap1\n      tag_23\n      jump\t// in\n    tag_52:\n      mload(0x40)\n      dup1\n      swap2\n      sub\n      swap1\n      return\n        /* \"Counter.sol\":1416:1535  function multiply(uint256 factor) public {... */\n    tag_13:\n      tag_53\n      0x04\n      dup1\n      calldatasize\n      sub\n      dup2\n      add\n      swap1\n      tag_54\n      swap2\n      swap1\n      tag_26\n      jump\t// in\n    tag_54:\n      tag_55\n      jump\t// in\n    tag_53:\n      stop\n        /* \"Counter.sol\":312:414  function increment() public {... */\n    tag_14:\n      tag_56\n      tag_57\n      jump\t// in\n    tag_56:\n      stop\n        /* \"Counter.sol\":857:950  function reset() public {... */\n    tag_15:\n      tag_58\n      tag_59\n      jump\t// in\n    tag_58:\n      stop\n        /* \"Counter.sol\":1747:1826  function half() public view returns (uint256) {... */\n    tag_16:\n      tag_60\n      tag_61\n      jump\t// in\n    tag_60:\n      mload(0x40)\n      tag_62\n      swap2\n      swap1\n      tag_23\n      jump\t// in\n    tag_62:\n      mload(0x40)\n      dup1\n      swap2\n      sub\n      swap1\n      return\n        /* \"Counter.sol\":127:151  uint256 public count = 0 */\n    tag_21:\n      sload(0x00)\n      dup2\n      jump\t// out\n        /* \"Counter.sol\":1005:1114  function add(uint256 amount) public {... */\n    tag_27:\n        /* \"Counter.sol\":1060:1066  amount */\n      dup1\n        /* \"Counter.sol\":1051:1056  count */\n      0x00\n      0x00\n        /* \"Counter.sol\":1051:1066  count += amount */\n      dup3\n      dup3\n      sload\n      tag_64\n      swap2\n      swap1\n      tag_65\n      jump\t// in\n    tag_64:\n      swap3\n      pop\n      pop\n      dup2\n      swap1\n      sstore\n      pop\n        /* \"Counter.sol\":1081:1107  CountChanged(count, \"add\") */\n      0x902cdecf278c2651239a65e4506b50f6ee0ed8d23056e0fa9e21c7ad99dfe8c4\n        /* \"Counter.sol\":1094:1099  count */\n      sload(0x00)\n        /* \"Counter.sol\":1081:1107  CountChanged(count, \"add\") */\n      mload(0x40)\n      tag_66\n      swap2\n      swap1\n      tag_67\n      jump\t// in\n    tag_66:\n      mload(0x40)\n      dup1\n      swap2\n      sub\n      swap1\n      log1\n        /* \"Counter.sol\":1005:1114  function add(uint256 amount) public {... */\n      pop\n      jump\t// out\n        /* \"Counter.sol\":1170:1366  function subtract(uint256 amount) public {... */\n    tag_30:\n        /* \"Counter.sol\":1238:1244  amount */\n      dup1\n        /* \"Counter.sol\":1229:1234  count */\n      sload(0x00)\n        /* \"Counter.sol\":1229:1244  count >= amount */\n      lt\n      iszero\n        /* \"Counter.sol\":1221:1288  require(count >= amount, \"No hay suficientes unidades para restar\") */\n      tag_69\n      jumpi\n      mload(0x40)\n      0x08c379a000000000000000000000000000000000000000000000000000000000\n      dup2\n      mstore\n      0x04\n      add\n      tag_70\n      swap1\n      tag_71\n      jump\t// in\n    tag_70:\n      mload(0x40)\n      dup1\n      swap2\n      sub\n      swap1\n      revert\n    tag_69:\n        /* \"Counter.sol\":1307:1313  amount */\n      dup1\n        /* \"Counter.sol\":1298:1303  count */\n      0x00\n      0x00\n        /* \"Counter.sol\":1298:1313  count -= amount */\n      dup3\n      dup3\n      sload\n      tag_72\n      swap2\n      swap1\n      tag_73\n      jump\t// in\n    tag_72:\n      swap3\n      pop\n      pop\n      dup2\n      swap1\n      sstore\n      pop\n        /* \"Counter.sol\":1328:1359  CountChanged(count, \"subtract\") */\n      0x902cdecf278c2651239a65e4506b50f6ee0ed8d23056e0fa9e21c7ad99dfe8c4\n        /* \"Counter.sol\":1341:1346  count */\n      sload(0x00)\n        /* \"Counter.sol\":1328:1359  CountChanged(count, \"subtract\") */\n      mload(0x40)\n      tag_74\n      swap2\n      swap1\n      tag_75\n      jump\t// in\n    tag_74:\n      mload(0x40)\n      dup1\n      swap2\n      sub\n      swap1\n      log1\n        /* \"Counter.sol\":1170:1366  function subtract(uint256 amount) public {... */\n      pop\n      jump\t// out\n        /* \"Counter.sol\":464:680  function decrement() public {... */\n    tag_32:\n        /* \"Counter.sol\":567:568  0 */\n      0x00\n        /* \"Counter.sol\":559:564  count */\n      sload(0x00)\n        /* \"Counter.sol\":559:568  count > 0 */\n      gt\n        /* \"Counter.sol\":551:606  require(count > 0, \"El contador no puede ser negativo\") */\n      tag_77\n      jumpi\n      mload(0x40)\n      0x08c379a000000000000000000000000000000000000000000000000000000000\n      dup2\n      mstore\n      0x04\n      add\n      tag_78\n      swap1\n      tag_79\n      jump\t// in\n    tag_78:\n      mload(0x40)\n      dup1\n      swap2\n      sub\n      swap1\n      revert\n    tag_77:\n        /* \"Counter.sol\":625:626  1 */\n      0x01\n        /* \"Counter.sol\":616:621  count */\n      0x00\n      0x00\n        /* \"Counter.sol\":616:626  count -= 1 */\n      dup3\n      dup3\n      sload\n      tag_80\n      swap2\n      swap1\n      tag_73\n      jump\t// in\n    tag_80:\n      swap3\n      pop\n      pop\n      dup2\n      swap1\n      sstore\n      pop\n        /* \"Counter.sol\":641:673  CountChanged(count, \"decrement\") */\n      0x902cdecf278c2651239a65e4506b50f6ee0ed8d23056e0fa9e21c7ad99dfe8c4\n        /* \"Counter.sol\":654:659  count */\n      sload(0x00)\n        /* \"Counter.sol\":641:673  CountChanged(count, \"decrement\") */\n      mload(0x40)\n      tag_81\n      swap2\n      swap1\n      tag_82\n      jump\t// in\n    tag_81:\n      mload(0x40)\n      dup1\n      swap2\n      sub\n      swap1\n      log1\n        /* \"Counter.sol\":464:680  function decrement() public {... */\n      jump\t// out\n        /* \"Counter.sol\":2055:2138  function isEven() public view returns (bool) {... */\n    tag_34:\n        /* \"Counter.sol\":2094:2098  bool */\n      0x00\n        /* \"Counter.sol\":2130:2131  0 */\n      0x00\n        /* \"Counter.sol\":2125:2126  2 */\n      0x02\n        /* \"Counter.sol\":2117:2122  count */\n      sload(0x00)\n        /* \"Counter.sol\":2117:2126  count % 2 */\n      tag_84\n      swap2\n      swap1\n      tag_85\n      jump\t// in\n    tag_84:\n        /* \"Counter.sol\":2117:2131  count % 2 == 0 */\n      eq\n        /* \"Counter.sol\":2110:2131  return count % 2 == 0 */\n      swap1\n      pop\n        /* \"Counter.sol\":2055:2138  function isEven() public view returns (bool) {... */\n      swap1\n      jump\t// out\n        /* \"Counter.sol\":2198:2275  function isOdd() public view returns (bool) {... */\n    tag_38:\n        /* \"Counter.sol\":2236:2240  bool */\n      0x00\n        /* \"Counter.sol\":2260:2268  isEven() */\n      tag_87\n        /* \"Counter.sol\":2260:2266  isEven */\n      tag_34\n        /* \"Counter.sol\":2260:2268  isEven() */\n      jump\t// in\n    tag_87:\n        /* \"Counter.sol\":2259:2268  !isEven() */\n      iszero\n        /* \"Counter.sol\":2252:2268  return !isEven() */\n      swap1\n      pop\n        /* \"Counter.sol\":2198:2275  function isOdd() public view returns (bool) {... */\n      swap1\n      jump\t// out\n        /* \"Counter.sol\":1876:1997  function increment(uint256 amount) public {... */\n    tag_42:\n        /* \"Counter.sol\":1937:1943  amount */\n      dup1\n        /* \"Counter.sol\":1928:1933  count */\n      0x00\n      0x00\n        /* \"Counter.sol\":1928:1943  count += amount */\n      dup3\n      dup3\n      sload\n      tag_89\n      swap2\n      swap1\n      tag_65\n      jump\t// in\n    tag_89:\n      swap3\n      pop\n      pop\n      dup2\n      swap1\n      sstore\n      pop\n        /* \"Counter.sol\":1958:1990  CountChanged(count, \"increment\") */\n      0x902cdecf278c2651239a65e4506b50f6ee0ed8d23056e0fa9e21c7ad99dfe8c4\n        /* \"Counter.sol\":1971:1976  count */\n      sload(0x00)\n        /* \"Counter.sol\":1958:1990  CountChanged(count, \"increment\") */\n      mload(0x40)\n      tag_90\n      swap2\n      swap1\n      tag_91\n      jump\t// in\n    tag_90:\n      mload(0x40)\n      dup1\n      swap2\n      sub\n      swap1\n      log1\n        /* \"Counter.sol\":1876:1997  function increment(uint256 amount) public {... */\n      pop\n      jump\t// out\n        /* \"Counter.sol\":2334:2499  function modulo(uint256 divisor) public view returns (uint256) {... */\n    tag_45:\n        /* \"Counter.sol\":2388:2395  uint256 */\n      0x00\n        /* \"Counter.sol\":2426:2427  0 */\n      0x00\n        /* \"Counter.sol\":2415:2422  divisor */\n      dup3\n        /* \"Counter.sol\":2415:2427  divisor != 0 */\n      sub\n        /* \"Counter.sol\":2407:2460  require(divisor != 0, \"El divisor no puede ser cero\") */\n      tag_93\n      jumpi\n      mload(0x40)\n      0x08c379a000000000000000000000000000000000000000000000000000000000\n      dup2\n      mstore\n      0x04\n      add\n      tag_94\n      swap1\n      tag_95\n      jump\t// in\n    tag_94:\n      mload(0x40)\n      dup1\n      swap2\n      sub\n      swap1\n      revert\n    tag_93:\n        /* \"Counter.sol\":2485:2492  divisor */\n      dup2\n        /* \"Counter.sol\":2477:2482  count */\n      sload(0x00)\n        /* \"Counter.sol\":2477:2492  count % divisor */\n      tag_96\n      swap2\n      swap1\n      tag_85\n      jump\t// in\n    tag_96:\n        /* \"Counter.sol\":2470:2492  return count % divisor */\n      swap1\n      pop\n        /* \"Counter.sol\":2334:2499  function modulo(uint256 divisor) public view returns (uint256) {... */\n      swap2\n      swap1\n      pop\n      jump\t// out\n        /* \"Counter.sol\":1591:1672  function double() public view returns (uint256) {... */\n    tag_48:\n        /* \"Counter.sol\":1630:1637  uint256 */\n      0x00\n        /* \"Counter.sol\":1664:1665  2 */\n      0x02\n        /* \"Counter.sol\":1656:1661  count */\n      sload(0x00)\n        /* \"Counter.sol\":1656:1665  count * 2 */\n      tag_98\n      swap2\n      swap1\n      tag_99\n      jump\t// in\n    tag_98:\n        /* \"Counter.sol\":1649:1665  return count * 2 */\n      swap1\n      pop\n        /* \"Counter.sol\":1591:1672  function double() public view returns (uint256) {... */\n      swap1\n      jump\t// out\n        /* \"Counter.sol\":730:809  function getCount() public view returns (uint256) {... */\n    tag_51:\n        /* \"Counter.sol\":771:778  uint256 */\n      0x00\n        /* \"Counter.sol\":797:802  count */\n      sload(0x00)\n        /* \"Counter.sol\":790:802  return count */\n      swap1\n      pop\n        /* \"Counter.sol\":730:809  function getCount() public view returns (uint256) {... */\n      swap1\n      jump\t// out\n        /* \"Counter.sol\":1416:1535  function multiply(uint256 factor) public {... */\n    tag_55:\n        /* \"Counter.sol\":1476:1482  factor */\n      dup1\n        /* \"Counter.sol\":1467:1472  count */\n      0x00\n      0x00\n        /* \"Counter.sol\":1467:1482  count *= factor */\n      dup3\n      dup3\n      sload\n      tag_102\n      swap2\n      swap1\n      tag_99\n      jump\t// in\n    tag_102:\n      swap3\n      pop\n      pop\n      dup2\n      swap1\n      sstore\n      pop\n        /* \"Counter.sol\":1497:1528  CountChanged(count, \"multiply\") */\n      0x902cdecf278c2651239a65e4506b50f6ee0ed8d23056e0fa9e21c7ad99dfe8c4\n        /* \"Counter.sol\":1510:1515  count */\n      sload(0x00)\n        /* \"Counter.sol\":1497:1528  CountChanged(count, \"multiply\") */\n      mload(0x40)\n      tag_103\n      swap2\n      swap1\n      tag_104\n      jump\t// in\n    tag_103:\n      mload(0x40)\n      dup1\n      swap2\n      sub\n      swap1\n      log1\n        /* \"Counter.sol\":1416:1535  function multiply(uint256 factor) public {... */\n      pop\n      jump\t// out\n        /* \"Counter.sol\":312:414  function increment() public {... */\n    tag_57:\n        /* \"Counter.sol\":359:360  1 */\n      0x01\n        /* \"Counter.sol\":350:355  count */\n      0x00\n      0x00\n        /* \"Counter.sol\":350:360  count += 1 */\n      dup3\n      dup3\n      sload\n      tag_106\n      swap2\n      swap1\n      tag_65\n      jump\t// in\n    tag_106:\n      swap3\n      pop\n      pop\n      dup2\n      swap1\n      sstore\n      pop\n        /* \"Counter.sol\":375:407  CountChanged(count, \"increment\") */\n      0x902cdecf278c2651239a65e4506b50f6ee0ed8d23056e0fa9e21c7ad99dfe8c4\n        /* \"Counter.sol\":388:393  count */\n      sload(0x00)\n        /* \"Counter.sol\":375:407  CountChanged(count, \"increment\") */\n      mload(0x40)\n      tag_107\n      swap2\n      swap1\n      tag_91\n      jump\t// in\n    tag_107:\n      mload(0x40)\n      dup1\n      swap2\n      sub\n      swap1\n      log1\n        /* \"Counter.sol\":312:414  function increment() public {... */\n      jump\t// out\n        /* \"Counter.sol\":857:950  function reset() public {... */\n    tag_59:\n        /* \"Counter.sol\":899:900  0 */\n      0x00\n        /* \"Counter.sol\":891:896  count */\n      0x00\n        /* \"Counter.sol\":891:900  count = 0 */\n      dup2\n      swap1\n      sstore\n      pop\n        /* \"Counter.sol\":915:943  CountChanged(count, \"reset\") */\n      0x902cdecf278c2651239a65e4506b50f6ee0ed8d23056e0fa9e21c7ad99dfe8c4\n        /* \"Counter.sol\":928:933  count */\n      sload(0x00)\n        /* \"Counter.sol\":915:943  CountChanged(count, \"reset\") */\n      mload(0x40)\n      tag_109\n      swap2\n      swap1\n      tag_110\n      jump\t// in\n    tag_109:\n      mload(0x40)\n      dup1\n      swap2\n      sub\n      swap1\n      log1\n        /* \"Counter.sol\":857:950  function reset() public {... */\n      jump\t// out\n        /* \"Counter.sol\":1747:1826  function half() public view returns (uint256) {... */\n    tag_61:\n        /* \"Counter.sol\":1784:1791  uint256 */\n      0x00\n        /* \"Counter.sol\":1818:1819  2 */\n      0x02\n        /* \"Counter.sol\":1810:1815  count */\n      sload(0x00)\n        /* \"Counter.sol\":1810:1819  count / 2 */\n      tag_112\n      swap2\n      swap1\n      tag_113\n      jump\t// in\n    tag_112:\n        /* \"Counter.sol\":1803:1819  return count / 2 */\n      swap1\n      pop\n        /* \"Counter.sol\":1747:1826  function half() public view returns (uint256) {... */\n      swap1\n      jump\t// out\n        /* \"#utility.yul\":7:84   */\n    tag_114:\n        /* \"#utility.yul\":44:51   */\n      0x00\n        /* \"#utility.yul\":73:78   */\n      dup2\n        /* \"#utility.yul\":62:78   */\n      swap1\n      pop\n        /* \"#utility.yul\":7:84   */\n      swap2\n      swap1\n      pop\n      jump\t// out\n        /* \"#utility.yul\":90:208   */\n    tag_115:\n        /* \"#utility.yul\":177:201   */\n      tag_147\n        /* \"#utility.yul\":195:200   */\n      dup2\n        /* \"#utility.yul\":177:201   */\n      tag_114\n      jump\t// in\n    tag_147:\n        /* \"#utility.yul\":172:175   */\n      dup3\n        /* \"#utility.yul\":165:202   */\n      mstore\n        /* \"#utility.yul\":90:208   */\n      pop\n      pop\n      jump\t// out\n        /* \"#utility.yul\":214:436   */\n    tag_23:\n        /* \"#utility.yul\":307:311   */\n      0x00\n        /* \"#utility.yul\":345:347   */\n      0x20\n        /* \"#utility.yul\":334:343   */\n      dup3\n        /* \"#utility.yul\":330:348   */\n      add\n        /* \"#utility.yul\":322:348   */\n      swap1\n      pop\n        /* \"#utility.yul\":358:429   */\n      tag_149\n        /* \"#utility.yul\":426:427   */\n      0x00\n        /* \"#utility.yul\":415:424   */\n      dup4\n        /* \"#utility.yul\":411:428   */\n      add\n        /* \"#utility.yul\":402:408   */\n      dup5\n        /* \"#utility.yul\":358:429   */\n      tag_115\n      jump\t// in\n    tag_149:\n        /* \"#utility.yul\":214:436   */\n      swap3\n      swap2\n      pop\n      pop\n      jump\t// out\n        /* \"#utility.yul\":523:640   */\n    tag_117:\n        /* \"#utility.yul\":632:633   */\n      0x00\n        /* \"#utility.yul\":629:630   */\n      0x00\n        /* \"#utility.yul\":622:634   */\n      revert\n        /* \"#utility.yul\":769:891   */\n    tag_119:\n        /* \"#utility.yul\":842:866   */\n      tag_154\n        /* \"#utility.yul\":860:865   */\n      dup2\n        /* \"#utility.yul\":842:866   */\n      tag_114\n      jump\t// in\n    tag_154:\n        /* \"#utility.yul\":835:840   */\n      dup2\n        /* \"#utility.yul\":832:867   */\n      eq\n        /* \"#utility.yul\":822:885   */\n      tag_155\n      jumpi\n        /* \"#utility.yul\":881:882   */\n      0x00\n        /* \"#utility.yul\":878:879   */\n      0x00\n        /* \"#utility.yul\":871:883   */\n      revert\n        /* \"#utility.yul\":822:885   */\n    tag_155:\n        /* \"#utility.yul\":769:891   */\n      pop\n      jump\t// out\n        /* \"#utility.yul\":897:1036   */\n    tag_120:\n        /* \"#utility.yul\":943:948   */\n      0x00\n        /* \"#utility.yul\":981:987   */\n      dup2\n        /* \"#utility.yul\":968:988   */\n      calldataload\n        /* \"#utility.yul\":959:988   */\n      swap1\n      pop\n        /* \"#utility.yul\":997:1030   */\n      tag_157\n        /* \"#utility.yul\":1024:1029   */\n      dup2\n        /* \"#utility.yul\":997:1030   */\n      tag_119\n      jump\t// in\n    tag_157:\n        /* \"#utility.yul\":897:1036   */\n      swap3\n      swap2\n      pop\n      pop\n      jump\t// out\n        /* \"#utility.yul\":1042:1371   */\n    tag_26:\n        /* \"#utility.yul\":1101:1107   */\n      0x00\n        /* \"#utility.yul\":1150:1152   */\n      0x20\n        /* \"#utility.yul\":1138:1147   */\n      dup3\n        /* \"#utility.yul\":1129:1136   */\n      dup5\n        /* \"#utility.yul\":1125:1148   */\n      sub\n        /* \"#utility.yul\":1121:1153   */\n      slt\n        /* \"#utility.yul\":1118:1237   */\n      iszero\n      tag_159\n      jumpi\n        /* \"#utility.yul\":1156:1235   */\n      tag_160\n      tag_117\n      jump\t// in\n    tag_160:\n        /* \"#utility.yul\":1118:1237   */\n    tag_159:\n        /* \"#utility.yul\":1276:1277   */\n      0x00\n        /* \"#utility.yul\":1301:1354   */\n      tag_161\n        /* \"#utility.yul\":1346:1353   */\n      dup5\n        /* \"#utility.yul\":1337:1343   */\n      dup3\n        /* \"#utility.yul\":1326:1335   */\n      dup6\n        /* \"#utility.yul\":1322:1344   */\n      add\n        /* \"#utility.yul\":1301:1354   */\n      tag_120\n      jump\t// in\n    tag_161:\n        /* \"#utility.yul\":1291:1354   */\n      swap2\n      pop\n        /* \"#utility.yul\":1247:1364   */\n      pop\n        /* \"#utility.yul\":1042:1371   */\n      swap3\n      swap2\n      pop\n      pop\n      jump\t// out\n        /* \"#utility.yul\":1377:1467   */\n    tag_121:\n        /* \"#utility.yul\":1411:1418   */\n      0x00\n        /* \"#utility.yul\":1454:1459   */\n      dup2\n        /* \"#utility.yul\":1447:1460   */\n      iszero\n        /* \"#utility.yul\":1440:1461   */\n      iszero\n        /* \"#utility.yul\":1429:1461   */\n      swap1\n      pop\n        /* \"#utility.yul\":1377:1467   */\n      swap2\n      swap1\n      pop\n      jump\t// out\n        /* \"#utility.yul\":1473:1582   */\n    tag_122:\n        /* \"#utility.yul\":1554:1575   */\n      tag_164\n        /* \"#utility.yul\":1569:1574   */\n      dup2\n        /* \"#utility.yul\":1554:1575   */\n      tag_121\n      jump\t// in\n    tag_164:\n        /* \"#utility.yul\":1549:1552   */\n      dup3\n        /* \"#utility.yul\":1542:1576   */\n      mstore\n        /* \"#utility.yul\":1473:1582   */\n      pop\n      pop\n      jump\t// out\n        /* \"#utility.yul\":1588:1798   */\n    tag_36:\n        /* \"#utility.yul\":1675:1679   */\n      0x00\n        /* \"#utility.yul\":1713:1715   */\n      0x20\n        /* \"#utility.yul\":1702:1711   */\n      dup3\n        /* \"#utility.yul\":1698:1716   */\n      add\n        /* \"#utility.yul\":1690:1716   */\n      swap1\n      pop\n        /* \"#utility.yul\":1726:1791   */\n      tag_166\n        /* \"#utility.yul\":1788:1789   */\n      0x00\n        /* \"#utility.yul\":1777:1786   */\n      dup4\n        /* \"#utility.yul\":1773:1790   */\n      add\n        /* \"#utility.yul\":1764:1770   */\n      dup5\n        /* \"#utility.yul\":1726:1791   */\n      tag_122\n      jump\t// in\n    tag_166:\n        /* \"#utility.yul\":1588:1798   */\n      swap3\n      swap2\n      pop\n      pop\n      jump\t// out\n        /* \"#utility.yul\":1804:1984   */\n    tag_123:\n        /* \"#utility.yul\":1852:1929   */\n      0x4e487b7100000000000000000000000000000000000000000000000000000000\n        /* \"#utility.yul\":1849:1850   */\n      0x00\n        /* \"#utility.yul\":1842:1930   */\n      mstore\n        /* \"#utility.yul\":1949:1953   */\n      0x11\n        /* \"#utility.yul\":1946:1947   */\n      0x04\n        /* \"#utility.yul\":1939:1954   */\n      mstore\n        /* \"#utility.yul\":1973:1977   */\n      0x24\n        /* \"#utility.yul\":1970:1971   */\n      0x00\n        /* \"#utility.yul\":1963:1978   */\n      revert\n        /* \"#utility.yul\":1990:2181   */\n    tag_65:\n        /* \"#utility.yul\":2030:2033   */\n      0x00\n        /* \"#utility.yul\":2049:2069   */\n      tag_169\n        /* \"#utility.yul\":2067:2068   */\n      dup3\n        /* \"#utility.yul\":2049:2069   */\n      tag_114\n      jump\t// in\n    tag_169:\n        /* \"#utility.yul\":2044:2069   */\n      swap2\n      pop\n        /* \"#utility.yul\":2083:2103   */\n      tag_170\n        /* \"#utility.yul\":2101:2102   */\n      dup4\n        /* \"#utility.yul\":2083:2103   */\n      tag_114\n      jump\t// in\n    tag_170:\n        /* \"#utility.yul\":2078:2103   */\n      swap3\n      pop\n        /* \"#utility.yul\":2126:2127   */\n      dup3\n        /* \"#utility.yul\":2123:2124   */\n      dup3\n        /* \"#utility.yul\":2119:2128   */\n      add\n        /* \"#utility.yul\":2112:2128   */\n      swap1\n      pop\n        /* \"#utility.yul\":2147:2150   */\n      dup1\n        /* \"#utility.yul\":2144:2145   */\n      dup3\n        /* \"#utility.yul\":2141:2151   */\n      gt\n        /* \"#utility.yul\":2138:2174   */\n      iszero\n      tag_171\n      jumpi\n        /* \"#utility.yul\":2154:2172   */\n      tag_172\n      tag_123\n      jump\t// in\n    tag_172:\n        /* \"#utility.yul\":2138:2174   */\n    tag_171:\n        /* \"#utility.yul\":1990:2181   */\n      swap3\n      swap2\n      pop\n      pop\n      jump\t// out\n        /* \"#utility.yul\":2187:2356   */\n    tag_124:\n        /* \"#utility.yul\":2271:2282   */\n      0x00\n        /* \"#utility.yul\":2305:2311   */\n      dup3\n        /* \"#utility.yul\":2300:2303   */\n      dup3\n        /* \"#utility.yul\":2293:2312   */\n      mstore\n        /* \"#utility.yul\":2345:2349   */\n      0x20\n        /* \"#utility.yul\":2340:2343   */\n      dup3\n        /* \"#utility.yul\":2336:2350   */\n      add\n        /* \"#utility.yul\":2321:2350   */\n      swap1\n      pop\n        /* \"#utility.yul\":2187:2356   */\n      swap3\n      swap2\n      pop\n      pop\n      jump\t// out\n        /* \"#utility.yul\":2362:2515   */\n    tag_125:\n        /* \"#utility.yul\":2502:2507   */\n      0x6164640000000000000000000000000000000000000000000000000000000000\n        /* \"#utility.yul\":2498:2499   */\n      0x00\n        /* \"#utility.yul\":2490:2496   */\n      dup3\n        /* \"#utility.yul\":2486:2500   */\n      add\n        /* \"#utility.yul\":2479:2508   */\n      mstore\n        /* \"#utility.yul\":2362:2515   */\n      pop\n      jump\t// out\n        /* \"#utility.yul\":2521:2886   */\n    tag_126:\n        /* \"#utility.yul\":2663:2666   */\n      0x00\n        /* \"#utility.yul\":2684:2750   */\n      tag_176\n        /* \"#utility.yul\":2748:2749   */\n      0x03\n        /* \"#utility.yul\":2743:2746   */\n      dup4\n        /* \"#utility.yul\":2684:2750   */\n      tag_124\n      jump\t// in\n    tag_176:\n        /* \"#utility.yul\":2677:2750   */\n      swap2\n      pop\n        /* \"#utility.yul\":2759:2852   */\n      tag_177\n        /* \"#utility.yul\":2848:2851   */\n      dup3\n        /* \"#utility.yul\":2759:2852   */\n      tag_125\n      jump\t// in\n    tag_177:\n        /* \"#utility.yul\":2877:2879   */\n      0x20\n        /* \"#utility.yul\":2872:2875   */\n      dup3\n        /* \"#utility.yul\":2868:2880   */\n      add\n        /* \"#utility.yul\":2861:2880   */\n      swap1\n      pop\n        /* \"#utility.yul\":2521:2886   */\n      swap2\n      swap1\n      pop\n      jump\t// out\n        /* \"#utility.yul\":2892:3421   */\n    tag_67:\n        /* \"#utility.yul\":3086:3090   */\n      0x00\n        /* \"#utility.yul\":3124:3126   */\n      0x40\n        /* \"#utility.yul\":3113:3122   */\n      dup3\n        /* \"#utility.yul\":3109:3127   */\n      add\n        /* \"#utility.yul\":3101:3127   */\n      swap1\n      pop\n        /* \"#utility.yul\":3137:3208   */\n      tag_179\n        /* \"#utility.yul\":3205:3206   */\n      0x00\n        /* \"#utility.yul\":3194:3203   */\n      dup4\n        /* \"#utility.yul\":3190:3207   */\n      add\n        /* \"#utility.yul\":3181:3187   */\n      dup5\n        /* \"#utility.yul\":3137:3208   */\n      tag_115\n      jump\t// in\n    tag_179:\n        /* \"#utility.yul\":3255:3264   */\n      dup2\n        /* \"#utility.yul\":3249:3253   */\n      dup2\n        /* \"#utility.yul\":3245:3265   */\n      sub\n        /* \"#utility.yul\":3240:3242   */\n      0x20\n        /* \"#utility.yul\":3229:3238   */\n      dup4\n        /* \"#utility.yul\":3225:3243   */\n      add\n        /* \"#utility.yul\":3218:3266   */\n      mstore\n        /* \"#utility.yul\":3283:3414   */\n      tag_180\n        /* \"#utility.yul\":3409:3413   */\n      dup2\n        /* \"#utility.yul\":3283:3414   */\n      tag_126\n      jump\t// in\n    tag_180:\n        /* \"#utility.yul\":3275:3414   */\n      swap1\n      pop\n        /* \"#utility.yul\":2892:3421   */\n      swap3\n      swap2\n      pop\n      pop\n      jump\t// out\n        /* \"#utility.yul\":3427:3653   */\n    tag_127:\n        /* \"#utility.yul\":3567:3601   */\n      0x4e6f2068617920737566696369656e74657320756e6964616465732070617261\n        /* \"#utility.yul\":3563:3564   */\n      0x00\n        /* \"#utility.yul\":3555:3561   */\n      dup3\n        /* \"#utility.yul\":3551:3565   */\n      add\n        /* \"#utility.yul\":3544:3602   */\n      mstore\n        /* \"#utility.yul\":3636:3645   */\n      0x2072657374617200000000000000000000000000000000000000000000000000\n        /* \"#utility.yul\":3631:3633   */\n      0x20\n        /* \"#utility.yul\":3623:3629   */\n      dup3\n        /* \"#utility.yul\":3619:3634   */\n      add\n        /* \"#utility.yul\":3612:3646   */\n      mstore\n        /* \"#utility.yul\":3427:3653   */\n      pop\n      jump\t// out\n        /* \"#utility.yul\":3659:4025   */\n    tag_128:\n        /* \"#utility.yul\":3801:3804   */\n      0x00\n        /* \"#utility.yul\":3822:3889   */\n      tag_183\n        /* \"#utility.yul\":3886:3888   */\n      0x27\n        /* \"#utility.yul\":3881:3884   */\n      dup4\n        /* \"#utility.yul\":3822:3889   */\n      tag_124\n      jump\t// in\n    tag_183:\n        /* \"#utility.yul\":3815:3889   */\n      swap2\n      pop\n        /* \"#utility.yul\":3898:3991   */\n      tag_184\n        /* \"#utility.yul\":3987:3990   */\n      dup3\n        /* \"#utility.yul\":3898:3991   */\n      tag_127\n      jump\t// in\n    tag_184:\n        /* \"#utility.yul\":4016:4018   */\n      0x40\n        /* \"#utility.yul\":4011:4014   */\n      dup3\n        /* \"#utility.yul\":4007:4019   */\n      add\n        /* \"#utility.yul\":4000:4019   */\n      swap1\n      pop\n        /* \"#utility.yul\":3659:4025   */\n      swap2\n      swap1\n      pop\n      jump\t// out\n        /* \"#utility.yul\":4031:4450   */\n    tag_71:\n        /* \"#utility.yul\":4197:4201   */\n      0x00\n        /* \"#utility.yul\":4235:4237   */\n      0x20\n        /* \"#utility.yul\":4224:4233   */\n      dup3\n        /* \"#utility.yul\":4220:4238   */\n      add\n        /* \"#utility.yul\":4212:4238   */\n      swap1\n      pop\n        /* \"#utility.yul\":4284:4293   */\n      dup2\n        /* \"#utility.yul\":4278:4282   */\n      dup2\n        /* \"#utility.yul\":4274:4294   */\n      sub\n        /* \"#utility.yul\":4270:4271   */\n      0x00\n        /* \"#utility.yul\":4259:4268   */\n      dup4\n        /* \"#utility.yul\":4255:4272   */\n      add\n        /* \"#utility.yul\":4248:4295   */\n      mstore\n        /* \"#utility.yul\":4312:4443   */\n      tag_186\n        /* \"#utility.yul\":4438:4442   */\n      dup2\n        /* \"#utility.yul\":4312:4443   */\n      tag_128\n      jump\t// in\n    tag_186:\n        /* \"#utility.yul\":4304:4443   */\n      swap1\n      pop\n        /* \"#utility.yul\":4031:4450   */\n      swap2\n      swap1\n      pop\n      jump\t// out\n        /* \"#utility.yul\":4456:4650   */\n    tag_73:\n        /* \"#utility.yul\":4496:4500   */\n      0x00\n        /* \"#utility.yul\":4516:4536   */\n      tag_188\n        /* \"#utility.yul\":4534:4535   */\n      dup3\n        /* \"#utility.yul\":4516:4536   */\n      tag_114\n      jump\t// in\n    tag_188:\n        /* \"#utility.yul\":4511:4536   */\n      swap2\n      pop\n        /* \"#utility.yul\":4550:4570   */\n      tag_189\n        /* \"#utility.yul\":4568:4569   */\n      dup4\n        /* \"#utility.yul\":4550:4570   */\n      tag_114\n      jump\t// in\n    tag_189:\n        /* \"#utility.yul\":4545:4570   */\n      swap3\n      pop\n        /* \"#utility.yul\":4594:4595   */\n      dup3\n        /* \"#utility.yul\":4591:4592   */\n      dup3\n        /* \"#utility.yul\":4587:4596   */\n      sub\n        /* \"#utility.yul\":4579:4596   */\n      swap1\n      pop\n        /* \"#utility.yul\":4618:4619   */\n      dup2\n        /* \"#utility.yul\":4612:4616   */\n      dup2\n        /* \"#utility.yul\":4609:4620   */\n      gt\n        /* \"#utility.yul\":4606:4643   */\n      iszero\n      tag_190\n      jumpi\n        /* \"#utility.yul\":4623:4641   */\n      tag_191\n      tag_123\n      jump\t// in\n    tag_191:\n        /* \"#utility.yul\":4606:4643   */\n    tag_190:\n        /* \"#utility.yul\":4456:4650   */\n      swap3\n      swap2\n      pop\n      pop\n      jump\t// out\n        /* \"#utility.yul\":4656:4814   */\n    tag_129:\n        /* \"#utility.yul\":4796:4806   */\n      0x7375627472616374000000000000000000000000000000000000000000000000\n        /* \"#utility.yul\":4792:4793   */\n      0x00\n        /* \"#utility.yul\":4784:4790   */\n      dup3\n        /* \"#utility.yul\":4780:4794   */\n      add\n        /* \"#utility.yul\":4773:4807   */\n      mstore\n        /* \"#utility.yul\":4656:4814   */\n      pop\n      jump\t// out\n        /* \"#utility.yul\":4820:5185   */\n    tag_130:\n        /* \"#utility.yul\":4962:4965   */\n      0x00\n        /* \"#utility.yul\":4983:5049   */\n      tag_194\n        /* \"#utility.yul\":5047:5048   */\n      0x08\n        /* \"#utility.yul\":5042:5045   */\n      dup4\n        /* \"#utility.yul\":4983:5049   */\n      tag_124\n      jump\t// in\n    tag_194:\n        /* \"#utility.yul\":4976:5049   */\n      swap2\n      pop\n        /* \"#utility.yul\":5058:5151   */\n      tag_195\n        /* \"#utility.yul\":5147:5150   */\n      dup3\n        /* \"#utility.yul\":5058:5151   */\n      tag_129\n      jump\t// in\n    tag_195:\n        /* \"#utility.yul\":5176:5178   */\n      0x20\n        /* \"#utility.yul\":5171:5174   */\n      dup3\n        /* \"#utility.yul\":5167:5179   */\n      add\n        /* \"#utility.yul\":5160:5179   */\n      swap1\n      pop\n        /* \"#utility.yul\":4820:5185   */\n      swap2\n      swap1\n      pop\n      jump\t// out\n        /* \"#utility.yul\":5191:5720   */\n    tag_75:\n        /* \"#utility.yul\":5385:5389   */\n      0x00\n        /* \"#utility.yul\":5423:5425   */\n      0x40\n        /* \"#utility.yul\":5412:5421   */\n      dup3\n        /* \"#utility.yul\":5408:5426   */\n      add\n        /* \"#utility.yul\":5400:5426   */\n      swap1\n      pop\n        /* \"#utility.yul\":5436:5507   */\n      tag_197\n        /* \"#utility.yul\":5504:5505   */\n      0x00\n        /* \"#utility.yul\":5493:5502   */\n      dup4\n        /* \"#utility.yul\":5489:5506   */\n      add\n        /* \"#utility.yul\":5480:5486   */\n      dup5\n        /* \"#utility.yul\":5436:5507   */\n      tag_115\n      jump\t// in\n    tag_197:\n        /* \"#utility.yul\":5554:5563   */\n      dup2\n        /* \"#utility.yul\":5548:5552   */\n      dup2\n        /* \"#utility.yul\":5544:5564   */\n      sub\n        /* \"#utility.yul\":5539:5541   */\n      0x20\n        /* \"#utility.yul\":5528:5537   */\n      dup4\n        /* \"#utility.yul\":5524:5542   */\n      add\n        /* \"#utility.yul\":5517:5565   */\n      mstore\n        /* \"#utility.yul\":5582:5713   */\n      tag_198\n        /* \"#utility.yul\":5708:5712   */\n      dup2\n        /* \"#utility.yul\":5582:5713   */\n      tag_130\n      jump\t// in\n    tag_198:\n        /* \"#utility.yul\":5574:5713   */\n      swap1\n      pop\n        /* \"#utility.yul\":5191:5720   */\n      swap3\n      swap2\n      pop\n      pop\n      jump\t// out\n        /* \"#utility.yul\":5726:5946   */\n    tag_131:\n        /* \"#utility.yul\":5866:5900   */\n      0x456c20636f6e7461646f72206e6f20707565646520736572206e656761746976\n        /* \"#utility.yul\":5862:5863   */\n      0x00\n        /* \"#utility.yul\":5854:5860   */\n      dup3\n        /* \"#utility.yul\":5850:5864   */\n      add\n        /* \"#utility.yul\":5843:5901   */\n      mstore\n        /* \"#utility.yul\":5935:5938   */\n      0x6f00000000000000000000000000000000000000000000000000000000000000\n        /* \"#utility.yul\":5930:5932   */\n      0x20\n        /* \"#utility.yul\":5922:5928   */\n      dup3\n        /* \"#utility.yul\":5918:5933   */\n      add\n        /* \"#utility.yul\":5911:5939   */\n      mstore\n        /* \"#utility.yul\":5726:5946   */\n      pop\n      jump\t// out\n        /* \"#utility.yul\":5952:6318   */\n    tag_132:\n        /* \"#utility.yul\":6094:6097   */\n      0x00\n        /* \"#utility.yul\":6115:6182   */\n      tag_201\n        /* \"#utility.yul\":6179:6181   */\n      0x21\n        /* \"#utility.yul\":6174:6177   */\n      dup4\n        /* \"#utility.yul\":6115:6182   */\n      tag_124\n      jump\t// in\n    tag_201:\n        /* \"#utility.yul\":6108:6182   */\n      swap2\n      pop\n        /* \"#utility.yul\":6191:6284   */\n      tag_202\n        /* \"#utility.yul\":6280:6283   */\n      dup3\n        /* \"#utility.yul\":6191:6284   */\n      tag_131\n      jump\t// in\n    tag_202:\n        /* \"#utility.yul\":6309:6311   */\n      0x40\n        /* \"#utility.yul\":6304:6307   */\n      dup3\n        /* \"#utility.yul\":6300:6312   */\n      add\n        /* \"#utility.yul\":6293:6312   */\n      swap1\n      pop\n        /* \"#utility.yul\":5952:6318   */\n      swap2\n      swap1\n      pop\n      jump\t// out\n        /* \"#utility.yul\":6324:6743   */\n    tag_79:\n        /* \"#utility.yul\":6490:6494   */\n      0x00\n        /* \"#utility.yul\":6528:6530   */\n      0x20\n        /* \"#utility.yul\":6517:6526   */\n      dup3\n        /* \"#utility.yul\":6513:6531   */\n      add\n        /* \"#utility.yul\":6505:6531   */\n      swap1\n      pop\n        /* \"#utility.yul\":6577:6586   */\n      dup2\n        /* \"#utility.yul\":6571:6575   */\n      dup2\n        /* \"#utility.yul\":6567:6587   */\n      sub\n        /* \"#utility.yul\":6563:6564   */\n      0x00\n        /* \"#utility.yul\":6552:6561   */\n      dup4\n        /* \"#utility.yul\":6548:6565   */\n      add\n        /* \"#utility.yul\":6541:6588   */\n      mstore\n        /* \"#utility.yul\":6605:6736   */\n      tag_204\n        /* \"#utility.yul\":6731:6735   */\n      dup2\n        /* \"#utility.yul\":6605:6736   */\n      tag_132\n      jump\t// in\n    tag_204:\n        /* \"#utility.yul\":6597:6736   */\n      swap1\n      pop\n        /* \"#utility.yul\":6324:6743   */\n      swap2\n      swap1\n      pop\n      jump\t// out\n        /* \"#utility.yul\":6749:6908   */\n    tag_133:\n        /* \"#utility.yul\":6889:6900   */\n      0x64656372656d656e740000000000000000000000000000000000000000000000\n        /* \"#utility.yul\":6885:6886   */\n      0x00\n        /* \"#utility.yul\":6877:6883   */\n      dup3\n        /* \"#utility.yul\":6873:6887   */\n      add\n        /* \"#utility.yul\":6866:6901   */\n      mstore\n        /* \"#utility.yul\":6749:6908   */\n      pop\n      jump\t// out\n        /* \"#utility.yul\":6914:7279   */\n    tag_134:\n        /* \"#utility.yul\":7056:7059   */\n      0x00\n        /* \"#utility.yul\":7077:7143   */\n      tag_207\n        /* \"#utility.yul\":7141:7142   */\n      0x09\n        /* \"#utility.yul\":7136:7139   */\n      dup4\n        /* \"#utility.yul\":7077:7143   */\n      tag_124\n      jump\t// in\n    tag_207:\n        /* \"#utility.yul\":7070:7143   */\n      swap2\n      pop\n        /* \"#utility.yul\":7152:7245   */\n      tag_208\n        /* \"#utility.yul\":7241:7244   */\n      dup3\n        /* \"#utility.yul\":7152:7245   */\n      tag_133\n      jump\t// in\n    tag_208:\n        /* \"#utility.yul\":7270:7272   */\n      0x20\n        /* \"#utility.yul\":7265:7268   */\n      dup3\n        /* \"#utility.yul\":7261:7273   */\n      add\n        /* \"#utility.yul\":7254:7273   */\n      swap1\n      pop\n        /* \"#utility.yul\":6914:7279   */\n      swap2\n      swap1\n      pop\n      jump\t// out\n        /* \"#utility.yul\":7285:7814   */\n    tag_82:\n        /* \"#utility.yul\":7479:7483   */\n      0x00\n        /* \"#utility.yul\":7517:7519   */\n      0x40\n        /* \"#utility.yul\":7506:7515   */\n      dup3\n        /* \"#utility.yul\":7502:7520   */\n      add\n        /* \"#utility.yul\":7494:7520   */\n      swap1\n      pop\n        /* \"#utility.yul\":7530:7601   */\n      tag_210\n        /* \"#utility.yul\":7598:7599   */\n      0x00\n        /* \"#utility.yul\":7587:7596   */\n      dup4\n        /* \"#utility.yul\":7583:7600   */\n      add\n        /* \"#utility.yul\":7574:7580   */\n      dup5\n        /* \"#utility.yul\":7530:7601   */\n      tag_115\n      jump\t// in\n    tag_210:\n        /* \"#utility.yul\":7648:7657   */\n      dup2\n        /* \"#utility.yul\":7642:7646   */\n      dup2\n        /* \"#utility.yul\":7638:7658   */\n      sub\n        /* \"#utility.yul\":7633:7635   */\n      0x20\n        /* \"#utility.yul\":7622:7631   */\n      dup4\n        /* \"#utility.yul\":7618:7636   */\n      add\n        /* \"#utility.yul\":7611:7659   */\n      mstore\n        /* \"#utility.yul\":7676:7807   */\n      tag_211\n        /* \"#utility.yul\":7802:7806   */\n      dup2\n        /* \"#utility.yul\":7676:7807   */\n      tag_134\n      jump\t// in\n    tag_211:\n        /* \"#utility.yul\":7668:7807   */\n      swap1\n      pop\n        /* \"#utility.yul\":7285:7814   */\n      swap3\n      swap2\n      pop\n      pop\n      jump\t// out\n        /* \"#utility.yul\":7820:8000   */\n    tag_135:\n        /* \"#utility.yul\":7868:7945   */\n      0x4e487b7100000000000000000000000000000000000000000000000000000000\n        /* \"#utility.yul\":7865:7866   */\n      0x00\n        /* \"#utility.yul\":7858:7946   */\n      mstore\n        /* \"#utility.yul\":7965:7969   */\n      0x12\n        /* \"#utility.yul\":7962:7963   */\n      0x04\n        /* \"#utility.yul\":7955:7970   */\n      mstore\n        /* \"#utility.yul\":7989:7993   */\n      0x24\n        /* \"#utility.yul\":7986:7987   */\n      0x00\n        /* \"#utility.yul\":7979:7994   */\n      revert\n        /* \"#utility.yul\":8006:8182   */\n    tag_85:\n        /* \"#utility.yul\":8038:8039   */\n      0x00\n        /* \"#utility.yul\":8055:8075   */\n      tag_214\n        /* \"#utility.yul\":8073:8074   */\n      dup3\n        /* \"#utility.yul\":8055:8075   */\n      tag_114\n      jump\t// in\n    tag_214:\n        /* \"#utility.yul\":8050:8075   */\n      swap2\n      pop\n        /* \"#utility.yul\":8089:8109   */\n      tag_215\n        /* \"#utility.yul\":8107:8108   */\n      dup4\n        /* \"#utility.yul\":8089:8109   */\n      tag_114\n      jump\t// in\n    tag_215:\n        /* \"#utility.yul\":8084:8109   */\n      swap3\n      pop\n        /* \"#utility.yul\":8128:8129   */\n      dup3\n        /* \"#utility.yul\":8118:8153   */\n      tag_216\n      jumpi\n        /* \"#utility.yul\":8133:8151   */\n      tag_217\n      tag_135\n      jump\t// in\n    tag_217:\n        /* \"#utility.yul\":8118:8153   */\n    tag_216:\n        /* \"#utility.yul\":8174:8175   */\n      dup3\n        /* \"#utility.yul\":8171:8172   */\n      dup3\n        /* \"#utility.yul\":8167:8176   */\n      mod\n        /* \"#utility.yul\":8162:8176   */\n      swap1\n      pop\n        /* \"#utility.yul\":8006:8182   */\n      swap3\n      swap2\n      pop\n      pop\n      jump\t// out\n        /* \"#utility.yul\":8188:8347   */\n    tag_136:\n        /* \"#utility.yul\":8328:8339   */\n      0x696e6372656d656e740000000000000000000000000000000000000000000000\n        /* \"#utility.yul\":8324:8325   */\n      0x00\n        /* \"#utility.yul\":8316:8322   */\n      dup3\n        /* \"#utility.yul\":8312:8326   */\n      add\n        /* \"#utility.yul\":8305:8340   */\n      mstore\n        /* \"#utility.yul\":8188:8347   */\n      pop\n      jump\t// out\n        /* \"#utility.yul\":8353:8718   */\n    tag_137:\n        /* \"#utility.yul\":8495:8498   */\n      0x00\n        /* \"#utility.yul\":8516:8582   */\n      tag_220\n        /* \"#utility.yul\":8580:8581   */\n      0x09\n        /* \"#utility.yul\":8575:8578   */\n      dup4\n        /* \"#utility.yul\":8516:8582   */\n      tag_124\n      jump\t// in\n    tag_220:\n        /* \"#utility.yul\":8509:8582   */\n      swap2\n      pop\n        /* \"#utility.yul\":8591:8684   */\n      tag_221\n        /* \"#utility.yul\":8680:8683   */\n      dup3\n        /* \"#utility.yul\":8591:8684   */\n      tag_136\n      jump\t// in\n    tag_221:\n        /* \"#utility.yul\":8709:8711   */\n      0x20\n        /* \"#utility.yul\":8704:8707   */\n      dup3\n        /* \"#utility.yul\":8700:8712   */\n      add\n        /* \"#utility.yul\":8693:8712   */\n      swap1\n      pop\n        /* \"#utility.yul\":8353:8718   */\n      swap2\n      swap1\n      pop\n      jump\t// out\n        /* \"#utility.yul\":8724:9253   */\n    tag_91:\n        /* \"#utility.yul\":8918:8922   */\n      0x00\n        /* \"#utility.yul\":8956:8958   */\n      0x40\n        /* \"#utility.yul\":8945:8954   */\n      dup3\n        /* \"#utility.yul\":8941:8959   */\n      add\n        /* \"#utility.yul\":8933:8959   */\n      swap1\n      pop\n        /* \"#utility.yul\":8969:9040   */\n      tag_223\n        /* \"#utility.yul\":9037:9038   */\n      0x00\n        /* \"#utility.yul\":9026:9035   */\n      dup4\n        /* \"#utility.yul\":9022:9039   */\n      add\n        /* \"#utility.yul\":9013:9019   */\n      dup5\n        /* \"#utility.yul\":8969:9040   */\n      tag_115\n      jump\t// in\n    tag_223:\n        /* \"#utility.yul\":9087:9096   */\n      dup2\n        /* \"#utility.yul\":9081:9085   */\n      dup2\n        /* \"#utility.yul\":9077:9097   */\n      sub\n        /* \"#utility.yul\":9072:9074   */\n      0x20\n        /* \"#utility.yul\":9061:9070   */\n      dup4\n        /* \"#utility.yul\":9057:9075   */\n      add\n        /* \"#utility.yul\":9050:9098   */\n      mstore\n        /* \"#utility.yul\":9115:9246   */\n      tag_224\n        /* \"#utility.yul\":9241:9245   */\n      dup2\n        /* \"#utility.yul\":9115:9246   */\n      tag_137\n      jump\t// in\n    tag_224:\n        /* \"#utility.yul\":9107:9246   */\n      swap1\n      pop\n        /* \"#utility.yul\":8724:9253   */\n      swap3\n      swap2\n      pop\n      pop\n      jump\t// out\n        /* \"#utility.yul\":9259:9437   */\n    tag_138:\n        /* \"#utility.yul\":9399:9429   */\n      0x456c2064697669736f72206e6f20707565646520736572206365726f00000000\n        /* \"#utility.yul\":9395:9396   */\n      0x00\n        /* \"#utility.yul\":9387:9393   */\n      dup3\n        /* \"#utility.yul\":9383:9397   */\n      add\n        /* \"#utility.yul\":9376:9430   */\n      mstore\n        /* \"#utility.yul\":9259:9437   */\n      pop\n      jump\t// out\n        /* \"#utility.yul\":9443:9809   */\n    tag_139:\n        /* \"#utility.yul\":9585:9588   */\n      0x00\n        /* \"#utility.yul\":9606:9673   */\n      tag_227\n        /* \"#utility.yul\":9670:9672   */\n      0x1c\n        /* \"#utility.yul\":9665:9668   */\n      dup4\n        /* \"#utility.yul\":9606:9673   */\n      tag_124\n      jump\t// in\n    tag_227:\n        /* \"#utility.yul\":9599:9673   */\n      swap2\n      pop\n        /* \"#utility.yul\":9682:9775   */\n      tag_228\n        /* \"#utility.yul\":9771:9774   */\n      dup3\n        /* \"#utility.yul\":9682:9775   */\n      tag_138\n      jump\t// in\n    tag_228:\n        /* \"#utility.yul\":9800:9802   */\n      0x20\n        /* \"#utility.yul\":9795:9798   */\n      dup3\n        /* \"#utility.yul\":9791:9803   */\n      add\n        /* \"#utility.yul\":9784:9803   */\n      swap1\n      pop\n        /* \"#utility.yul\":9443:9809   */\n      swap2\n      swap1\n      pop\n      jump\t// out\n        /* \"#utility.yul\":9815:10234   */\n    tag_95:\n        /* \"#utility.yul\":9981:9985   */\n      0x00\n        /* \"#utility.yul\":10019:10021   */\n      0x20\n        /* \"#utility.yul\":10008:10017   */\n      dup3\n        /* \"#utility.yul\":10004:10022   */\n      add\n        /* \"#utility.yul\":9996:10022   */\n      swap1\n      pop\n        /* \"#utility.yul\":10068:10077   */\n      dup2\n        /* \"#utility.yul\":10062:10066   */\n      dup2\n        /* \"#utility.yul\":10058:10078   */\n      sub\n        /* \"#utility.yul\":10054:10055   */\n      0x00\n        /* \"#utility.yul\":10043:10052   */\n      dup4\n        /* \"#utility.yul\":10039:10056   */\n      add\n        /* \"#utility.yul\":10032:10079   */\n      mstore\n        /* \"#utility.yul\":10096:10227   */\n      tag_230\n        /* \"#utility.yul\":10222:10226   */\n      dup2\n        /* \"#utility.yul\":10096:10227   */\n      tag_139\n      jump\t// in\n    tag_230:\n        /* \"#utility.yul\":10088:10227   */\n      swap1\n      pop\n        /* \"#utility.yul\":9815:10234   */\n      swap2\n      swap1\n      pop\n      jump\t// out\n        /* \"#utility.yul\":10240:10650   */\n    tag_99:\n        /* \"#utility.yul\":10280:10287   */\n      0x00\n        /* \"#utility.yul\":10303:10323   */\n      tag_232\n        /* \"#utility.yul\":10321:10322   */\n      dup3\n        /* \"#utility.yul\":10303:10323   */\n      tag_114\n      jump\t// in\n    tag_232:\n        /* \"#utility.yul\":10298:10323   */\n      swap2\n      pop\n        /* \"#utility.yul\":10337:10357   */\n      tag_233\n        /* \"#utility.yul\":10355:10356   */\n      dup4\n        /* \"#utility.yul\":10337:10357   */\n      tag_114\n      jump\t// in\n    tag_233:\n        /* \"#utility.yul\":10332:10357   */\n      swap3\n      pop\n        /* \"#utility.yul\":10392:10393   */\n      dup3\n        /* \"#utility.yul\":10389:10390   */\n      dup3\n        /* \"#utility.yul\":10385:10394   */\n      mul\n        /* \"#utility.yul\":10414:10444   */\n      tag_234\n        /* \"#utility.yul\":10432:10443   */\n      dup2\n        /* \"#utility.yul\":10414:10444   */\n      tag_114\n      jump\t// in\n    tag_234:\n        /* \"#utility.yul\":10403:10444   */\n      swap2\n      pop\n        /* \"#utility.yul\":10593:10594   */\n      dup3\n        /* \"#utility.yul\":10584:10591   */\n      dup3\n        /* \"#utility.yul\":10580:10595   */\n      div\n        /* \"#utility.yul\":10577:10578   */\n      dup5\n        /* \"#utility.yul\":10574:10596   */\n      eq\n        /* \"#utility.yul\":10554:10555   */\n      dup4\n        /* \"#utility.yul\":10547:10556   */\n      iszero\n        /* \"#utility.yul\":10527:10610   */\n      or\n        /* \"#utility.yul\":10504:10643   */\n      tag_235\n      jumpi\n        /* \"#utility.yul\":10623:10641   */\n      tag_236\n      tag_123\n      jump\t// in\n    tag_236:\n        /* \"#utility.yul\":10504:10643   */\n    tag_235:\n        /* \"#utility.yul\":10288:10650   */\n      pop\n        /* \"#utility.yul\":10240:10650   */\n      swap3\n      swap2\n      pop\n      pop\n      jump\t// out\n        /* \"#utility.yul\":10656:10814   */\n    tag_140:\n        /* \"#utility.yul\":10796:10806   */\n      0x6d756c7469706c79000000000000000000000000000000000000000000000000\n        /* \"#utility.yul\":10792:10793   */\n      0x00\n        /* \"#utility.yul\":10784:10790   */\n      dup3\n        /* \"#utility.yul\":10780:10794   */\n      add\n        /* \"#utility.yul\":10773:10807   */\n      mstore\n        /* \"#utility.yul\":10656:10814   */\n      pop\n      jump\t// out\n        /* \"#utility.yul\":10820:11185   */\n    tag_141:\n        /* \"#utility.yul\":10962:10965   */\n      0x00\n        /* \"#utility.yul\":10983:11049   */\n      tag_239\n        /* \"#utility.yul\":11047:11048   */\n      0x08\n        /* \"#utility.yul\":11042:11045   */\n      dup4\n        /* \"#utility.yul\":10983:11049   */\n      tag_124\n      jump\t// in\n    tag_239:\n        /* \"#utility.yul\":10976:11049   */\n      swap2\n      pop\n        /* \"#utility.yul\":11058:11151   */\n      tag_240\n        /* \"#utility.yul\":11147:11150   */\n      dup3\n        /* \"#utility.yul\":11058:11151   */\n      tag_140\n      jump\t// in\n    tag_240:\n        /* \"#utility.yul\":11176:11178   */\n      0x20\n        /* \"#utility.yul\":11171:11174   */\n      dup3\n        /* \"#utility.yul\":11167:11179   */\n      add\n        /* \"#utility.yul\":11160:11179   */\n      swap1\n      pop\n        /* \"#utility.yul\":10820:11185   */\n      swap2\n      swap1\n      pop\n      jump\t// out\n        /* \"#utility.yul\":11191:11720   */\n    tag_104:\n        /* \"#utility.yul\":11385:11389   */\n      0x00\n        /* \"#utility.yul\":11423:11425   */\n      0x40\n        /* \"#utility.yul\":11412:11421   */\n      dup3\n        /* \"#utility.yul\":11408:11426   */\n      add\n        /* \"#utility.yul\":11400:11426   */\n      swap1\n      pop\n        /* \"#utility.yul\":11436:11507   */\n      tag_242\n        /* \"#utility.yul\":11504:11505   */\n      0x00\n        /* \"#utility.yul\":11493:11502   */\n      dup4\n        /* \"#utility.yul\":11489:11506   */\n      add\n        /* \"#utility.yul\":11480:11486   */\n      dup5\n        /* \"#utility.yul\":11436:11507   */\n      tag_115\n      jump\t// in\n    tag_242:\n        /* \"#utility.yul\":11554:11563   */\n      dup2\n        /* \"#utility.yul\":11548:11552   */\n      dup2\n        /* \"#utility.yul\":11544:11564   */\n      sub\n        /* \"#utility.yul\":11539:11541   */\n      0x20\n        /* \"#utility.yul\":11528:11537   */\n      dup4\n        /* \"#utility.yul\":11524:11542   */\n      add\n        /* \"#utility.yul\":11517:11565   */\n      mstore\n        /* \"#utility.yul\":11582:11713   */\n      tag_243\n        /* \"#utility.yul\":11708:11712   */\n      dup2\n        /* \"#utility.yul\":11582:11713   */\n      tag_141\n      jump\t// in\n    tag_243:\n        /* \"#utility.yul\":11574:11713   */\n      swap1\n      pop\n        /* \"#utility.yul\":11191:11720   */\n      swap3\n      swap2\n      pop\n      pop\n      jump\t// out\n        /* \"#utility.yul\":11726:11881   */\n    tag_142:\n        /* \"#utility.yul\":11866:11873   */\n      0x7265736574000000000000000000000000000000000000000000000000000000\n        /* \"#utility.yul\":11862:11863   */\n      0x00\n        /* \"#utility.yul\":11854:11860   */\n      dup3\n        /* \"#utility.yul\":11850:11864   */\n      add\n        /* \"#utility.yul\":11843:11874   */\n      mstore\n        /* \"#utility.yul\":11726:11881   */\n      pop\n      jump\t// out\n        /* \"#utility.yul\":11887:12252   */\n    tag_143:\n        /* \"#utility.yul\":12029:12032   */\n      0x00\n        /* \"#utility.yul\":12050:12116   */\n      tag_246\n        /* \"#utility.yul\":12114:12115   */\n      0x05\n        /* \"#utility.yul\":12109:12112   */\n      dup4\n        /* \"#utility.yul\":12050:12116   */\n      tag_124\n      jump\t// in\n    tag_246:\n        /* \"#utility.yul\":12043:12116   */\n      swap2\n      pop\n        /* \"#utility.yul\":12125:12218   */\n      tag_247\n        /* \"#utility.yul\":12214:12217   */\n      dup3\n        /* \"#utility.yul\":12125:12218   */\n      tag_142\n      jump\t// in\n    tag_247:\n        /* \"#utility.yul\":12243:12245   */\n      0x20\n        /* \"#utility.yul\":12238:12241   */\n      dup3\n        /* \"#utility.yul\":12234:12246   */\n      add\n        /* \"#utility.yul\":12227:12246   */\n      swap1\n      pop\n        /* \"#utility.yul\":11887:12252   */\n      swap2\n      swap1\n      pop\n      jump\t// out\n        /* \"#utility.yul\":12258:12787   */\n    tag_110:\n        /* \"#utility.yul\":12452:12456   */\n      0x00\n        /* \"#utility.yul\":12490:12492   */\n      0x40\n        /* \"#utility.yul\":12479:12488   */\n      dup3\n        /* \"#utility.yul\":12475:12493   */\n      add\n        /* \"#utility.yul\":12467:12493   */\n      swap1\n      pop\n        /* \"#utility.yul\":12503:12574   */\n      tag_249\n        /* \"#utility.yul\":12571:12572   */\n      0x00\n        /* \"#utility.yul\":12560:12569   */\n      dup4\n        /* \"#utility.yul\":12556:12573   */\n      add\n        /* \"#utility.yul\":12547:12553   */\n      dup5\n        /* \"#utility.yul\":12503:12574   */\n      tag_115\n      jump\t// in\n    tag_249:\n        /* \"#utility.yul\":12621:12630   */\n      dup2\n        /* \"#utility.yul\":12615:12619   */\n      dup2\n        /* \"#utility.yul\":12611:12631   */\n      sub\n        /* \"#utility.yul\":12606:12608   */\n      0x20\n        /* \"#utility.yul\":12595:12604   */\n      dup4\n        /* \"#utility.yul\":12591:12609   */\n      add\n        /* \"#utility.yul\":12584:12632   */\n      mstore\n        /* \"#utility.yul\":12649:12780   */\n      tag_250\n        /* \"#utility.yul\":12775:12779   */\n      dup2\n        /* \"#utility.yul\":12649:12780   */\n      tag_143\n      jump\t// in\n    tag_250:\n        /* \"#utility.yul\":12641:12780   */\n      swap1\n      pop\n        /* \"#utility.yul\":12258:12787   */\n      swap3\n      swap2\n      pop\n      pop\n      jump\t// out\n        /* \"#utility.yul\":12793:12978   */\n    tag_113:\n        /* \"#utility.yul\":12833:12834   */\n      0x00\n        /* \"#utility.yul\":12850:12870   */\n      tag_252\n        /* \"#utility.yul\":12868:12869   */\n      dup3\n        /* \"#utility.yul\":12850:12870   */\n      tag_114\n      jump\t// in\n    tag_252:\n        /* \"#utility.yul\":12845:12870   */\n      swap2\n      pop\n        /* \"#utility.yul\":12884:12904   */\n      tag_253\n        /* \"#utility.yul\":12902:12903   */\n      dup4\n        /* \"#utility.yul\":12884:12904   */\n      tag_114\n      jump\t// in\n    tag_253:\n        /* \"#utility.yul\":12879:12904   */\n      swap3\n      pop\n        /* \"#utility.yul\":12923:12924   */\n      dup3\n        /* \"#utility.yul\":12913:12948   */\n      tag_254\n      jumpi\n        /* \"#utility.yul\":12928:12946   */\n      tag_255\n      tag_135\n      jump\t// in\n    tag_255:\n        /* \"#utility.yul\":12913:12948   */\n    tag_254:\n        /* \"#utility.yul\":12970:12971   */\n      dup3\n        /* \"#utility.yul\":12967:12968   */\n      dup3\n        /* \"#utility.yul\":12963:12972   */\n      div\n        /* \"#utility.yul\":12958:12972   */\n      swap1\n      pop\n        /* \"#utility.yul\":12793:12978   */\n      swap3\n      swap2\n      pop\n      pop\n      jump\t// out\n\n    auxdata: 0xa2646970667358221220d64b66ab3be99a0cbbb0dfacdc32410e435aa064a528cae991d60889a9fab48464736f6c634300081f0033\n}\n",
				"bytecode": {
					"linkReferences": {},
					"object": "60806040525f5f553480156011575f5ffd5b50610c6e8061001f5f395ff3fe608060405234801561000f575f5ffd5b50600436106100e8575f3560e01c8063886c6f511161008a578063c6888fa111610064578063c6888fa114610210578063d09de08a1461022c578063d826f88f14610236578063f6a6462c14610240576100e8565b8063886c6f51146101a45780638fdb7189146101d4578063a87d942c146101f2576100e8565b80632baeceb7116100c65780632baeceb71461014257806336b166ba1461014c57806343bd0d701461016a5780637cf5dab014610188576100e8565b806306661abd146100ec5780631003e2d21461010a5780631dc05f1714610126575b5f5ffd5b6100f461025e565b60405161010191906105da565b60405180910390f35b610124600480360381019061011f9190610621565b610263565b005b610140600480360381019061013b9190610621565b6102b5565b005b61014a61034b565b005b6101546103e0565b6040516101619190610666565b60405180910390f35b6101726103f6565b60405161017f9190610666565b60405180910390f35b6101a2600480360381019061019d9190610621565b610405565b005b6101be60048036038101906101b99190610621565b610457565b6040516101cb91906105da565b60405180910390f35b6101dc6104ae565b6040516101e991906105da565b60405180910390f35b6101fa6104c2565b60405161020791906105da565b60405180910390f35b61022a60048036038101906102259190610621565b6104ca565b005b61023461051c565b005b61023e61056e565b005b6102486105ae565b60405161025591906105da565b60405180910390f35b5f5481565b805f5f82825461027391906106ac565b925050819055507f902cdecf278c2651239a65e4506b50f6ee0ed8d23056e0fa9e21c7ad99dfe8c45f546040516102aa9190610739565b60405180910390a150565b805f5410156102f9576040517f08c379a00000000000000000000000000000000000000000000000000000000081526004016102f0906107d5565b60405180910390fd5b805f5f82825461030991906107f3565b925050819055507f902cdecf278c2651239a65e4506b50f6ee0ed8d23056e0fa9e21c7ad99dfe8c45f546040516103409190610870565b60405180910390a150565b5f5f541161038e576040517f08c379a00000000000000000000000000000000000000000000000000000000081526004016103859061090c565b60405180910390fd5b60015f5f82825461039f91906107f3565b925050819055507f902cdecf278c2651239a65e4506b50f6ee0ed8d23056e0fa9e21c7ad99dfe8c45f546040516103d69190610974565b60405180910390a1565b5f5f60025f546103f091906109cd565b14905090565b5f6103ff6103e0565b15905090565b805f5f82825461041591906106ac565b925050819055507f902cdecf278c2651239a65e4506b50f6ee0ed8d23056e0fa9e21c7ad99dfe8c45f5460405161044c9190610a47565b60405180910390a150565b5f5f820361049a576040517f08c379a000000000000000000000000000000000000000000000000000000000815260040161049190610abd565b60405180910390fd5b815f546104a791906109cd565b9050919050565b5f60025f546104bd9190610adb565b905090565b5f5f54905090565b805f5f8282546104da9190610adb565b925050819055507f902cdecf278c2651239a65e4506b50f6ee0ed8d23056e0fa9e21c7ad99dfe8c45f546040516105119190610b66565b60405180910390a150565b60015f5f82825461052d91906106ac565b925050819055507f902cdecf278c2651239a65e4506b50f6ee0ed8d23056e0fa9e21c7ad99dfe8c45f546040516105649190610a47565b60405180910390a1565b5f5f819055507f902cdecf278c2651239a65e4506b50f6ee0ed8d23056e0fa9e21c7ad99dfe8c45f546040516105a49190610bdc565b60405180910390a1565b5f60025f546105bd9190610c08565b905090565b5f819050919050565b6105d4816105c2565b82525050565b5f6020820190506105ed5f8301846105cb565b92915050565b5f5ffd5b610600816105c2565b811461060a575f5ffd5b50565b5f8135905061061b816105f7565b92915050565b5f60208284031215610636576106356105f3565b5b5f6106438482850161060d565b91505092915050565b5f8115159050919050565b6106608161064c565b82525050565b5f6020820190506106795f830184610657565b92915050565b7f4e487b71000000000000000000000000000000000000000000000000000000005f52601160045260245ffd5b5f6106b6826105c2565b91506106c1836105c2565b92508282019050808211156106d9576106d861067f565b5b92915050565b5f82825260208201905092915050565b7f61646400000000000000000000000000000000000000000000000000000000005f82015250565b5f6107236003836106df565b915061072e826106ef565b602082019050919050565b5f60408201905061074c5f8301846105cb565b818103602083015261075d81610717565b905092915050565b7f4e6f2068617920737566696369656e74657320756e69646164657320706172615f8201527f2072657374617200000000000000000000000000000000000000000000000000602082015250565b5f6107bf6027836106df565b91506107ca82610765565b604082019050919050565b5f6020820190508181035f8301526107ec816107b3565b9050919050565b5f6107fd826105c2565b9150610808836105c2565b92508282039050818111156108205761081f61067f565b5b92915050565b7f73756274726163740000000000000000000000000000000000000000000000005f82015250565b5f61085a6008836106df565b915061086582610826565b602082019050919050565b5f6040820190506108835f8301846105cb565b81810360208301526108948161084e565b905092915050565b7f456c20636f6e7461646f72206e6f20707565646520736572206e6567617469765f8201527f6f00000000000000000000000000000000000000000000000000000000000000602082015250565b5f6108f66021836106df565b91506109018261089c565b604082019050919050565b5f6020820190508181035f830152610923816108ea565b9050919050565b7f64656372656d656e7400000000000000000000000000000000000000000000005f82015250565b5f61095e6009836106df565b91506109698261092a565b602082019050919050565b5f6040820190506109875f8301846105cb565b818103602083015261099881610952565b905092915050565b7f4e487b71000000000000000000000000000000000000000000000000000000005f52601260045260245ffd5b5f6109d7826105c2565b91506109e2836105c2565b9250826109f2576109f16109a0565b5b828206905092915050565b7f696e6372656d656e7400000000000000000000000000000000000000000000005f82015250565b5f610a316009836106df565b9150610a3c826109fd565b602082019050919050565b5f604082019050610a5a5f8301846105cb565b8181036020830152610a6b81610a25565b905092915050565b7f456c2064697669736f72206e6f20707565646520736572206365726f000000005f82015250565b5f610aa7601c836106df565b9150610ab282610a73565b602082019050919050565b5f6020820190508181035f830152610ad481610a9b565b9050919050565b5f610ae5826105c2565b9150610af0836105c2565b9250828202610afe816105c2565b91508282048414831517610b1557610b1461067f565b5b5092915050565b7f6d756c7469706c790000000000000000000000000000000000000000000000005f82015250565b5f610b506008836106df565b9150610b5b82610b1c565b602082019050919050565b5f604082019050610b795f8301846105cb565b8181036020830152610b8a81610b44565b905092915050565b7f72657365740000000000000000000000000000000000000000000000000000005f82015250565b5f610bc66005836106df565b9150610bd182610b92565b602082019050919050565b5f604082019050610bef5f8301846105cb565b8181036020830152610c0081610bba565b905092915050565b5f610c12826105c2565b9150610c1d836105c2565b925082610c2d57610c2c6109a0565b5b82820490509291505056fea2646970667358221220d64b66ab3be99a0cbbb0dfacdc32410e435aa064a528cae991d60889a9fab48464736f6c634300081f0033",
					"opcodes": "PUSH1 0x80 PUSH1 0x40 MSTORE PUSH0 PUSH0 SSTORE CALLVALUE DUP1 ISZERO PUSH1 0x11 JUMPI PUSH0 PUSH0 REVERT JUMPDEST POP PUSH2 0xC6E DUP1 PUSH2 0x1F PUSH0 CODECOPY PUSH0 RETURN INVALID PUSH1 0x80 PUSH1 0x40 MSTORE CALLVALUE DUP1 ISZERO PUSH2 0xF JUMPI PUSH0 PUSH0 REVERT JUMPDEST POP PUSH1 0x4 CALLDATASIZE LT PUSH2 0xE8 JUMPI PUSH0 CALLDATALOAD PUSH1 0xE0 SHR DUP1 PUSH4 0x886C6F51 GT PUSH2 0x8A JUMPI DUP1 PUSH4 0xC6888FA1 GT PUSH2 0x64 JUMPI DUP1 PUSH4 0xC6888FA1 EQ PUSH2 0x210 JUMPI DUP1 PUSH4 0xD09DE08A EQ PUSH2 0x22C JUMPI DUP1 PUSH4 0xD826F88F EQ PUSH2 0x236 JUMPI DUP1 PUSH4 0xF6A6462C EQ PUSH2 0x240 JUMPI PUSH2 0xE8 JUMP JUMPDEST DUP1 PUSH4 0x886C6F51 EQ PUSH2 0x1A4 JUMPI DUP1 PUSH4 0x8FDB7189 EQ PUSH2 0x1D4 JUMPI DUP1 PUSH4 0xA87D942C EQ PUSH2 0x1F2 JUMPI PUSH2 0xE8 JUMP JUMPDEST DUP1 PUSH4 0x2BAECEB7 GT PUSH2 0xC6 JUMPI DUP1 PUSH4 0x2BAECEB7 EQ PUSH2 0x142 JUMPI DUP1 PUSH4 0x36B166BA EQ PUSH2 0x14C JUMPI DUP1 PUSH4 0x43BD0D70 EQ PUSH2 0x16A JUMPI DUP1 PUSH4 0x7CF5DAB0 EQ PUSH2 0x188 JUMPI PUSH2 0xE8 JUMP JUMPDEST DUP1 PUSH4 0x6661ABD EQ PUSH2 0xEC JUMPI DUP1 PUSH4 0x1003E2D2 EQ PUSH2 0x10A JUMPI DUP1 PUSH4 0x1DC05F17 EQ PUSH2 0x126 JUMPI JUMPDEST PUSH0 PUSH0 REVERT JUMPDEST PUSH2 0xF4 PUSH2 0x25E JUMP JUMPDEST PUSH1 0x40 MLOAD PUSH2 0x101 SWAP2 SWAP1 PUSH2 0x5DA JUMP JUMPDEST PUSH1 0x40 MLOAD DUP1 SWAP2 SUB SWAP1 RETURN JUMPDEST PUSH2 0x124 PUSH1 0x4 DUP1 CALLDATASIZE SUB DUP2 ADD SWAP1 PUSH2 0x11F SWAP2 SWAP1 PUSH2 0x621 JUMP JUMPDEST PUSH2 0x263 JUMP JUMPDEST STOP JUMPDEST PUSH2 0x140 PUSH1 0x4 DUP1 CALLDATASIZE SUB DUP2 ADD SWAP1 PUSH2 0x13B SWAP2 SWAP1 PUSH2 0x621 JUMP JUMPDEST PUSH2 0x2B5 JUMP JUMPDEST STOP JUMPDEST PUSH2 0x14A PUSH2 0x34B JUMP JUMPDEST STOP JUMPDEST PUSH2 0x154 PUSH2 0x3E0 JUMP JUMPDEST PUSH1 0x40 MLOAD PUSH2 0x161 SWAP2 SWAP1 PUSH2 0x666 JUMP JUMPDEST PUSH1 0x40 MLOAD DUP1 SWAP2 SUB SWAP1 RETURN JUMPDEST PUSH2 0x172 PUSH2 0x3F6 JUMP JUMPDEST PUSH1 0x40 MLOAD PUSH2 0x17F SWAP2 SWAP1 PUSH2 0x666 JUMP JUMPDEST PUSH1 0x40 MLOAD DUP1 SWAP2 SUB SWAP1 RETURN JUMPDEST PUSH2 0x1A2 PUSH1 0x4 DUP1 CALLDATASIZE SUB DUP2 ADD SWAP1 PUSH2 0x19D SWAP2 SWAP1 PUSH2 0x621 JUMP JUMPDEST PUSH2 0x405 JUMP JUMPDEST STOP JUMPDEST PUSH2 0x1BE PUSH1 0x4 DUP1 CALLDATASIZE SUB DUP2 ADD SWAP1 PUSH2 0x1B9 SWAP2 SWAP1 PUSH2 0x621 JUMP JUMPDEST PUSH2 0x457 JUMP JUMPDEST PUSH1 0x40 MLOAD PUSH2 0x1CB SWAP2 SWAP1 PUSH2 0x5DA JUMP JUMPDEST PUSH1 0x40 MLOAD DUP1 SWAP2 SUB SWAP1 RETURN JUMPDEST PUSH2 0x1DC PUSH2 0x4AE JUMP JUMPDEST PUSH1 0x40 MLOAD PUSH2 0x1E9 SWAP2 SWAP1 PUSH2 0x5DA JUMP JUMPDEST PUSH1 0x40 MLOAD DUP1 SWAP2 SUB SWAP1 RETURN JUMPDEST PUSH2 0x1FA PUSH2 0x4C2 JUMP JUMPDEST PUSH1 0x40 MLOAD PUSH2 0x207 SWAP2 SWAP1 PUSH2 0x5DA JUMP JUMPDEST PUSH1 0x40 MLOAD DUP1 SWAP2 SUB SWAP1 RETURN JUMPDEST PUSH2 0x22A PUSH1 0x4 DUP1 CALLDATASIZE SUB DUP2 ADD SWAP1 PUSH2 0x225 SWAP2 SWAP1 PUSH2 0x621 JUMP JUMPDEST PUSH2 0x4CA JUMP JUMPDEST STOP JUMPDEST PUSH2 0x234 PUSH2 0x51C JUMP JUMPDEST STOP JUMPDEST PUSH2 0x23E PUSH2 0x56E JUMP JUMPDEST STOP JUMPDEST PUSH2 0x248 PUSH2 0x5AE JUMP JUMPDEST PUSH1 0x40 MLOAD PUSH2 0x255 SWAP2 SWAP1 PUSH2 0x5DA JUMP JUMPDEST PUSH1 0x40 MLOAD DUP1 SWAP2 SUB SWAP1 RETURN JUMPDEST PUSH0 SLOAD DUP2 JUMP JUMPDEST DUP1 PUSH0 PUSH0 DUP3 DUP3 SLOAD PUSH2 0x273 SWAP2 SWAP1 PUSH2 0x6AC JUMP JUMPDEST SWAP3 POP POP DUP2 SWAP1 SSTORE POP PUSH32 0x902CDECF278C2651239A65E4506B50F6EE0ED8D23056E0FA9E21C7AD99DFE8C4 PUSH0 SLOAD PUSH1 0x40 MLOAD PUSH2 0x2AA SWAP2 SWAP1 PUSH2 0x739 JUMP JUMPDEST PUSH1 0x40 MLOAD DUP1 SWAP2 SUB SWAP1 LOG1 POP JUMP JUMPDEST DUP1 PUSH0 SLOAD LT ISZERO PUSH2 0x2F9 JUMPI PUSH1 0x40 MLOAD PUSH32 0x8C379A000000000000000000000000000000000000000000000000000000000 DUP2 MSTORE PUSH1 0x4 ADD PUSH2 0x2F0 SWAP1 PUSH2 0x7D5 JUMP JUMPDEST PUSH1 0x40 MLOAD DUP1 SWAP2 SUB SWAP1 REVERT JUMPDEST DUP1 PUSH0 PUSH0 DUP3 DUP3 SLOAD PUSH2 0x309 SWAP2 SWAP1 PUSH2 0x7F3 JUMP JUMPDEST SWAP3 POP POP DUP2 SWAP1 SSTORE POP PUSH32 0x902CDECF278C2651239A65E4506B50F6EE0ED8D23056E0FA9E21C7AD99DFE8C4 PUSH0 SLOAD PUSH1 0x40 MLOAD PUSH2 0x340 SWAP2 SWAP1 PUSH2 0x870 JUMP JUMPDEST PUSH1 0x40 MLOAD DUP1 SWAP2 SUB SWAP1 LOG1 POP JUMP JUMPDEST PUSH0 PUSH0 SLOAD GT PUSH2 0x38E JUMPI PUSH1 0x40 MLOAD PUSH32 0x8C379A000000000000000000000000000000000000000000000000000000000 DUP2 MSTORE PUSH1 0x4 ADD PUSH2 0x385 SWAP1 PUSH2 0x90C JUMP JUMPDEST PUSH1 0x40 MLOAD DUP1 SWAP2 SUB SWAP1 REVERT JUMPDEST PUSH1 0x1 PUSH0 PUSH0 DUP3 DUP3 SLOAD PUSH2 0x39F SWAP2 SWAP1 PUSH2 0x7F3 JUMP JUMPDEST SWAP3 POP POP DUP2 SWAP1 SSTORE POP PUSH32 0x902CDECF278C2651239A65E4506B50F6EE0ED8D23056E0FA9E21C7AD99DFE8C4 PUSH0 SLOAD PUSH1 0x40 MLOAD PUSH2 0x3D6 SWAP2 SWAP1 PUSH2 0x974 JUMP JUMPDEST PUSH1 0x40 MLOAD DUP1 SWAP2 SUB SWAP1 LOG1 JUMP JUMPDEST PUSH0 PUSH0 PUSH1 0x2 PUSH0 SLOAD PUSH2 0x3F0 SWAP2 SWAP1 PUSH2 0x9CD JUMP JUMPDEST EQ SWAP1 POP SWAP1 JUMP JUMPDEST PUSH0 PUSH2 0x3FF PUSH2 0x3E0 JUMP JUMPDEST ISZERO SWAP1 POP SWAP1 JUMP JUMPDEST DUP1 PUSH0 PUSH0 DUP3 DUP3 SLOAD PUSH2 0x415 SWAP2 SWAP1 PUSH2 0x6AC JUMP JUMPDEST SWAP3 POP POP DUP2 SWAP1 SSTORE POP PUSH32 0x902CDECF278C2651239A65E4506B50F6EE0ED8D23056E0FA9E21C7AD99DFE8C4 PUSH0 SLOAD PUSH1 0x40 MLOAD PUSH2 0x44C SWAP2 SWAP1 PUSH2 0xA47 JUMP JUMPDEST PUSH1 0x40 MLOAD DUP1 SWAP2 SUB SWAP1 LOG1 POP JUMP JUMPDEST PUSH0 PUSH0 DUP3 SUB PUSH2 0x49A JUMPI PUSH1 0x40 MLOAD PUSH32 0x8C379A000000000000000000000000000000000000000000000000000000000 DUP2 MSTORE PUSH1 0x4 ADD PUSH2 0x491 SWAP1 PUSH2 0xABD JUMP JUMPDEST PUSH1 0x40 MLOAD DUP1 SWAP2 SUB SWAP1 REVERT JUMPDEST DUP2 PUSH0 SLOAD PUSH2 0x4A7 SWAP2 SWAP1 PUSH2 0x9CD JUMP JUMPDEST SWAP1 POP SWAP2 SWAP1 POP JUMP JUMPDEST PUSH0 PUSH1 0x2 PUSH0 SLOAD PUSH2 0x4BD SWAP2 SWAP1 PUSH2 0xADB JUMP JUMPDEST SWAP1 POP SWAP1 JUMP JUMPDEST PUSH0 PUSH0 SLOAD SWAP1 POP SWAP1 JUMP JUMPDEST DUP1 PUSH0 PUSH0 DUP3 DUP3 SLOAD PUSH2 0x4DA SWAP2 SWAP1 PUSH2 0xADB JUMP JUMPDEST SWAP3 POP POP DUP2 SWAP1 SSTORE POP PUSH32 0x902CDECF278C2651239A65E4506B50F6EE0ED8D23056E0FA9E21C7AD99DFE8C4 PUSH0 SLOAD PUSH1 0x40 MLOAD PUSH2 0x511 SWAP2 SWAP1 PUSH2 0xB66 JUMP JUMPDEST PUSH1 0x40 MLOAD DUP1 SWAP2 SUB SWAP1 LOG1 POP JUMP JUMPDEST PUSH1 0x1 PUSH0 PUSH0 DUP3 DUP3 SLOAD PUSH2 0x52D SWAP2 SWAP1 PUSH2 0x6AC JUMP JUMPDEST SWAP3 POP POP DUP2 SWAP1 SSTORE POP PUSH32 0x902CDECF278C2651239A65E4506B50F6EE0ED8D23056E0FA9E21C7AD99DFE8C4 PUSH0 SLOAD PUSH1 0x40 MLOAD PUSH2 0x564 SWAP2 SWAP1 PUSH2 0xA47 JUMP JUMPDEST PUSH1 0x40 MLOAD DUP1 SWAP2 SUB SWAP1 LOG1 JUMP JUMPDEST PUSH0 PUSH0 DUP2 SWAP1 SSTORE POP PUSH32 0x902CDECF278C2651239A65E4506B50F6EE0ED8D23056E0FA9E21C7AD99DFE8C4 PUSH0 SLOAD PUSH1 0x40 MLOAD PUSH2 0x5A4 SWAP2 SWAP1 PUSH2 0xBDC JUMP JUMPDEST PUSH1 0x40 MLOAD DUP1 SWAP2 SUB SWAP1 LOG1 JUMP JUMPDEST PUSH0 PUSH1 0x2 PUSH0 SLOAD PUSH2 0x5BD SWAP2 SWAP1 PUSH2 0xC08 JUMP JUMPDEST SWAP1 POP SWAP1 JUMP JUMPDEST PUSH0 DUP2 SWAP1 POP SWAP2 SWAP1 POP JUMP JUMPDEST PUSH2 0x5D4 DUP2 PUSH2 0x5C2 JUMP JUMPDEST DUP3 MSTORE POP POP JUMP JUMPDEST PUSH0 PUSH1 0x20 DUP3 ADD SWAP1 POP PUSH2 0x5ED PUSH0 DUP4 ADD DUP5 PUSH2 0x5CB JUMP JUMPDEST SWAP3 SWAP2 POP POP JUMP JUMPDEST PUSH0 PUSH0 REVERT JUMPDEST PUSH2 0x600 DUP2 PUSH2 0x5C2 JUMP JUMPDEST DUP2 EQ PUSH2 0x60A JUMPI PUSH0 PUSH0 REVERT JUMPDEST POP JUMP JUMPDEST PUSH0 DUP2 CALLDATALOAD SWAP1 POP PUSH2 0x61B DUP2 PUSH2 0x5F7 JUMP JUMPDEST SWAP3 SWAP2 POP POP JUMP JUMPDEST PUSH0 PUSH1 0x20 DUP3 DUP5 SUB SLT ISZERO PUSH2 0x636 JUMPI PUSH2 0x635 PUSH2 0x5F3 JUMP JUMPDEST JUMPDEST PUSH0 PUSH2 0x643 DUP5 DUP3 DUP6 ADD PUSH2 0x60D JUMP JUMPDEST SWAP2 POP POP SWAP3 SWAP2 POP POP JUMP JUMPDEST PUSH0 DUP2 ISZERO ISZERO SWAP1 POP SWAP2 SWAP1 POP JUMP JUMPDEST PUSH2 0x660 DUP2 PUSH2 0x64C JUMP JUMPDEST DUP3 MSTORE POP POP JUMP JUMPDEST PUSH0 PUSH1 0x20 DUP3 ADD SWAP1 POP PUSH2 0x679 PUSH0 DUP4 ADD DUP5 PUSH2 0x657 JUMP JUMPDEST SWAP3 SWAP2 POP POP JUMP JUMPDEST PUSH32 0x4E487B7100000000000000000000000000000000000000000000000000000000 PUSH0 MSTORE PUSH1 0x11 PUSH1 0x4 MSTORE PUSH1 0x24 PUSH0 REVERT JUMPDEST PUSH0 PUSH2 0x6B6 DUP3 PUSH2 0x5C2 JUMP JUMPDEST SWAP2 POP PUSH2 0x6C1 DUP4 PUSH2 0x5C2 JUMP JUMPDEST SWAP3 POP DUP3 DUP3 ADD SWAP1 POP DUP1 DUP3 GT ISZERO PUSH2 0x6D9 JUMPI PUSH2 0x6D8 PUSH2 0x67F JUMP JUMPDEST JUMPDEST SWAP3 SWAP2 POP POP JUMP JUMPDEST PUSH0 DUP3 DUP3 MSTORE PUSH1 0x20 DUP3 ADD SWAP1 POP SWAP3 SWAP2 POP POP JUMP JUMPDEST PUSH32 0x6164640000000000000000000000000000000000000000000000000000000000 PUSH0 DUP3 ADD MSTORE POP JUMP JUMPDEST PUSH0 PUSH2 0x723 PUSH1 0x3 DUP4 PUSH2 0x6DF JUMP JUMPDEST SWAP2 POP PUSH2 0x72E DUP3 PUSH2 0x6EF JUMP JUMPDEST PUSH1 0x20 DUP3 ADD SWAP1 POP SWAP2 SWAP1 POP JUMP JUMPDEST PUSH0 PUSH1 0x40 DUP3 ADD SWAP1 POP PUSH2 0x74C PUSH0 DUP4 ADD DUP5 PUSH2 0x5CB JUMP JUMPDEST DUP2 DUP2 SUB PUSH1 0x20 DUP4 ADD MSTORE PUSH2 0x75D DUP2 PUSH2 0x717 JUMP JUMPDEST SWAP1 POP SWAP3 SWAP2 POP POP JUMP JUMPDEST PUSH32 0x4E6F2068617920737566696369656E74657320756E6964616465732070617261 PUSH0 DUP3 ADD MSTORE PUSH32 0x2072657374617200000000000000000000000000000000000000000000000000 PUSH1 0x20 DUP3 ADD MSTORE POP JUMP JUMPDEST PUSH0 PUSH2 0x7BF PUSH1 0x27 DUP4 PUSH2 0x6DF JUMP JUMPDEST SWAP2 POP PUSH2 0x7CA DUP3 PUSH2 0x765 JUMP JUMPDEST PUSH1 0x40 DUP3 ADD SWAP1 POP SWAP2 SWAP1 POP JUMP JUMPDEST PUSH0 PUSH1 0x20 DUP3 ADD SWAP1 POP DUP2 DUP2 SUB PUSH0 DUP4 ADD MSTORE PUSH2 0x7EC DUP2 PUSH2 0x7B3 JUMP JUMPDEST SWAP1 POP SWAP2 SWAP1 POP JUMP JUMPDEST PUSH0 PUSH2 0x7FD DUP3 PUSH2 0x5C2 JUMP JUMPDEST SWAP2 POP PUSH2 0x808 DUP4 PUSH2 0x5C2 JUMP JUMPDEST SWAP3 POP DUP3 DUP3 SUB SWAP1 POP DUP2 DUP2 GT ISZERO PUSH2 0x820 JUMPI PUSH2 0x81F PUSH2 0x67F JUMP JUMPDEST JUMPDEST SWAP3 SWAP2 POP POP JUMP JUMPDEST PUSH32 0x7375627472616374000000000000000000000000000000000000000000000000 PUSH0 DUP3 ADD MSTORE POP JUMP JUMPDEST PUSH0 PUSH2 0x85A PUSH1 0x8 DUP4 PUSH2 0x6DF JUMP JUMPDEST SWAP2 POP PUSH2 0x865 DUP3 PUSH2 0x826 JUMP JUMPDEST PUSH1 0x20 DUP3 ADD SWAP1 POP SWAP2 SWAP1 POP JUMP JUMPDEST PUSH0 PUSH1 0x40 DUP3 ADD SWAP1 POP PUSH2 0x883 PUSH0 DUP4 ADD DUP5 PUSH2 0x5CB JUMP JUMPDEST DUP2 DUP2 SUB PUSH1 0x20 DUP4 ADD MSTORE PUSH2 0x894 DUP2 PUSH2 0x84E JUMP JUMPDEST SWAP1 POP SWAP3 SWAP2 POP POP JUMP JUMPDEST PUSH32 0x456C20636F6E7461646F72206E6F20707565646520736572206E656761746976 PUSH0 DUP3 ADD MSTORE PUSH32 0x6F00000000000000000000000000000000000000000000000000000000000000 PUSH1 0x20 DUP3 ADD MSTORE POP JUMP JUMPDEST PUSH0 PUSH2 0x8F6 PUSH1 0x21 DUP4 PUSH2 0x6DF JUMP JUMPDEST SWAP2 POP PUSH2 0x901 DUP3 PUSH2 0x89C JUMP JUMPDEST PUSH1 0x40 DUP3 ADD SWAP1 POP SWAP2 SWAP1 POP JUMP JUMPDEST PUSH0 PUSH1 0x20 DUP3 ADD SWAP1 POP DUP2 DUP2 SUB PUSH0 DUP4 ADD MSTORE PUSH2 0x923 DUP2 PUSH2 0x8EA JUMP JUMPDEST SWAP1 POP SWAP2 SWAP1 POP JUMP JUMPDEST PUSH32 0x64656372656D656E740000000000000000000000000000000000000000000000 PUSH0 DUP3 ADD MSTORE POP JUMP JUMPDEST PUSH0 PUSH2 0x95E PUSH1 0x9 DUP4 PUSH2 0x6DF JUMP JUMPDEST SWAP2 POP PUSH2 0x969 DUP3 PUSH2 0x92A JUMP JUMPDEST PUSH1 0x20 DUP3 ADD SWAP1 POP SWAP2 SWAP1 POP JUMP JUMPDEST PUSH0 PUSH1 0x40 DUP3 ADD SWAP1 POP PUSH2 0x987 PUSH0 DUP4 ADD DUP5 PUSH2 0x5CB JUMP JUMPDEST DUP2 DUP2 SUB PUSH1 0x20 DUP4 ADD MSTORE PUSH2 0x998 DUP2 PUSH2 0x952 JUMP JUMPDEST SWAP1 POP SWAP3 SWAP2 POP POP JUMP JUMPDEST PUSH32 0x4E487B7100000000000000000000000000000000000000000000000000000000 PUSH0 MSTORE PUSH1 0x12 PUSH1 0x4 MSTORE PUSH1 0x24 PUSH0 REVERT JUMPDEST PUSH0 PUSH2 0x9D7 DUP3 PUSH2 0x5C2 JUMP JUMPDEST SWAP2 POP PUSH2 0x9E2 DUP4 PUSH2 0x5C2 JUMP JUMPDEST SWAP3 POP DUP3 PUSH2 0x9F2 JUMPI PUSH2 0x9F1 PUSH2 0x9A0 JUMP JUMPDEST JUMPDEST DUP3 DUP3 MOD SWAP1 POP SWAP3 SWAP2 POP POP JUMP JUMPDEST PUSH32 0x696E6372656D656E740000000000000000000000000000000000000000000000 PUSH0 DUP3 ADD MSTORE POP JUMP JUMPDEST PUSH0 PUSH2 0xA31 PUSH1 0x9 DUP4 PUSH2 0x6DF JUMP JUMPDEST SWAP2 POP PUSH2 0xA3C DUP3 PUSH2 0x9FD JUMP JUMPDEST PUSH1 0x20 DUP3 ADD SWAP1 POP SWAP2 SWAP1 POP JUMP JUMPDEST PUSH0 PUSH1 0x40 DUP3 ADD SWAP1 POP PUSH2 0xA5A PUSH0 DUP4 ADD DUP5 PUSH2 0x5CB JUMP JUMPDEST DUP2 DUP2 SUB PUSH1 0x20 DUP4 ADD MSTORE PUSH2 0xA6B DUP2 PUSH2 0xA25 JUMP JUMPDEST SWAP1 POP SWAP3 SWAP2 POP POP JUMP JUMPDEST PUSH32 0x456C2064697669736F72206E6F20707565646520736572206365726F00000000 PUSH0 DUP3 ADD MSTORE POP JUMP JUMPDEST PUSH0 PUSH2 0xAA7 PUSH1 0x1C DUP4 PUSH2 0x6DF JUMP JUMPDEST SWAP2 POP PUSH2 0xAB2 DUP3 PUSH2 0xA73 JUMP JUMPDEST PUSH1 0x20 DUP3 ADD SWAP1 POP SWAP2 SWAP1 POP JUMP JUMPDEST PUSH0 PUSH1 0x20 DUP3 ADD SWAP1 POP DUP2 DUP2 SUB PUSH0 DUP4 ADD MSTORE PUSH2 0xAD4 DUP2 PUSH2 0xA9B JUMP JUMPDEST SWAP1 POP SWAP2 SWAP1 POP JUMP JUMPDEST PUSH0 PUSH2 0xAE5 DUP3 PUSH2 0x5C2 JUMP JUMPDEST SWAP2 POP PUSH2 0xAF0 DUP4 PUSH2 0x5C2 JUMP JUMPDEST SWAP3 POP DUP3 DUP3 MUL PUSH2 0xAFE DUP2 PUSH2 0x5C2 JUMP JUMPDEST SWAP2 POP DUP3 DUP3 DIV DUP5 EQ DUP4 ISZERO OR PUSH2 0xB15 JUMPI PUSH2 0xB14 PUSH2 0x67F JUMP JUMPDEST JUMPDEST POP SWAP3 SWAP2 POP POP JUMP JUMPDEST PUSH32 0x6D756C7469706C79000000000000000000000000000000000000000000000000 PUSH0 DUP3 ADD MSTORE POP JUMP JUMPDEST PUSH0 PUSH2 0xB50 PUSH1 0x8 DUP4 PUSH2 0x6DF JUMP JUMPDEST SWAP2 POP PUSH2 0xB5B DUP3 PUSH2 0xB1C JUMP JUMPDEST PUSH1 0x20 DUP3 ADD SWAP1 POP SWAP2 SWAP1 POP JUMP JUMPDEST PUSH0 PUSH1 0x40 DUP3 ADD SWAP1 POP PUSH2 0xB79 PUSH0 DUP4 ADD DUP5 PUSH2 0x5CB JUMP JUMPDEST DUP2 DUP2 SUB PUSH1 0x20 DUP4 ADD MSTORE PUSH2 0xB8A DUP2 PUSH2 0xB44 JUMP JUMPDEST SWAP1 POP SWAP3 SWAP2 POP POP JUMP JUMPDEST PUSH32 0x7265736574000000000000000000000000000000000000000000000000000000 PUSH0 DUP3 ADD MSTORE POP JUMP JUMPDEST PUSH0 PUSH2 0xBC6 PUSH1 0x5 DUP4 PUSH2 0x6DF JUMP JUMPDEST SWAP2 POP PUSH2 0xBD1 DUP3 PUSH2 0xB92 JUMP JUMPDEST PUSH1 0x20 DUP3 ADD SWAP1 POP SWAP2 SWAP1 POP JUMP JUMPDEST PUSH0 PUSH1 0x40 DUP3 ADD SWAP1 POP PUSH2 0xBEF PUSH0 DUP4 ADD DUP5 PUSH2 0x5CB JUMP JUMPDEST DUP2 DUP2 SUB PUSH1 0x20 DUP4 ADD MSTORE PUSH2 0xC00 DUP2 PUSH2 0xBBA JUMP JUMPDEST SWAP1 POP SWAP3 SWAP2 POP POP JUMP JUMPDEST PUSH0 PUSH2 0xC12 DUP3 PUSH2 0x5C2 JUMP JUMPDEST SWAP2 POP PUSH2 0xC1D DUP4 PUSH2 0x5C2 JUMP JUMPDEST SWAP3 POP DUP3 PUSH2 0xC2D JUMPI PUSH2 0xC2C PUSH2 0x9A0 JUMP JUMPDEST JUMPDEST DUP3 DUP3 DIV SWAP1 POP SWAP3 SWAP2 POP POP JUMP INVALID LOG2 PUSH5 0x6970667358 0x22 SLT KECCAK256 0xD6 0x4B PUSH7 0xAB3BE99A0CBBB0 0xDF 0xAC 0xDC ORIGIN COINBASE 0xE NUMBER GAS LOG0 PUSH5 0xA528CAE991 0xD6 ADDMOD DUP10 0xA9 STATICCALL 0xB4 DUP5 PUSH5 0x736F6C6343 STOP ADDMOD 0x1F STOP CALLER "
				},
				"gasEstimates": {
					"creation": {
						"codeDepositCost": "636400",
						"executionCost": "5672",
						"totalCost": "642072"
					},
					"external": {
						"add(uint256)": "infinite",
						"count()": "2448",
						"decrement()": "infinite",
						"double()": "infinite",
						"getCount()": "2498",
						"half()": "infinite",
						"increment()": "infinite",
						"increment(uint256)": "infinite",
						"isEven()": "infinite",
						"isOdd()": "infinite",
						"modulo(uint256)": "infinite",
						"multiply(uint256)": "infinite",
						"reset()": "9475",
						"subtract(uint256)": "infinite"
					}
				},
				"methodIdentifiers": {
					"add(uint256)": "1003e2d2",
					"count()": "06661abd",
					"decrement()": "2baeceb7",
					"double()": "8fdb7189",
					"getCount()": "a87d942c",
					"half()": "f6a6462c",
					"increment()": "d09de08a",
					"increment(uint256)": "7cf5dab0",
					"isEven()": "36b166ba",
					"isOdd()": "43bd0d70",
					"modulo(uint256)": "886c6f51",
					"multiply(uint256)": "c6888fa1",
					"reset()": "d826f88f",
					"subtract(uint256)": "1dc05f17"
				}
			},
			"storageLayout": {
				"storage": [
					{
						"astId": 4,
						"contract": "Counter.sol:Counter",
						"label": "count",
						"offset": 0,
						"slot": "0",
						"type": "t_uint256"
					}
				],
				"types": {
					"t_uint256": {
						"encoding": "inplace",
						"label": "uint256",
						"numberOfBytes": "32"
					}
				}
			},
			"userdoc": {
				"kind": "user",
				"methods": {},
				"version": 1
			}
		}
	}
}