{
	"SimpleWallet.sol": {
		"SimpleWallet": {
			"abi": [
				{
					"anonymous": false,
					"inputs": [
						{
							"indexed": true,
							"internalType": "address",
							"name": "user",
							"type": "address"
						},
						{
							"indexed": false,
							"internalType": "uint256",
							"name": "amount",
							"type": "uint256"
						}
					],
					"name": "Deposit",
					"type": "event"
				},
				{
					"anonymous": false,
					"inputs": [
						{
							"indexed": true,
							"internalType": "address",
							"name": "from",
							"type": "address"
						},
						{
							"indexed": true,
							"internalType": "address",
							"name": "to",
							"type": "address"
						},
						{
							"indexed": false,
							"internalType": "uint256",
							"name": "amount",
							"type": "uint256"
						}
					],
					"name": "Transfer",
					"type": "event"
				},
				{
					"anonymous": false,
					"inputs": [
						{
							"indexed": true,
							"internalType": "address",
							"name": "user",
							"type": "address"
						},
						{
							"indexed": false,
							"internalType": "uint256",
							"name": "amount",
							"type": "uint256"
						}
					],
					"name": "Withdrawal",
					"type": "event"
				},
				{
					"inputs": [
						{
							"internalType": "address",
							"name": "",
							"type": "address"
						}
					],
					"name": "balances",
					"outputs": [
						{
							"internalType": "uint256",
							"name": "",
							"type": "uint256"
						}
					],
					"stateMutability": "view",
					"type": "function"
				},
				{
					"inputs": [],
					"name": "deposit",
					"outputs": [],
					"stateMutability": "payable",
					"type": "function"
				},
				{
					"inputs": [
						{
							"internalType": "address",
							"name": "user",
							"type": "address"
						}
					],
					"name": "getBalance",
					"outputs": [
						{
							"internalType": "uint256",
							"name": "",
							"type": "uint256"
						}
					],
					"stateMutability": "view",
					"type": "function"
				},
				{
					"inputs": [],
					"name": "getContractBalance",
					"outputs": [
						{
							"internalType": "uint256",
							"name": "",
							"type": "uint256"
						}
					],
					"stateMutability": "view",
					"type": "function"
				},
				{
					"inputs": [],
					"name": "getMyBalance",
					"outputs": [
						{
							"internalType": "uint256",
							"name": "",
							"type": "uint256"
						}
					],
					"stateMutability": "view",
					"type": "function"
				},
				{
					"inputs": [],
					"name": "getTotalBalance",
					"outputs": [
						{
							"internalType": "uint256",
							"name": "",
							"type": "uint256"
						}
					],
					"stateMutability": "view",
					"type": "function"
				},
				{
					"inputs": [],
					"name": "totalBalance",
					"outputs": [
						{
							"internalType": "uint256",
							"name": "",
							"type": "uint256"
						}
					],
					"stateMutability": "view",
					"type": "function"
				},
				{
					"inputs": [
						{
							"internalType": "address",
							"name": "recipient",
							"type": "address"
						},
						{
							"internalType": "uint256",
							"name": "amount",
							"type": "uint256"
						}
					],
					"name": "transfer",
					"outputs": [],
					"stateMutability": "nonpayable",
					"type": "function"
				},
				{
					"inputs": [
						{
							"internalType": "uint256",
							"name": "amount",
							"type": "uint256"
						}
					],
					"name": "withdraw",
					"outputs": [],
					"stateMutability": "nonpayable",
					"type": "function"
				}
			],
			"devdoc": {
				"kind": "dev",
				"methods": {},
				"version": 1
			},
			"evm": {
				"assembly": "    /* \"SimpleWallet.sol\":58:2230  contract SimpleWallet {... */\n  mstore(0x40, 0x80)\n    /* \"SimpleWallet.sol\":263:264  0 */\n  0x00\n    /* \"SimpleWallet.sol\":233:264  uint256 public totalBalance = 0 */\n  0x01\n  sstore\n    /* \"SimpleWallet.sol\":58:2230  contract SimpleWallet {... */\n  callvalue\n  dup1\n  iszero\n  tag_1\n  jumpi\n  revert(0x00, 0x00)\ntag_1:\n  pop\n  dataSize(sub_0)\n  dup1\n  dataOffset(sub_0)\n  0x00\n  codecopy\n  0x00\n  return\nstop\n\nsub_0: assembly {\n        /* \"SimpleWallet.sol\":58:2230  contract SimpleWallet {... */\n      mstore(0x40, 0x80)\n      jumpi(tag_1, lt(calldatasize, 0x04))\n      shr(0xe0, calldataload(0x00))\n      dup1\n      0x6f9fb98a\n      gt\n      tag_11\n      jumpi\n      dup1\n      0x6f9fb98a\n      eq\n      tag_6\n      jumpi\n      dup1\n      0xa9059cbb\n      eq\n      tag_7\n      jumpi\n      dup1\n      0xad7a672f\n      eq\n      tag_8\n      jumpi\n      dup1\n      0xd0e30db0\n      eq\n      tag_9\n      jumpi\n      dup1\n      0xf8b2cb4f\n      eq\n      tag_10\n      jumpi\n      jump(tag_1)\n    tag_11:\n      dup1\n      0x12b58349\n      eq\n      tag_2\n      jumpi\n      dup1\n      0x27e235e3\n      eq\n      tag_3\n      jumpi\n      dup1\n      0x2e1a7d4d\n      eq\n      tag_4\n      jumpi\n      dup1\n      0x4c738909\n      eq\n      tag_5\n      jumpi\n    tag_1:\n      revert(0x00, 0x00)\n        /* \"SimpleWallet.sol\":1941:2024  function getTotalBalance() public view returns (uint256) {... */\n    tag_2:\n      callvalue\n      dup1\n      iszero\n      tag_12\n      jumpi\n      revert(0x00, 0x00)\n    tag_12:\n      pop\n      tag_13\n      tag_14\n      jump\t// in\n    tag_13:\n      mload(0x40)\n      tag_15\n      swap2\n      swap1\n      tag_16\n      jump\t// in\n    tag_15:\n      mload(0x40)\n      dup1\n      swap2\n      sub\n      swap1\n      return\n        /* \"SimpleWallet.sol\":158:201  mapping(address => uint256) public balances */\n    tag_3:\n      callvalue\n      dup1\n      iszero\n      tag_17\n      jumpi\n      revert(0x00, 0x00)\n    tag_17:\n      pop\n      tag_18\n      0x04\n      dup1\n      calldatasize\n      sub\n      dup2\n      add\n      swap1\n      tag_19\n      swap2\n      swap1\n      tag_20\n      jump\t// in\n    tag_19:\n      tag_21\n      jump\t// in\n    tag_18:\n      mload(0x40)\n      tag_22\n      swap2\n      swap1\n      tag_16\n      jump\t// in\n    tag_22:\n      mload(0x40)\n      dup1\n      swap2\n      sub\n      swap1\n      return\n        /* \"SimpleWallet.sol\":1027:1458  function withdraw(uint256 amount) public {... */\n    tag_4:\n      callvalue\n      dup1\n      iszero\n      tag_23\n      jumpi\n      revert(0x00, 0x00)\n    tag_23:\n      pop\n      tag_24\n      0x04\n      dup1\n      calldatasize\n      sub\n      dup2\n      add\n      swap1\n      tag_25\n      swap2\n      swap1\n      tag_26\n      jump\t// in\n    tag_25:\n      tag_27\n      jump\t// in\n    tag_24:\n      stop\n        /* \"SimpleWallet.sol\":905:993  function getMyBalance() public view returns (uint256) {... */\n    tag_5:\n      callvalue\n      dup1\n      iszero\n      tag_28\n      jumpi\n      revert(0x00, 0x00)\n    tag_28:\n      pop\n      tag_29\n      tag_30\n      jump\t// in\n    tag_29:\n      mload(0x40)\n      tag_31\n      swap2\n      swap1\n      tag_16\n      jump\t// in\n    tag_31:\n      mload(0x40)\n      dup1\n      swap2\n      sub\n      swap1\n      return\n        /* \"SimpleWallet.sol\":2132:2227  function getContractBalance() public view returns (uint256) {... */\n    tag_6:\n      callvalue\n      dup1\n      iszero\n      tag_32\n      jumpi\n      revert(0x00, 0x00)\n    tag_32:\n      pop\n      tag_33\n      tag_34\n      jump\t// in\n    tag_33:\n      mload(0x40)\n      tag_35\n      swap2\n      swap1\n      tag_16\n      jump\t// in\n    tag_35:\n      mload(0x40)\n      dup1\n      swap2\n      sub\n      swap1\n      return\n        /* \"SimpleWallet.sol\":1504:1885  function transfer(address recipient, uint256 amount) public {... */\n    tag_7:\n      callvalue\n      dup1\n      iszero\n      tag_36\n      jumpi\n      revert(0x00, 0x00)\n    tag_36:\n      pop\n      tag_37\n      0x04\n      dup1\n      calldatasize\n      sub\n      dup2\n      add\n      swap1\n      tag_38\n      swap2\n      swap1\n      tag_39\n      jump\t// in\n    tag_38:\n      tag_40\n      jump\t// in\n    tag_37:\n      stop\n        /* \"SimpleWallet.sol\":233:264  uint256 public totalBalance = 0 */\n    tag_8:\n      callvalue\n      dup1\n      iszero\n      tag_41\n      jumpi\n      revert(0x00, 0x00)\n    tag_41:\n      pop\n      tag_42\n      tag_43\n      jump\t// in\n    tag_42:\n      mload(0x40)\n      tag_44\n      swap2\n      swap1\n      tag_16\n      jump\t// in\n    tag_44:\n      mload(0x40)\n      dup1\n      swap2\n      sub\n      swap1\n      return\n        /* \"SimpleWallet.sol\":499:706  function deposit() public payable {... */\n    tag_9:\n      tag_45\n      tag_46\n      jump\t// in\n    tag_45:\n      stop\n        /* \"SimpleWallet.sol\":757:849  function getBalance(address user) public view returns (uint256) {... */\n    tag_10:\n      callvalue\n      dup1\n      iszero\n      tag_47\n      jumpi\n      revert(0x00, 0x00)\n    tag_47:\n      pop\n      tag_48\n      0x04\n      dup1\n      calldatasize\n      sub\n      dup2\n      add\n      swap1\n      tag_49\n      swap2\n      swap1\n      tag_20\n      jump\t// in\n    tag_49:\n      tag_50\n      jump\t// in\n    tag_48:\n      mload(0x40)\n      tag_51\n      swap2\n      swap1\n      tag_16\n      jump\t// in\n    tag_51:\n      mload(0x40)\n      dup1\n      swap2\n      sub\n      swap1\n      return\n        /* \"SimpleWallet.sol\":1941:2024  function getTotalBalance() public view returns (uint256) {... */\n    tag_14:\n        /* \"SimpleWallet.sol\":1989:1996  uint256 */\n      0x00\n        /* \"SimpleWallet.sol\":2008:2020  totalBalance */\n      sload(0x01)\n        /* \"SimpleWallet.sol\":2001:2020  return totalBalance */\n      swap1\n      pop\n        /* \"SimpleWallet.sol\":1941:2024  function getTotalBalance() public view returns (uint256) {... */\n      swap1\n      jump\t// out\n        /* \"SimpleWallet.sol\":158:201  mapping(address => uint256) public balances */\n    tag_21:\n      mstore(0x20, 0x00)\n      dup1\n      0x00\n      mstore\n      keccak256(0x00, 0x40)\n      0x00\n      swap2\n      pop\n      swap1\n      pop\n      sload\n      dup2\n      jump\t// out\n        /* \"SimpleWallet.sol\":1027:1458  function withdraw(uint256 amount) public {... */\n    tag_27:\n        /* \"SimpleWallet.sol\":1088:1089  0 */\n      0x00\n        /* \"SimpleWallet.sol\":1079:1085  amount */\n      dup2\n        /* \"SimpleWallet.sol\":1079:1089  amount > 0 */\n      gt\n        /* \"SimpleWallet.sol\":1071:1121  require(amount > 0, \"El monto debe ser mayor a 0\") */\n      tag_54\n      jumpi\n      mload(0x40)\n      0x08c379a000000000000000000000000000000000000000000000000000000000\n      dup2\n      mstore\n      0x04\n      add\n      tag_55\n      swap1\n      tag_56\n      jump\t// in\n    tag_55:\n      mload(0x40)\n      dup1\n      swap2\n      sub\n      swap1\n      revert\n    tag_54:\n        /* \"SimpleWallet.sol\":1156:1162  amount */\n      dup1\n        /* \"SimpleWallet.sol\":1132:1140  balances */\n      0x00\n        /* \"SimpleWallet.sol\":1132:1152  balances[msg.sender] */\n      0x00\n        /* \"SimpleWallet.sol\":1141:1151  msg.sender */\n      caller\n        /* \"SimpleWallet.sol\":1132:1152  balances[msg.sender] */\n      0xffffffffffffffffffffffffffffffffffffffff\n      and\n      0xffffffffffffffffffffffffffffffffffffffff\n      and\n      dup2\n      mstore\n      0x20\n      add\n      swap1\n      dup2\n      mstore\n      0x20\n      add\n      0x00\n      keccak256\n      sload\n        /* \"SimpleWallet.sol\":1132:1162  balances[msg.sender] >= amount */\n      lt\n      iszero\n        /* \"SimpleWallet.sol\":1124:1185  require(balances[msg.sender] >= amount, \"Saldo insuficiente\") */\n      tag_57\n      jumpi\n      mload(0x40)\n      0x08c379a000000000000000000000000000000000000000000000000000000000\n      dup2\n      mstore\n      0x04\n      add\n      tag_58\n      swap1\n      tag_59\n      jump\t// in\n    tag_58:\n      mload(0x40)\n      dup1\n      swap2\n      sub\n      swap1\n      revert\n    tag_57:\n        /* \"SimpleWallet.sol\":1234:1240  amount */\n      dup1\n        /* \"SimpleWallet.sol\":1210:1218  balances */\n      0x00\n        /* \"SimpleWallet.sol\":1210:1230  balances[msg.sender] */\n      0x00\n        /* \"SimpleWallet.sol\":1219:1229  msg.sender */\n      caller\n        /* \"SimpleWallet.sol\":1210:1230  balances[msg.sender] */\n      0xffffffffffffffffffffffffffffffffffffffff\n      and\n      0xffffffffffffffffffffffffffffffffffffffff\n      and\n      dup2\n      mstore\n      0x20\n      add\n      swap1\n      dup2\n      mstore\n      0x20\n      add\n      0x00\n      keccak256\n      0x00\n        /* \"SimpleWallet.sol\":1210:1240  balances[msg.sender] -= amount */\n      dup3\n      dup3\n      sload\n      tag_60\n      swap2\n      swap1\n      tag_61\n      jump\t// in\n    tag_60:\n      swap3\n      pop\n      pop\n      dup2\n      swap1\n      sstore\n      pop\n        /* \"SimpleWallet.sol\":1259:1265  amount */\n      dup1\n        /* \"SimpleWallet.sol\":1243:1255  totalBalance */\n      0x01\n      0x00\n        /* \"SimpleWallet.sol\":1243:1265  totalBalance -= amount */\n      dup3\n      dup3\n      sload\n      tag_62\n      swap2\n      swap1\n      tag_61\n      jump\t// in\n    tag_62:\n      swap3\n      pop\n      pop\n      dup2\n      swap1\n      sstore\n      pop\n        /* \"SimpleWallet.sol\":1311:1323  bool success */\n      0x00\n        /* \"SimpleWallet.sol\":1329:1339  msg.sender */\n      caller\n        /* \"SimpleWallet.sol\":1329:1344  msg.sender.call */\n      0xffffffffffffffffffffffffffffffffffffffff\n      and\n        /* \"SimpleWallet.sol\":1352:1358  amount */\n      dup3\n        /* \"SimpleWallet.sol\":1329:1363  msg.sender.call{value: amount}(\"\") */\n      mload(0x40)\n      tag_63\n      swap1\n      tag_64\n      jump\t// in\n    tag_63:\n      0x00\n      mload(0x40)\n      dup1\n      dup4\n      sub\n      dup2\n      dup6\n      dup8\n      gas\n      call\n      swap3\n      pop\n      pop\n      pop\n      returndatasize\n      dup1\n      0x00\n      dup2\n      eq\n      tag_67\n      jumpi\n      mload(0x40)\n      swap2\n      pop\n      and(add(returndatasize, 0x3f), not(0x1f))\n      dup3\n      add\n      0x40\n      mstore\n      returndatasize\n      dup3\n      mstore\n      returndatasize\n      0x00\n      0x20\n      dup5\n      add\n      returndatacopy\n      jump(tag_66)\n    tag_67:\n      0x60\n      swap2\n      pop\n    tag_66:\n      pop\n        /* \"SimpleWallet.sol\":1310:1363  (bool success, ) = msg.sender.call{value: amount}(\"\") */\n      pop\n      swap1\n      pop\n        /* \"SimpleWallet.sol\":1374:1381  success */\n      dup1\n        /* \"SimpleWallet.sol\":1366:1416  require(success, unicode\"La transferencia falló\") */\n      tag_68\n      jumpi\n      mload(0x40)\n      0x08c379a000000000000000000000000000000000000000000000000000000000\n      dup2\n      mstore\n      0x04\n      add\n      tag_69\n      swap1\n      tag_70\n      jump\t// in\n    tag_69:\n      mload(0x40)\n      dup1\n      swap2\n      sub\n      swap1\n      revert\n    tag_68:\n        /* \"SimpleWallet.sol\":1435:1445  msg.sender */\n      caller\n        /* \"SimpleWallet.sol\":1424:1454  Withdrawal(msg.sender, amount) */\n      0xffffffffffffffffffffffffffffffffffffffff\n      and\n      0x7fcf532c15f0a6db0bd6d0e038bea71d30d808c7d98cb3bf7268a95bf5081b65\n        /* \"SimpleWallet.sol\":1447:1453  amount */\n      dup4\n        /* \"SimpleWallet.sol\":1424:1454  Withdrawal(msg.sender, amount) */\n      mload(0x40)\n      tag_71\n      swap2\n      swap1\n      tag_16\n      jump\t// in\n    tag_71:\n      mload(0x40)\n      dup1\n      swap2\n      sub\n      swap1\n      log2\n        /* \"SimpleWallet.sol\":1068:1458  {... */\n      pop\n        /* \"SimpleWallet.sol\":1027:1458  function withdraw(uint256 amount) public {... */\n      pop\n      jump\t// out\n        /* \"SimpleWallet.sol\":905:993  function getMyBalance() public view returns (uint256) {... */\n    tag_30:\n        /* \"SimpleWallet.sol\":950:957  uint256 */\n      0x00\n        /* \"SimpleWallet.sol\":969:977  balances */\n      0x00\n        /* \"SimpleWallet.sol\":969:989  balances[msg.sender] */\n      0x00\n        /* \"SimpleWallet.sol\":978:988  msg.sender */\n      caller\n        /* \"SimpleWallet.sol\":969:989  balances[msg.sender] */\n      0xffffffffffffffffffffffffffffffffffffffff\n      and\n      0xffffffffffffffffffffffffffffffffffffffff\n      and\n      dup2\n      mstore\n      0x20\n      add\n      swap1\n      dup2\n      mstore\n      0x20\n      add\n      0x00\n      keccak256\n      sload\n        /* \"SimpleWallet.sol\":962:989  return balances[msg.sender] */\n      swap1\n      pop\n        /* \"SimpleWallet.sol\":905:993  function getMyBalance() public view returns (uint256) {... */\n      swap1\n      jump\t// out\n        /* \"SimpleWallet.sol\":2132:2227  function getContractBalance() public view returns (uint256) {... */\n    tag_34:\n        /* \"SimpleWallet.sol\":2183:2190  uint256 */\n      0x00\n        /* \"SimpleWallet.sol\":2202:2223  address(this).balance */\n      selfbalance\n        /* \"SimpleWallet.sol\":2195:2223  return address(this).balance */\n      swap1\n      pop\n        /* \"SimpleWallet.sol\":2132:2227  function getContractBalance() public view returns (uint256) {... */\n      swap1\n      jump\t// out\n        /* \"SimpleWallet.sol\":1504:1885  function transfer(address recipient, uint256 amount) public {... */\n    tag_40:\n        /* \"SimpleWallet.sol\":1596:1597  0 */\n      0x00\n        /* \"SimpleWallet.sol\":1575:1598  recipient != address(0) */\n      0xffffffffffffffffffffffffffffffffffffffff\n      and\n        /* \"SimpleWallet.sol\":1575:1584  recipient */\n      dup3\n        /* \"SimpleWallet.sol\":1575:1598  recipient != address(0) */\n      0xffffffffffffffffffffffffffffffffffffffff\n      and\n      sub\n        /* \"SimpleWallet.sol\":1567:1630  require(recipient != address(0), unicode\"Dirección inválida\") */\n      tag_75\n      jumpi\n      mload(0x40)\n      0x08c379a000000000000000000000000000000000000000000000000000000000\n      dup2\n      mstore\n      0x04\n      add\n      tag_76\n      swap1\n      tag_77\n      jump\t// in\n    tag_76:\n      mload(0x40)\n      dup1\n      swap2\n      sub\n      swap1\n      revert\n    tag_75:\n        /* \"SimpleWallet.sol\":1650:1651  0 */\n      0x00\n        /* \"SimpleWallet.sol\":1641:1647  amount */\n      dup2\n        /* \"SimpleWallet.sol\":1641:1651  amount > 0 */\n      gt\n        /* \"SimpleWallet.sol\":1633:1683  require(amount > 0, \"El monto debe ser mayor a 0\") */\n      tag_78\n      jumpi\n      mload(0x40)\n      0x08c379a000000000000000000000000000000000000000000000000000000000\n      dup2\n      mstore\n      0x04\n      add\n      tag_79\n      swap1\n      tag_56\n      jump\t// in\n    tag_79:\n      mload(0x40)\n      dup1\n      swap2\n      sub\n      swap1\n      revert\n    tag_78:\n        /* \"SimpleWallet.sol\":1718:1724  amount */\n      dup1\n        /* \"SimpleWallet.sol\":1694:1702  balances */\n      0x00\n        /* \"SimpleWallet.sol\":1694:1714  balances[msg.sender] */\n      0x00\n        /* \"SimpleWallet.sol\":1703:1713  msg.sender */\n      caller\n        /* \"SimpleWallet.sol\":1694:1714  balances[msg.sender] */\n      0xffffffffffffffffffffffffffffffffffffffff\n      and\n      0xffffffffffffffffffffffffffffffffffffffff\n      and\n      dup2\n      mstore\n      0x20\n      add\n      swap1\n      dup2\n      mstore\n      0x20\n      add\n      0x00\n      keccak256\n      sload\n        /* \"SimpleWallet.sol\":1694:1724  balances[msg.sender] >= amount */\n      lt\n      iszero\n        /* \"SimpleWallet.sol\":1686:1747  require(balances[msg.sender] >= amount, \"Saldo insuficiente\") */\n      tag_80\n      jumpi\n      mload(0x40)\n      0x08c379a000000000000000000000000000000000000000000000000000000000\n      dup2\n      mstore\n      0x04\n      add\n      tag_81\n      swap1\n      tag_59\n      jump\t// in\n    tag_81:\n      mload(0x40)\n      dup1\n      swap2\n      sub\n      swap1\n      revert\n    tag_80:\n        /* \"SimpleWallet.sol\":1796:1802  amount */\n      dup1\n        /* \"SimpleWallet.sol\":1772:1780  balances */\n      0x00\n        /* \"SimpleWallet.sol\":1772:1792  balances[msg.sender] */\n      0x00\n        /* \"SimpleWallet.sol\":1781:1791  msg.sender */\n      caller\n        /* \"SimpleWallet.sol\":1772:1792  balances[msg.sender] */\n      0xffffffffffffffffffffffffffffffffffffffff\n      and\n      0xffffffffffffffffffffffffffffffffffffffff\n      and\n      dup2\n      mstore\n      0x20\n      add\n      swap1\n      dup2\n      mstore\n      0x20\n      add\n      0x00\n      keccak256\n      0x00\n        /* \"SimpleWallet.sol\":1772:1802  balances[msg.sender] -= amount */\n      dup3\n      dup3\n      sload\n      tag_82\n      swap2\n      swap1\n      tag_61\n      jump\t// in\n    tag_82:\n      swap3\n      pop\n      pop\n      dup2\n      swap1\n      sstore\n      pop\n        /* \"SimpleWallet.sol\":1828:1834  amount */\n      dup1\n        /* \"SimpleWallet.sol\":1805:1813  balances */\n      0x00\n        /* \"SimpleWallet.sol\":1805:1824  balances[recipient] */\n      0x00\n        /* \"SimpleWallet.sol\":1814:1823  recipient */\n      dup5\n        /* \"SimpleWallet.sol\":1805:1824  balances[recipient] */\n      0xffffffffffffffffffffffffffffffffffffffff\n      and\n      0xffffffffffffffffffffffffffffffffffffffff\n      and\n      dup2\n      mstore\n      0x20\n      add\n      swap1\n      dup2\n      mstore\n      0x20\n      add\n      0x00\n      keccak256\n      0x00\n        /* \"SimpleWallet.sol\":1805:1834  balances[recipient] += amount */\n      dup3\n      dup3\n      sload\n      tag_83\n      swap2\n      swap1\n      tag_84\n      jump\t// in\n    tag_83:\n      swap3\n      pop\n      pop\n      dup2\n      swap1\n      sstore\n      pop\n        /* \"SimpleWallet.sol\":1863:1872  recipient */\n      dup2\n        /* \"SimpleWallet.sol\":1842:1881  Transfer(msg.sender, recipient, amount) */\n      0xffffffffffffffffffffffffffffffffffffffff\n      and\n        /* \"SimpleWallet.sol\":1851:1861  msg.sender */\n      caller\n        /* \"SimpleWallet.sol\":1842:1881  Transfer(msg.sender, recipient, amount) */\n      0xffffffffffffffffffffffffffffffffffffffff\n      and\n      0xddf252ad1be2c89b69c2b068fc378daa952ba7f163c4a11628f55a4df523b3ef\n        /* \"SimpleWallet.sol\":1874:1880  amount */\n      dup4\n        /* \"SimpleWallet.sol\":1842:1881  Transfer(msg.sender, recipient, amount) */\n      mload(0x40)\n      tag_85\n      swap2\n      swap1\n      tag_16\n      jump\t// in\n    tag_85:\n      mload(0x40)\n      dup1\n      swap2\n      sub\n      swap1\n      log3\n        /* \"SimpleWallet.sol\":1504:1885  function transfer(address recipient, uint256 amount) public {... */\n      pop\n      pop\n      jump\t// out\n        /* \"SimpleWallet.sol\":233:264  uint256 public totalBalance = 0 */\n    tag_43:\n      sload(0x01)\n      dup2\n      jump\t// out\n        /* \"SimpleWallet.sol\":499:706  function deposit() public payable {... */\n    tag_46:\n        /* \"SimpleWallet.sol\":556:557  0 */\n      0x00\n        /* \"SimpleWallet.sol\":544:553  msg.value */\n      callvalue\n        /* \"SimpleWallet.sol\":544:557  msg.value > 0 */\n      gt\n        /* \"SimpleWallet.sol\":536:600  require(msg.value > 0, unicode\"El depósito debe ser mayor a 0\") */\n      tag_87\n      jumpi\n      mload(0x40)\n      0x08c379a000000000000000000000000000000000000000000000000000000000\n      dup2\n      mstore\n      0x04\n      add\n      tag_88\n      swap1\n      tag_89\n      jump\t// in\n    tag_88:\n      mload(0x40)\n      dup1\n      swap2\n      sub\n      swap1\n      revert\n    tag_87:\n        /* \"SimpleWallet.sol\":627:636  msg.value */\n      callvalue\n        /* \"SimpleWallet.sol\":603:611  balances */\n      0x00\n        /* \"SimpleWallet.sol\":603:623  balances[msg.sender] */\n      0x00\n        /* \"SimpleWallet.sol\":612:622  msg.sender */\n      caller\n        /* \"SimpleWallet.sol\":603:623  balances[msg.sender] */\n      0xffffffffffffffffffffffffffffffffffffffff\n      and\n      0xffffffffffffffffffffffffffffffffffffffff\n      and\n      dup2\n      mstore\n      0x20\n      add\n      swap1\n      dup2\n      mstore\n      0x20\n      add\n      0x00\n      keccak256\n      0x00\n        /* \"SimpleWallet.sol\":603:636  balances[msg.sender] += msg.value */\n      dup3\n      dup3\n      sload\n      tag_90\n      swap2\n      swap1\n      tag_84\n      jump\t// in\n    tag_90:\n      swap3\n      pop\n      pop\n      dup2\n      swap1\n      sstore\n      pop\n        /* \"SimpleWallet.sol\":655:664  msg.value */\n      callvalue\n        /* \"SimpleWallet.sol\":639:651  totalBalance */\n      0x01\n      0x00\n        /* \"SimpleWallet.sol\":639:664  totalBalance += msg.value */\n      dup3\n      dup3\n      sload\n      tag_91\n      swap2\n      swap1\n      tag_84\n      jump\t// in\n    tag_91:\n      swap3\n      pop\n      pop\n      dup2\n      swap1\n      sstore\n      pop\n        /* \"SimpleWallet.sol\":680:690  msg.sender */\n      caller\n        /* \"SimpleWallet.sol\":672:702  Deposit(msg.sender, msg.value) */\n      0xffffffffffffffffffffffffffffffffffffffff\n      and\n      0xe1fffcc4923d04b559f4d29a8bfc6cda04eb5b0d3c460751c2402c5c5cc9109c\n        /* \"SimpleWallet.sol\":692:701  msg.value */\n      callvalue\n        /* \"SimpleWallet.sol\":672:702  Deposit(msg.sender, msg.value) */\n      mload(0x40)\n      tag_92\n      swap2\n      swap1\n      tag_16\n      jump\t// in\n    tag_92:\n      mload(0x40)\n      dup1\n      swap2\n      sub\n      swap1\n      log2\n        /* \"SimpleWallet.sol\":499:706  function deposit() public payable {... */\n      jump\t// out\n        /* \"SimpleWallet.sol\":757:849  function getBalance(address user) public view returns (uint256) {... */\n    tag_50:\n        /* \"SimpleWallet.sol\":812:819  uint256 */\n      0x00\n        /* \"SimpleWallet.sol\":831:839  balances */\n      0x00\n        /* \"SimpleWallet.sol\":831:845  balances[user] */\n      0x00\n        /* \"SimpleWallet.sol\":840:844  user */\n      dup4\n        /* \"SimpleWallet.sol\":831:845  balances[user] */\n      0xffffffffffffffffffffffffffffffffffffffff\n      and\n      0xffffffffffffffffffffffffffffffffffffffff\n      and\n      dup2\n      mstore\n      0x20\n      add\n      swap1\n      dup2\n      mstore\n      0x20\n      add\n      0x00\n      keccak256\n      sload\n        /* \"SimpleWallet.sol\":824:845  return balances[user] */\n      swap1\n      pop\n        /* \"SimpleWallet.sol\":757:849  function getBalance(address user) public view returns (uint256) {... */\n      swap2\n      swap1\n      pop\n      jump\t// out\n        /* \"#utility.yul\":7:84   */\n    tag_94:\n        /* \"#utility.yul\":44:51   */\n      0x00\n        /* \"#utility.yul\":73:78   */\n      dup2\n        /* \"#utility.yul\":62:78   */\n      swap1\n      pop\n        /* \"#utility.yul\":7:84   */\n      swap2\n      swap1\n      pop\n      jump\t// out\n        /* \"#utility.yul\":90:208   */\n    tag_95:\n        /* \"#utility.yul\":177:201   */\n      tag_123\n        /* \"#utility.yul\":195:200   */\n      dup2\n        /* \"#utility.yul\":177:201   */\n      tag_94\n      jump\t// in\n    tag_123:\n        /* \"#utility.yul\":172:175   */\n      dup3\n        /* \"#utility.yul\":165:202   */\n      mstore\n        /* \"#utility.yul\":90:208   */\n      pop\n      pop\n      jump\t// out\n        /* \"#utility.yul\":214:436   */\n    tag_16:\n        /* \"#utility.yul\":307:311   */\n      0x00\n        /* \"#utility.yul\":345:347   */\n      0x20\n        /* \"#utility.yul\":334:343   */\n      dup3\n        /* \"#utility.yul\":330:348   */\n      add\n        /* \"#utility.yul\":322:348   */\n      swap1\n      pop\n        /* \"#utility.yul\":358:429   */\n      tag_125\n        /* \"#utility.yul\":426:427   */\n      0x00\n        /* \"#utility.yul\":415:424   */\n      dup4\n        /* \"#utility.yul\":411:428   */\n      add\n        /* \"#utility.yul\":402:408   */\n      dup5\n        /* \"#utility.yul\":358:429   */\n      tag_95\n      jump\t// in\n    tag_125:\n        /* \"#utility.yul\":214:436   */\n      swap3\n      swap2\n      pop\n      pop\n      jump\t// out\n        /* \"#utility.yul\":523:640   */\n    tag_97:\n        /* \"#utility.yul\":632:633   */\n      0x00\n        /* \"#utility.yul\":629:630   */\n      0x00\n        /* \"#utility.yul\":622:634   */\n      revert\n        /* \"#utility.yul\":769:895   */\n    tag_99:\n        /* \"#utility.yul\":806:813   */\n      0x00\n        /* \"#utility.yul\":846:888   */\n      0xffffffffffffffffffffffffffffffffffffffff\n        /* \"#utility.yul\":839:844   */\n      dup3\n        /* \"#utility.yul\":835:889   */\n      and\n        /* \"#utility.yul\":824:889   */\n      swap1\n      pop\n        /* \"#utility.yul\":769:895   */\n      swap2\n      swap1\n      pop\n      jump\t// out\n        /* \"#utility.yul\":901:997   */\n    tag_100:\n        /* \"#utility.yul\":938:945   */\n      0x00\n        /* \"#utility.yul\":967:991   */\n      tag_131\n        /* \"#utility.yul\":985:990   */\n      dup3\n        /* \"#utility.yul\":967:991   */\n      tag_99\n      jump\t// in\n    tag_131:\n        /* \"#utility.yul\":956:991   */\n      swap1\n      pop\n        /* \"#utility.yul\":901:997   */\n      swap2\n      swap1\n      pop\n      jump\t// out\n        /* \"#utility.yul\":1003:1125   */\n    tag_101:\n        /* \"#utility.yul\":1076:1100   */\n      tag_133\n        /* \"#utility.yul\":1094:1099   */\n      dup2\n        /* \"#utility.yul\":1076:1100   */\n      tag_100\n      jump\t// in\n    tag_133:\n        /* \"#utility.yul\":1069:1074   */\n      dup2\n        /* \"#utility.yul\":1066:1101   */\n      eq\n        /* \"#utility.yul\":1056:1119   */\n      tag_134\n      jumpi\n        /* \"#utility.yul\":1115:1116   */\n      0x00\n        /* \"#utility.yul\":1112:1113   */\n      0x00\n        /* \"#utility.yul\":1105:1117   */\n      revert\n        /* \"#utility.yul\":1056:1119   */\n    tag_134:\n        /* \"#utility.yul\":1003:1125   */\n      pop\n      jump\t// out\n        /* \"#utility.yul\":1131:1270   */\n    tag_102:\n        /* \"#utility.yul\":1177:1182   */\n      0x00\n        /* \"#utility.yul\":1215:1221   */\n      dup2\n        /* \"#utility.yul\":1202:1222   */\n      calldataload\n        /* \"#utility.yul\":1193:1222   */\n      swap1\n      pop\n        /* \"#utility.yul\":1231:1264   */\n      tag_136\n        /* \"#utility.yul\":1258:1263   */\n      dup2\n        /* \"#utility.yul\":1231:1264   */\n      tag_101\n      jump\t// in\n    tag_136:\n        /* \"#utility.yul\":1131:1270   */\n      swap3\n      swap2\n      pop\n      pop\n      jump\t// out\n        /* \"#utility.yul\":1276:1605   */\n    tag_20:\n        /* \"#utility.yul\":1335:1341   */\n      0x00\n        /* \"#utility.yul\":1384:1386   */\n      0x20\n        /* \"#utility.yul\":1372:1381   */\n      dup3\n        /* \"#utility.yul\":1363:1370   */\n      dup5\n        /* \"#utility.yul\":1359:1382   */\n      sub\n        /* \"#utility.yul\":1355:1387   */\n      slt\n        /* \"#utility.yul\":1352:1471   */\n      iszero\n      tag_138\n      jumpi\n        /* \"#utility.yul\":1390:1469   */\n      tag_139\n      tag_97\n      jump\t// in\n    tag_139:\n        /* \"#utility.yul\":1352:1471   */\n    tag_138:\n        /* \"#utility.yul\":1510:1511   */\n      0x00\n        /* \"#utility.yul\":1535:1588   */\n      tag_140\n        /* \"#utility.yul\":1580:1587   */\n      dup5\n        /* \"#utility.yul\":1571:1577   */\n      dup3\n        /* \"#utility.yul\":1560:1569   */\n      dup6\n        /* \"#utility.yul\":1556:1578   */\n      add\n        /* \"#utility.yul\":1535:1588   */\n      tag_102\n      jump\t// in\n    tag_140:\n        /* \"#utility.yul\":1525:1588   */\n      swap2\n      pop\n        /* \"#utility.yul\":1481:1598   */\n      pop\n        /* \"#utility.yul\":1276:1605   */\n      swap3\n      swap2\n      pop\n      pop\n      jump\t// out\n        /* \"#utility.yul\":1611:1733   */\n    tag_103:\n        /* \"#utility.yul\":1684:1708   */\n      tag_142\n        /* \"#utility.yul\":1702:1707   */\n      dup2\n        /* \"#utility.yul\":1684:1708   */\n      tag_94\n      jump\t// in\n    tag_142:\n        /* \"#utility.yul\":1677:1682   */\n      dup2\n        /* \"#utility.yul\":1674:1709   */\n      eq\n        /* \"#utility.yul\":1664:1727   */\n      tag_143\n      jumpi\n        /* \"#utility.yul\":1723:1724   */\n      0x00\n        /* \"#utility.yul\":1720:1721   */\n      0x00\n        /* \"#utility.yul\":1713:1725   */\n      revert\n        /* \"#utility.yul\":1664:1727   */\n    tag_143:\n        /* \"#utility.yul\":1611:1733   */\n      pop\n      jump\t// out\n        /* \"#utility.yul\":1739:1878   */\n    tag_104:\n        /* \"#utility.yul\":1785:1790   */\n      0x00\n        /* \"#utility.yul\":1823:1829   */\n      dup2\n        /* \"#utility.yul\":1810:1830   */\n      calldataload\n        /* \"#utility.yul\":1801:1830   */\n      swap1\n      pop\n        /* \"#utility.yul\":1839:1872   */\n      tag_145\n        /* \"#utility.yul\":1866:1871   */\n      dup2\n        /* \"#utility.yul\":1839:1872   */\n      tag_103\n      jump\t// in\n    tag_145:\n        /* \"#utility.yul\":1739:1878   */\n      swap3\n      swap2\n      pop\n      pop\n      jump\t// out\n        /* \"#utility.yul\":1884:2213   */\n    tag_26:\n        /* \"#utility.yul\":1943:1949   */\n      0x00\n        /* \"#utility.yul\":1992:1994   */\n      0x20\n        /* \"#utility.yul\":1980:1989   */\n      dup3\n        /* \"#utility.yul\":1971:1978   */\n      dup5\n        /* \"#utility.yul\":1967:1990   */\n      sub\n        /* \"#utility.yul\":1963:1995   */\n      slt\n        /* \"#utility.yul\":1960:2079   */\n      iszero\n      tag_147\n      jumpi\n        /* \"#utility.yul\":1998:2077   */\n      tag_148\n      tag_97\n      jump\t// in\n    tag_148:\n        /* \"#utility.yul\":1960:2079   */\n    tag_147:\n        /* \"#utility.yul\":2118:2119   */\n      0x00\n        /* \"#utility.yul\":2143:2196   */\n      tag_149\n        /* \"#utility.yul\":2188:2195   */\n      dup5\n        /* \"#utility.yul\":2179:2185   */\n      dup3\n        /* \"#utility.yul\":2168:2177   */\n      dup6\n        /* \"#utility.yul\":2164:2186   */\n      add\n        /* \"#utility.yul\":2143:2196   */\n      tag_104\n      jump\t// in\n    tag_149:\n        /* \"#utility.yul\":2133:2196   */\n      swap2\n      pop\n        /* \"#utility.yul\":2089:2206   */\n      pop\n        /* \"#utility.yul\":1884:2213   */\n      swap3\n      swap2\n      pop\n      pop\n      jump\t// out\n        /* \"#utility.yul\":2219:2693   */\n    tag_39:\n        /* \"#utility.yul\":2287:2293   */\n      0x00\n        /* \"#utility.yul\":2295:2301   */\n      0x00\n        /* \"#utility.yul\":2344:2346   */\n      0x40\n        /* \"#utility.yul\":2332:2341   */\n      dup4\n        /* \"#utility.yul\":2323:2330   */\n      dup6\n        /* \"#utility.yul\":2319:2342   */\n      sub\n        /* \"#utility.yul\":2315:2347   */\n      slt\n        /* \"#utility.yul\":2312:2431   */\n      iszero\n      tag_151\n      jumpi\n        /* \"#utility.yul\":2350:2429   */\n      tag_152\n      tag_97\n      jump\t// in\n    tag_152:\n        /* \"#utility.yul\":2312:2431   */\n    tag_151:\n        /* \"#utility.yul\":2470:2471   */\n      0x00\n        /* \"#utility.yul\":2495:2548   */\n      tag_153\n        /* \"#utility.yul\":2540:2547   */\n      dup6\n        /* \"#utility.yul\":2531:2537   */\n      dup3\n        /* \"#utility.yul\":2520:2529   */\n      dup7\n        /* \"#utility.yul\":2516:2538   */\n      add\n        /* \"#utility.yul\":2495:2548   */\n      tag_102\n      jump\t// in\n    tag_153:\n        /* \"#utility.yul\":2485:2548   */\n      swap3\n      pop\n        /* \"#utility.yul\":2441:2558   */\n      pop\n        /* \"#utility.yul\":2597:2599   */\n      0x20\n        /* \"#utility.yul\":2623:2676   */\n      tag_154\n        /* \"#utility.yul\":2668:2675   */\n      dup6\n        /* \"#utility.yul\":2659:2665   */\n      dup3\n        /* \"#utility.yul\":2648:2657   */\n      dup7\n        /* \"#utility.yul\":2644:2666   */\n      add\n        /* \"#utility.yul\":2623:2676   */\n      tag_104\n      jump\t// in\n    tag_154:\n        /* \"#utility.yul\":2613:2676   */\n      swap2\n      pop\n        /* \"#utility.yul\":2568:2686   */\n      pop\n        /* \"#utility.yul\":2219:2693   */\n      swap3\n      pop\n      swap3\n      swap1\n      pop\n      jump\t// out\n        /* \"#utility.yul\":2699:2868   */\n    tag_105:\n        /* \"#utility.yul\":2783:2794   */\n      0x00\n        /* \"#utility.yul\":2817:2823   */\n      dup3\n        /* \"#utility.yul\":2812:2815   */\n      dup3\n        /* \"#utility.yul\":2805:2824   */\n      mstore\n        /* \"#utility.yul\":2857:2861   */\n      0x20\n        /* \"#utility.yul\":2852:2855   */\n      dup3\n        /* \"#utility.yul\":2848:2862   */\n      add\n        /* \"#utility.yul\":2833:2862   */\n      swap1\n      pop\n        /* \"#utility.yul\":2699:2868   */\n      swap3\n      swap2\n      pop\n      pop\n      jump\t// out\n        /* \"#utility.yul\":2874:3051   */\n    tag_106:\n        /* \"#utility.yul\":3014:3043   */\n      0x456c206d6f6e746f206465626520736572206d61796f72206120300000000000\n        /* \"#utility.yul\":3010:3011   */\n      0x00\n        /* \"#utility.yul\":3002:3008   */\n      dup3\n        /* \"#utility.yul\":2998:3012   */\n      add\n        /* \"#utility.yul\":2991:3044   */\n      mstore\n        /* \"#utility.yul\":2874:3051   */\n      pop\n      jump\t// out\n        /* \"#utility.yul\":3057:3423   */\n    tag_107:\n        /* \"#utility.yul\":3199:3202   */\n      0x00\n        /* \"#utility.yul\":3220:3287   */\n      tag_158\n        /* \"#utility.yul\":3284:3286   */\n      0x1b\n        /* \"#utility.yul\":3279:3282   */\n      dup4\n        /* \"#utility.yul\":3220:3287   */\n      tag_105\n      jump\t// in\n    tag_158:\n        /* \"#utility.yul\":3213:3287   */\n      swap2\n      pop\n        /* \"#utility.yul\":3296:3389   */\n      tag_159\n        /* \"#utility.yul\":3385:3388   */\n      dup3\n        /* \"#utility.yul\":3296:3389   */\n      tag_106\n      jump\t// in\n    tag_159:\n        /* \"#utility.yul\":3414:3416   */\n      0x20\n        /* \"#utility.yul\":3409:3412   */\n      dup3\n        /* \"#utility.yul\":3405:3417   */\n      add\n        /* \"#utility.yul\":3398:3417   */\n      swap1\n      pop\n        /* \"#utility.yul\":3057:3423   */\n      swap2\n      swap1\n      pop\n      jump\t// out\n        /* \"#utility.yul\":3429:3848   */\n    tag_56:\n        /* \"#utility.yul\":3595:3599   */\n      0x00\n        /* \"#utility.yul\":3633:3635   */\n      0x20\n        /* \"#utility.yul\":3622:3631   */\n      dup3\n        /* \"#utility.yul\":3618:3636   */\n      add\n        /* \"#utility.yul\":3610:3636   */\n      swap1\n      pop\n        /* \"#utility.yul\":3682:3691   */\n      dup2\n        /* \"#utility.yul\":3676:3680   */\n      dup2\n        /* \"#utility.yul\":3672:3692   */\n      sub\n        /* \"#utility.yul\":3668:3669   */\n      0x00\n        /* \"#utility.yul\":3657:3666   */\n      dup4\n        /* \"#utility.yul\":3653:3670   */\n      add\n        /* \"#utility.yul\":3646:3693   */\n      mstore\n        /* \"#utility.yul\":3710:3841   */\n      tag_161\n        /* \"#utility.yul\":3836:3840   */\n      dup2\n        /* \"#utility.yul\":3710:3841   */\n      tag_107\n      jump\t// in\n    tag_161:\n        /* \"#utility.yul\":3702:3841   */\n      swap1\n      pop\n        /* \"#utility.yul\":3429:3848   */\n      swap2\n      swap1\n      pop\n      jump\t// out\n        /* \"#utility.yul\":3854:4022   */\n    tag_108:\n        /* \"#utility.yul\":3994:4014   */\n      0x53616c646f20696e737566696369656e74650000000000000000000000000000\n        /* \"#utility.yul\":3990:3991   */\n      0x00\n        /* \"#utility.yul\":3982:3988   */\n      dup3\n        /* \"#utility.yul\":3978:3992   */\n      add\n        /* \"#utility.yul\":3971:4015   */\n      mstore\n        /* \"#utility.yul\":3854:4022   */\n      pop\n      jump\t// out\n        /* \"#utility.yul\":4028:4394   */\n    tag_109:\n        /* \"#utility.yul\":4170:4173   */\n      0x00\n        /* \"#utility.yul\":4191:4258   */\n      tag_164\n        /* \"#utility.yul\":4255:4257   */\n      0x12\n        /* \"#utility.yul\":4250:4253   */\n      dup4\n        /* \"#utility.yul\":4191:4258   */\n      tag_105\n      jump\t// in\n    tag_164:\n        /* \"#utility.yul\":4184:4258   */\n      swap2\n      pop\n        /* \"#utility.yul\":4267:4360   */\n      tag_165\n        /* \"#utility.yul\":4356:4359   */\n      dup3\n        /* \"#utility.yul\":4267:4360   */\n      tag_108\n      jump\t// in\n    tag_165:\n        /* \"#utility.yul\":4385:4387   */\n      0x20\n        /* \"#utility.yul\":4380:4383   */\n      dup3\n        /* \"#utility.yul\":4376:4388   */\n      add\n        /* \"#utility.yul\":4369:4388   */\n      swap1\n      pop\n        /* \"#utility.yul\":4028:4394   */\n      swap2\n      swap1\n      pop\n      jump\t// out\n        /* \"#utility.yul\":4400:4819   */\n    tag_59:\n        /* \"#utility.yul\":4566:4570   */\n      0x00\n        /* \"#utility.yul\":4604:4606   */\n      0x20\n        /* \"#utility.yul\":4593:4602   */\n      dup3\n        /* \"#utility.yul\":4589:4607   */\n      add\n        /* \"#utility.yul\":4581:4607   */\n      swap1\n      pop\n        /* \"#utility.yul\":4653:4662   */\n      dup2\n        /* \"#utility.yul\":4647:4651   */\n      dup2\n        /* \"#utility.yul\":4643:4663   */\n      sub\n        /* \"#utility.yul\":4639:4640   */\n      0x00\n        /* \"#utility.yul\":4628:4637   */\n      dup4\n        /* \"#utility.yul\":4624:4641   */\n      add\n        /* \"#utility.yul\":4617:4664   */\n      mstore\n        /* \"#utility.yul\":4681:4812   */\n      tag_167\n        /* \"#utility.yul\":4807:4811   */\n      dup2\n        /* \"#utility.yul\":4681:4812   */\n      tag_109\n      jump\t// in\n    tag_167:\n        /* \"#utility.yul\":4673:4812   */\n      swap1\n      pop\n        /* \"#utility.yul\":4400:4819   */\n      swap2\n      swap1\n      pop\n      jump\t// out\n        /* \"#utility.yul\":4825:5005   */\n    tag_110:\n        /* \"#utility.yul\":4873:4950   */\n      0x4e487b7100000000000000000000000000000000000000000000000000000000\n        /* \"#utility.yul\":4870:4871   */\n      0x00\n        /* \"#utility.yul\":4863:4951   */\n      mstore\n        /* \"#utility.yul\":4970:4974   */\n      0x11\n        /* \"#utility.yul\":4967:4968   */\n      0x04\n        /* \"#utility.yul\":4960:4975   */\n      mstore\n        /* \"#utility.yul\":4994:4998   */\n      0x24\n        /* \"#utility.yul\":4991:4992   */\n      0x00\n        /* \"#utility.yul\":4984:4999   */\n      revert\n        /* \"#utility.yul\":5011:5205   */\n    tag_61:\n        /* \"#utility.yul\":5051:5055   */\n      0x00\n        /* \"#utility.yul\":5071:5091   */\n      tag_170\n        /* \"#utility.yul\":5089:5090   */\n      dup3\n        /* \"#utility.yul\":5071:5091   */\n      tag_94\n      jump\t// in\n    tag_170:\n        /* \"#utility.yul\":5066:5091   */\n      swap2\n      pop\n        /* \"#utility.yul\":5105:5125   */\n      tag_171\n        /* \"#utility.yul\":5123:5124   */\n      dup4\n        /* \"#utility.yul\":5105:5125   */\n      tag_94\n      jump\t// in\n    tag_171:\n        /* \"#utility.yul\":5100:5125   */\n      swap3\n      pop\n        /* \"#utility.yul\":5149:5150   */\n      dup3\n        /* \"#utility.yul\":5146:5147   */\n      dup3\n        /* \"#utility.yul\":5142:5151   */\n      sub\n        /* \"#utility.yul\":5134:5151   */\n      swap1\n      pop\n        /* \"#utility.yul\":5173:5174   */\n      dup2\n        /* \"#utility.yul\":5167:5171   */\n      dup2\n        /* \"#utility.yul\":5164:5175   */\n      gt\n        /* \"#utility.yul\":5161:5198   */\n      iszero\n      tag_172\n      jumpi\n        /* \"#utility.yul\":5178:5196   */\n      tag_173\n      tag_110\n      jump\t// in\n    tag_173:\n        /* \"#utility.yul\":5161:5198   */\n    tag_172:\n        /* \"#utility.yul\":5011:5205   */\n      swap3\n      swap2\n      pop\n      pop\n      jump\t// out\n        /* \"#utility.yul\":5211:5358   */\n    tag_111:\n        /* \"#utility.yul\":5312:5323   */\n      0x00\n        /* \"#utility.yul\":5349:5352   */\n      dup2\n        /* \"#utility.yul\":5334:5352   */\n      swap1\n      pop\n        /* \"#utility.yul\":5211:5358   */\n      swap3\n      swap2\n      pop\n      pop\n      jump\t// out\n        /* \"#utility.yul\":5364:5478   */\n    tag_112:\n      pop\n      jump\t// out\n        /* \"#utility.yul\":5484:5882   */\n    tag_113:\n        /* \"#utility.yul\":5643:5646   */\n      0x00\n        /* \"#utility.yul\":5664:5747   */\n      tag_177\n        /* \"#utility.yul\":5745:5746   */\n      0x00\n        /* \"#utility.yul\":5740:5743   */\n      dup4\n        /* \"#utility.yul\":5664:5747   */\n      tag_111\n      jump\t// in\n    tag_177:\n        /* \"#utility.yul\":5657:5747   */\n      swap2\n      pop\n        /* \"#utility.yul\":5756:5849   */\n      tag_178\n        /* \"#utility.yul\":5845:5848   */\n      dup3\n        /* \"#utility.yul\":5756:5849   */\n      tag_112\n      jump\t// in\n    tag_178:\n        /* \"#utility.yul\":5874:5875   */\n      0x00\n        /* \"#utility.yul\":5869:5872   */\n      dup3\n        /* \"#utility.yul\":5865:5876   */\n      add\n        /* \"#utility.yul\":5858:5876   */\n      swap1\n      pop\n        /* \"#utility.yul\":5484:5882   */\n      swap2\n      swap1\n      pop\n      jump\t// out\n        /* \"#utility.yul\":5888:6267   */\n    tag_64:\n        /* \"#utility.yul\":6072:6075   */\n      0x00\n        /* \"#utility.yul\":6094:6241   */\n      tag_180\n        /* \"#utility.yul\":6237:6240   */\n      dup3\n        /* \"#utility.yul\":6094:6241   */\n      tag_113\n      jump\t// in\n    tag_180:\n        /* \"#utility.yul\":6087:6241   */\n      swap2\n      pop\n        /* \"#utility.yul\":6258:6261   */\n      dup2\n        /* \"#utility.yul\":6251:6261   */\n      swap1\n      pop\n        /* \"#utility.yul\":5888:6267   */\n      swap2\n      swap1\n      pop\n      jump\t// out\n        /* \"#utility.yul\":6273:6487   */\n    tag_114:\n        /* \"#utility.yul\":6413:6479   */\n      0x4c61207472616e73666572656e6369612066616c6cc3b3000000000000000000\n        /* \"#utility.yul\":6409:6410   */\n      0x00\n        /* \"#utility.yul\":6401:6407   */\n      dup3\n        /* \"#utility.yul\":6397:6411   */\n      add\n        /* \"#utility.yul\":6390:6480   */\n      mstore\n        /* \"#utility.yul\":6273:6487   */\n      pop\n      jump\t// out\n        /* \"#utility.yul\":6493:6859   */\n    tag_115:\n        /* \"#utility.yul\":6635:6638   */\n      0x00\n        /* \"#utility.yul\":6656:6723   */\n      tag_183\n        /* \"#utility.yul\":6720:6722   */\n      0x17\n        /* \"#utility.yul\":6715:6718   */\n      dup4\n        /* \"#utility.yul\":6656:6723   */\n      tag_105\n      jump\t// in\n    tag_183:\n        /* \"#utility.yul\":6649:6723   */\n      swap2\n      pop\n        /* \"#utility.yul\":6732:6825   */\n      tag_184\n        /* \"#utility.yul\":6821:6824   */\n      dup3\n        /* \"#utility.yul\":6732:6825   */\n      tag_114\n      jump\t// in\n    tag_184:\n        /* \"#utility.yul\":6850:6852   */\n      0x20\n        /* \"#utility.yul\":6845:6848   */\n      dup3\n        /* \"#utility.yul\":6841:6853   */\n      add\n        /* \"#utility.yul\":6834:6853   */\n      swap1\n      pop\n        /* \"#utility.yul\":6493:6859   */\n      swap2\n      swap1\n      pop\n      jump\t// out\n        /* \"#utility.yul\":6865:7284   */\n    tag_70:\n        /* \"#utility.yul\":7031:7035   */\n      0x00\n        /* \"#utility.yul\":7069:7071   */\n      0x20\n        /* \"#utility.yul\":7058:7067   */\n      dup3\n        /* \"#utility.yul\":7054:7072   */\n      add\n        /* \"#utility.yul\":7046:7072   */\n      swap1\n      pop\n        /* \"#utility.yul\":7118:7127   */\n      dup2\n        /* \"#utility.yul\":7112:7116   */\n      dup2\n        /* \"#utility.yul\":7108:7128   */\n      sub\n        /* \"#utility.yul\":7104:7105   */\n      0x00\n        /* \"#utility.yul\":7093:7102   */\n      dup4\n        /* \"#utility.yul\":7089:7106   */\n      add\n        /* \"#utility.yul\":7082:7129   */\n      mstore\n        /* \"#utility.yul\":7146:7277   */\n      tag_186\n        /* \"#utility.yul\":7272:7276   */\n      dup2\n        /* \"#utility.yul\":7146:7277   */\n      tag_115\n      jump\t// in\n    tag_186:\n        /* \"#utility.yul\":7138:7277   */\n      swap1\n      pop\n        /* \"#utility.yul\":6865:7284   */\n      swap2\n      swap1\n      pop\n      jump\t// out\n        /* \"#utility.yul\":7290:7504   */\n    tag_116:\n        /* \"#utility.yul\":7430:7496   */\n      0x44697265636369c3b36e20696e76c3a16c696461000000000000000000000000\n        /* \"#utility.yul\":7426:7427   */\n      0x00\n        /* \"#utility.yul\":7418:7424   */\n      dup3\n        /* \"#utility.yul\":7414:7428   */\n      add\n        /* \"#utility.yul\":7407:7497   */\n      mstore\n        /* \"#utility.yul\":7290:7504   */\n      pop\n      jump\t// out\n        /* \"#utility.yul\":7510:7876   */\n    tag_117:\n        /* \"#utility.yul\":7652:7655   */\n      0x00\n        /* \"#utility.yul\":7673:7740   */\n      tag_189\n        /* \"#utility.yul\":7737:7739   */\n      0x14\n        /* \"#utility.yul\":7732:7735   */\n      dup4\n        /* \"#utility.yul\":7673:7740   */\n      tag_105\n      jump\t// in\n    tag_189:\n        /* \"#utility.yul\":7666:7740   */\n      swap2\n      pop\n        /* \"#utility.yul\":7749:7842   */\n      tag_190\n        /* \"#utility.yul\":7838:7841   */\n      dup3\n        /* \"#utility.yul\":7749:7842   */\n      tag_116\n      jump\t// in\n    tag_190:\n        /* \"#utility.yul\":7867:7869   */\n      0x20\n        /* \"#utility.yul\":7862:7865   */\n      dup3\n        /* \"#utility.yul\":7858:7870   */\n      add\n        /* \"#utility.yul\":7851:7870   */\n      swap1\n      pop\n        /* \"#utility.yul\":7510:7876   */\n      swap2\n      swap1\n      pop\n      jump\t// out\n        /* \"#utility.yul\":7882:8301   */\n    tag_77:\n        /* \"#utility.yul\":8048:8052   */\n      0x00\n        /* \"#utility.yul\":8086:8088   */\n      0x20\n        /* \"#utility.yul\":8075:8084   */\n      dup3\n        /* \"#utility.yul\":8071:8089   */\n      add\n        /* \"#utility.yul\":8063:8089   */\n      swap1\n      pop\n        /* \"#utility.yul\":8135:8144   */\n      dup2\n        /* \"#utility.yul\":8129:8133   */\n      dup2\n        /* \"#utility.yul\":8125:8145   */\n      sub\n        /* \"#utility.yul\":8121:8122   */\n      0x00\n        /* \"#utility.yul\":8110:8119   */\n      dup4\n        /* \"#utility.yul\":8106:8123   */\n      add\n        /* \"#utility.yul\":8099:8146   */\n      mstore\n        /* \"#utility.yul\":8163:8294   */\n      tag_192\n        /* \"#utility.yul\":8289:8293   */\n      dup2\n        /* \"#utility.yul\":8163:8294   */\n      tag_117\n      jump\t// in\n    tag_192:\n        /* \"#utility.yul\":8155:8294   */\n      swap1\n      pop\n        /* \"#utility.yul\":7882:8301   */\n      swap2\n      swap1\n      pop\n      jump\t// out\n        /* \"#utility.yul\":8307:8498   */\n    tag_84:\n        /* \"#utility.yul\":8347:8350   */\n      0x00\n        /* \"#utility.yul\":8366:8386   */\n      tag_194\n        /* \"#utility.yul\":8384:8385   */\n      dup3\n        /* \"#utility.yul\":8366:8386   */\n      tag_94\n      jump\t// in\n    tag_194:\n        /* \"#utility.yul\":8361:8386   */\n      swap2\n      pop\n        /* \"#utility.yul\":8400:8420   */\n      tag_195\n        /* \"#utility.yul\":8418:8419   */\n      dup4\n        /* \"#utility.yul\":8400:8420   */\n      tag_94\n      jump\t// in\n    tag_195:\n        /* \"#utility.yul\":8395:8420   */\n      swap3\n      pop\n        /* \"#utility.yul\":8443:8444   */\n      dup3\n        /* \"#utility.yul\":8440:8441   */\n      dup3\n        /* \"#utility.yul\":8436:8445   */\n      add\n        /* \"#utility.yul\":8429:8445   */\n      swap1\n      pop\n        /* \"#utility.yul\":8464:8467   */\n      dup1\n        /* \"#utility.yul\":8461:8462   */\n      dup3\n        /* \"#utility.yul\":8458:8468   */\n      gt\n        /* \"#utility.yul\":8455:8491   */\n      iszero\n      tag_196\n      jumpi\n        /* \"#utility.yul\":8471:8489   */\n      tag_197\n      tag_110\n      jump\t// in\n    tag_197:\n        /* \"#utility.yul\":8455:8491   */\n    tag_196:\n        /* \"#utility.yul\":8307:8498   */\n      swap3\n      swap2\n      pop\n      pop\n      jump\t// out\n        /* \"#utility.yul\":8504:8718   */\n    tag_118:\n        /* \"#utility.yul\":8644:8710   */\n      0x456c20646570c3b37369746f206465626520736572206d61796f722061203000\n        /* \"#utility.yul\":8640:8641   */\n      0x00\n        /* \"#utility.yul\":8632:8638   */\n      dup3\n        /* \"#utility.yul\":8628:8642   */\n      add\n        /* \"#utility.yul\":8621:8711   */\n      mstore\n        /* \"#utility.yul\":8504:8718   */\n      pop\n      jump\t// out\n        /* \"#utility.yul\":8724:9090   */\n    tag_119:\n        /* \"#utility.yul\":8866:8869   */\n      0x00\n        /* \"#utility.yul\":8887:8954   */\n      tag_200\n        /* \"#utility.yul\":8951:8953   */\n      0x1f\n        /* \"#utility.yul\":8946:8949   */\n      dup4\n        /* \"#utility.yul\":8887:8954   */\n      tag_105\n      jump\t// in\n    tag_200:\n        /* \"#utility.yul\":8880:8954   */\n      swap2\n      pop\n        /* \"#utility.yul\":8963:9056   */\n      tag_201\n        /* \"#utility.yul\":9052:9055   */\n      dup3\n        /* \"#utility.yul\":8963:9056   */\n      tag_118\n      jump\t// in\n    tag_201:\n        /* \"#utility.yul\":9081:9083   */\n      0x20\n        /* \"#utility.yul\":9076:9079   */\n      dup3\n        /* \"#utility.yul\":9072:9084   */\n      add\n        /* \"#utility.yul\":9065:9084   */\n      swap1\n      pop\n        /* \"#utility.yul\":8724:9090   */\n      swap2\n      swap1\n      pop\n      jump\t// out\n        /* \"#utility.yul\":9096:9515   */\n    tag_89:\n        /* \"#utility.yul\":9262:9266   */\n      0x00\n        /* \"#utility.yul\":9300:9302   */\n      0x20\n        /* \"#utility.yul\":9289:9298   */\n      dup3\n        /* \"#utility.yul\":9285:9303   */\n      add\n        /* \"#utility.yul\":9277:9303   */\n      swap1\n      pop\n        /* \"#utility.yul\":9349:9358   */\n      dup2\n        /* \"#utility.yul\":9343:9347   */\n      dup2\n        /* \"#utility.yul\":9339:9359   */\n      sub\n        /* \"#utility.yul\":9335:9336   */\n      0x00\n        /* \"#utility.yul\":9324:9333   */\n      dup4\n        /* \"#utility.yul\":9320:9337   */\n      add\n        /* \"#utility.yul\":9313:9360   */\n      mstore\n        /* \"#utility.yul\":9377:9508   */\n      tag_203\n        /* \"#utility.yul\":9503:9507   */\n      dup2\n        /* \"#utility.yul\":9377:9508   */\n      tag_119\n      jump\t// in\n    tag_203:\n        /* \"#utility.yul\":9369:9508   */\n      swap1\n      pop\n        /* \"#utility.yul\":9096:9515   */\n      swap2\n      swap1\n      pop\n      jump\t// out\n\n    auxdata: 0xa26469706673582212208a35af6a2fe66a0303f0ebe86ca308de5adc02afc5d8bebede407f366d5c7a6a64736f6c634300081f0033\n}\n",
				"bytecode": {
					"linkReferences": {},
					"object": "60806040525f6001553480156012575f5ffd5b50610c81806100205f395ff3fe608060405260043610610085575f3560e01c80636f9fb98a116100585780636f9fb98a14610141578063a9059cbb1461016b578063ad7a672f14610193578063d0e30db0146101bd578063f8b2cb4f146101c757610085565b806312b583491461008957806327e235e3146100b35780632e1a7d4d146100ef5780634c73890914610117575b5f5ffd5b348015610094575f5ffd5b5061009d610203565b6040516100aa919061082a565b60405180910390f35b3480156100be575f5ffd5b506100d960048036038101906100d491906108a1565b61020c565b6040516100e6919061082a565b60405180910390f35b3480156100fa575f5ffd5b50610115600480360381019061011091906108f6565b610220565b005b348015610122575f5ffd5b5061012b610445565b604051610138919061082a565b60405180910390f35b34801561014c575f5ffd5b50610155610488565b604051610162919061082a565b60405180910390f35b348015610176575f5ffd5b50610191600480360381019061018c9190610921565b61048f565b005b34801561019e575f5ffd5b506101a76106cb565b6040516101b4919061082a565b60405180910390f35b6101c56106d1565b005b3480156101d2575f5ffd5b506101ed60048036038101906101e891906108a1565b6107cd565b6040516101fa919061082a565b60405180910390f35b5f600154905090565b5f602052805f5260405f205f915090505481565b5f8111610262576040517f08c379a0000000000000000000000000000000000000000000000000000000008152600401610259906109b9565b60405180910390fd5b805f5f3373ffffffffffffffffffffffffffffffffffffffff1673ffffffffffffffffffffffffffffffffffffffff1681526020019081526020015f205410156102e1576040517f08c379a00000000000000000000000000000000000000000000000000000000081526004016102d890610a21565b60405180910390fd5b805f5f3373ffffffffffffffffffffffffffffffffffffffff1673ffffffffffffffffffffffffffffffffffffffff1681526020019081526020015f205f82825461032c9190610a6c565b925050819055508060015f8282546103449190610a6c565b925050819055505f3373ffffffffffffffffffffffffffffffffffffffff168260405161037090610acc565b5f6040518083038185875af1925050503d805f81146103aa576040519150601f19603f3d011682016040523d82523d5f602084013e6103af565b606091505b50509050806103f3576040517f08c379a00000000000000000000000000000000000000000000000000000000081526004016103ea90610b2a565b60405180910390fd5b3373ffffffffffffffffffffffffffffffffffffffff167f7fcf532c15f0a6db0bd6d0e038bea71d30d808c7d98cb3bf7268a95bf5081b6583604051610439919061082a565b60405180910390a25050565b5f5f5f3373ffffffffffffffffffffffffffffffffffffffff1673ffffffffffffffffffffffffffffffffffffffff1681526020019081526020015f2054905090565b5f47905090565b5f73ffffffffffffffffffffffffffffffffffffffff168273ffffffffffffffffffffffffffffffffffffffff16036104fd576040517f08c379a00000000000000000000000000000000000000000000000000000000081526004016104f490610b92565b60405180910390fd5b5f811161053f576040517f08c379a0000000000000000000000000000000000000000000000000000000008152600401610536906109b9565b60405180910390fd5b805f5f3373ffffffffffffffffffffffffffffffffffffffff1673ffffffffffffffffffffffffffffffffffffffff1681526020019081526020015f205410156105be576040517f08c379a00000000000000000000000000000000000000000000000000000000081526004016105b590610a21565b60405180910390fd5b805f5f3373ffffffffffffffffffffffffffffffffffffffff1673ffffffffffffffffffffffffffffffffffffffff1681526020019081526020015f205f8282546106099190610a6c565b92505081905550805f5f8473ffffffffffffffffffffffffffffffffffffffff1673ffffffffffffffffffffffffffffffffffffffff1681526020019081526020015f205f82825461065b9190610bb0565b925050819055508173ffffffffffffffffffffffffffffffffffffffff163373ffffffffffffffffffffffffffffffffffffffff167fddf252ad1be2c89b69c2b068fc378daa952ba7f163c4a11628f55a4df523b3ef836040516106bf919061082a565b60405180910390a35050565b60015481565b5f3411610713576040517f08c379a000000000000000000000000000000000000000000000000000000000815260040161070a90610c2d565b60405180910390fd5b345f5f3373ffffffffffffffffffffffffffffffffffffffff1673ffffffffffffffffffffffffffffffffffffffff1681526020019081526020015f205f82825461075e9190610bb0565b925050819055503460015f8282546107769190610bb0565b925050819055503373ffffffffffffffffffffffffffffffffffffffff167fe1fffcc4923d04b559f4d29a8bfc6cda04eb5b0d3c460751c2402c5c5cc9109c346040516107c3919061082a565b60405180910390a2565b5f5f5f8373ffffffffffffffffffffffffffffffffffffffff1673ffffffffffffffffffffffffffffffffffffffff1681526020019081526020015f20549050919050565b5f819050919050565b61082481610812565b82525050565b5f60208201905061083d5f83018461081b565b92915050565b5f5ffd5b5f73ffffffffffffffffffffffffffffffffffffffff82169050919050565b5f61087082610847565b9050919050565b61088081610866565b811461088a575f5ffd5b50565b5f8135905061089b81610877565b92915050565b5f602082840312156108b6576108b5610843565b5b5f6108c38482850161088d565b91505092915050565b6108d581610812565b81146108df575f5ffd5b50565b5f813590506108f0816108cc565b92915050565b5f6020828403121561090b5761090a610843565b5b5f610918848285016108e2565b91505092915050565b5f5f6040838503121561093757610936610843565b5b5f6109448582860161088d565b9250506020610955858286016108e2565b9150509250929050565b5f82825260208201905092915050565b7f456c206d6f6e746f206465626520736572206d61796f722061203000000000005f82015250565b5f6109a3601b8361095f565b91506109ae8261096f565b602082019050919050565b5f6020820190508181035f8301526109d081610997565b9050919050565b7f53616c646f20696e737566696369656e746500000000000000000000000000005f82015250565b5f610a0b60128361095f565b9150610a16826109d7565b602082019050919050565b5f6020820190508181035f830152610a38816109ff565b9050919050565b7f4e487b71000000000000000000000000000000000000000000000000000000005f52601160045260245ffd5b5f610a7682610812565b9150610a8183610812565b9250828203905081811115610a9957610a98610a3f565b5b92915050565b5f81905092915050565b50565b5f610ab75f83610a9f565b9150610ac282610aa9565b5f82019050919050565b5f610ad682610aac565b9150819050919050565b7f4c61207472616e73666572656e6369612066616c6cc3b30000000000000000005f82015250565b5f610b1460178361095f565b9150610b1f82610ae0565b602082019050919050565b5f6020820190508181035f830152610b4181610b08565b9050919050565b7f44697265636369c3b36e20696e76c3a16c6964610000000000000000000000005f82015250565b5f610b7c60148361095f565b9150610b8782610b48565b602082019050919050565b5f6020820190508181035f830152610ba981610b70565b9050919050565b5f610bba82610812565b9150610bc583610812565b9250828201905080821115610bdd57610bdc610a3f565b5b92915050565b7f456c20646570c3b37369746f206465626520736572206d61796f7220612030005f82015250565b5f610c17601f8361095f565b9150610c2282610be3565b602082019050919050565b5f6020820190508181035f830152610c4481610c0b565b905091905056fea26469706673582212208a35af6a2fe66a0303f0ebe86ca308de5adc02afc5d8bebede407f366d5c7a6a64736f6c634300081f0033",
					"opcodes": "PUSH1 0x80 PUSH1 0x40 MSTORE PUSH0 PUSH1 0x1 SSTORE CALLVALUE DUP1 ISZERO PUSH1 0x12 JUMPI PUSH0 PUSH0 REVERT JUMPDEST POP PUSH2 0xC81 DUP1 PUSH2 0x20 PUSH0 CODECOPY PUSH0 RETURN INVALID PUSH1 0x80 PUSH1 0x40 MSTORE PUSH1 0x4 CALLDATASIZE LT PUSH2 0x85 JUMPI PUSH0 CALLDATALOAD PUSH1 0xE0 SHR DUP1 PUSH4 0x6F9FB98A GT PUSH2 0x58 JUMPI DUP1 PUSH4 0x6F9FB98A EQ PUSH2 0x141 JUMPI DUP1 PUSH4 0xA9059CBB EQ PUSH2 0x16B JUMPI DUP1 PUSH4 0xAD7A672F EQ PUSH2 0x193 JUMPI DUP1 PUSH4 0xD0E30DB0 EQ PUSH2 0x1BD JUMPI DUP1 PUSH4 0xF8B2CB4F EQ PUSH2 0x1C7 JUMPI PUSH2 0x85 JUMP JUMPDEST DUP1 PUSH4 0x12B58349 EQ PUSH2 0x89 JUMPI DUP1 PUSH4 0x27E235E3 EQ PUSH2 0xB3 JUMPI DUP1 PUSH4 0x2E1A7D4D EQ PUSH2 0xEF JUMPI DUP1 PUSH4 0x4C738909 EQ PUSH2 0x117 JUMPI JUMPDEST PUSH0 PUSH0 REVERT JUMPDEST CALLVALUE DUP1 ISZERO PUSH2 0x94 JUMPI PUSH0 PUSH0 REVERT JUMPDEST POP PUSH2 0x9D PUSH2 0x203 JUMP JUMPDEST PUSH1 0x40 MLOAD PUSH2 0xAA SWAP2 SWAP1 PUSH2 0x82A JUMP JUMPDEST PUSH1 0x40 MLOAD DUP1 SWAP2 SUB SWAP1 RETURN JUMPDEST CALLVALUE DUP1 ISZERO PUSH2 0xBE JUMPI PUSH0 PUSH0 REVERT JUMPDEST POP PUSH2 0xD9 PUSH1 0x4 DUP1 CALLDATASIZE SUB DUP2 ADD SWAP1 PUSH2 0xD4 SWAP2 SWAP1 PUSH2 0x8A1 JUMP JUMPDEST PUSH2 0x20C JUMP JUMPDEST PUSH1 0x40 MLOAD PUSH2 0xE6 SWAP2 SWAP1 PUSH2 0x82A JUMP JUMPDEST PUSH1 0x40 MLOAD DUP1 SWAP2 SUB SWAP1 RETURN JUMPDEST CALLVALUE DUP1 ISZERO PUSH2 0xFA JUMPI PUSH0 PUSH0 REVERT JUMPDEST POP PUSH2 0x115 PUSH1 0x4 DUP1 CALLDATASIZE SUB DUP2 ADD SWAP1 PUSH2 0x110 SWAP2 SWAP1 PUSH2 0x8F6 JUMP JUMPDEST PUSH2 0x220 JUMP JUMPDEST STOP JUMPDEST CALLVALUE DUP1 ISZERO PUSH2 0x122 JUMPI PUSH0 PUSH0 REVERT JUMPDEST POP PUSH2 0x12B PUSH2 0x445 JUMP JUMPDEST PUSH1 0x40 MLOAD PUSH2 0x138 SWAP2 SWAP1 PUSH2 0x82A JUMP JUMPDEST PUSH1 0x40 MLOAD DUP1 SWAP2 SUB SWAP1 RETURN JUMPDEST CALLVALUE DUP1 ISZERO PUSH2 0x14C JUMPI PUSH0 PUSH0 REVERT JUMPDEST POP PUSH2 0x155 PUSH2 0x488 JUMP JUMPDEST PUSH1 0x40 MLOAD PUSH2 0x162 SWAP2 SWAP1 PUSH2 0x82A JUMP JUMPDEST PUSH1 0x40 MLOAD DUP1 SWAP2 SUB SWAP1 RETURN JUMPDEST CALLVALUE DUP1 ISZERO PUSH2 0x176 JUMPI PUSH0 PUSH0 REVERT JUMPDEST POP PUSH2 0x191 PUSH1 0x4 DUP1 CALLDATASIZE SUB DUP2 ADD SWAP1 PUSH2 0x18C SWAP2 SWAP1 PUSH2 0x921 JUMP JUMPDEST PUSH2 0x48F JUMP JUMPDEST STOP JUMPDEST CALLVALUE DUP1 ISZERO PUSH2 0x19E JUMPI PUSH0 PUSH0 REVERT JUMPDEST POP PUSH2 0x1A7 PUSH2 0x6CB JUMP JUMPDEST PUSH1 0x40 MLOAD PUSH2 0x1B4 SWAP2 SWAP1 PUSH2 0x82A JUMP JUMPDEST PUSH1 0x40 MLOAD DUP1 SWAP2 SUB SWAP1 RETURN JUMPDEST PUSH2 0x1C5 PUSH2 0x6D1 JUMP JUMPDEST STOP JUMPDEST CALLVALUE DUP1 ISZERO PUSH2 0x1D2 JUMPI PUSH0 PUSH0 REVERT JUMPDEST POP PUSH2 0x1ED PUSH1 0x4 DUP1 CALLDATASIZE SUB DUP2 ADD SWAP1 PUSH2 0x1E8 SWAP2 SWAP1 PUSH2 0x8A1 JUMP JUMPDEST PUSH2 0x7CD JUMP JUMPDEST PUSH1 0x40 MLOAD PUSH2 0x1FA SWAP2 SWAP1 PUSH2 0x82A JUMP JUMPDEST PUSH1 0x40 MLOAD DUP1 SWAP2 SUB SWAP1 RETURN JUMPDEST PUSH0 PUSH1 0x1 SLOAD SWAP1 POP SWAP1 JUMP JUMPDEST PUSH0 PUSH1 0x20 MSTORE DUP1 PUSH0 MSTORE PUSH1 0x40 PUSH0 KECCAK256 PUSH0 SWAP2 POP SWAP1 POP SLOAD DUP2 JUMP JUMPDEST PUSH0 DUP2 GT PUSH2 0x262 JUMPI PUSH1 0x40 MLOAD PUSH32 0x8C379A000000000000000000000000000000000000000000000000000000000 DUP2 MSTORE PUSH1 0x4 ADD PUSH2 0x259 SWAP1 PUSH2 0x9B9 JUMP JUMPDEST PUSH1 0x40 MLOAD DUP1 SWAP2 SUB SWAP1 REVERT JUMPDEST DUP1 PUSH0 PUSH0 CALLER PUSH20 0xFFFFFFFFFFFFFFFFFFFFFFFFFFFFFFFFFFFFFFFF AND PUSH20 0xFFFFFFFFFFFFFFFFFFFFFFFFFFFFFFFFFFFFFFFF AND DUP2 MSTORE PUSH1 0x20 ADD SWAP1 DUP2 MSTORE PUSH1 0x20 ADD PUSH0 KECCAK256 SLOAD LT ISZERO PUSH2 0x2E1 JUMPI PUSH1 0x40 MLOAD PUSH32 0x8C379A000000000000000000000000000000000000000000000000000000000 DUP2 MSTORE PUSH1 0x4 ADD PUSH2 0x2D8 SWAP1 PUSH2 0xA21 JUMP JUMPDEST PUSH1 0x40 MLOAD DUP1 SWAP2 SUB SWAP1 REVERT JUMPDEST DUP1 PUSH0 PUSH0 CALLER PUSH20 0xFFFFFFFFFFFFFFFFFFFFFFFFFFFFFFFFFFFFFFFF AND PUSH20 0xFFFFFFFFFFFFFFFFFFFFFFFFFFFFFFFFFFFFFFFF AND DUP2 MSTORE PUSH1 0x20 ADD SWAP1 DUP2 MSTORE PUSH1 0x20 ADD PUSH0 KECCAK256 PUSH0 DUP3 DUP3 SLOAD PUSH2 0x32C SWAP2 SWAP1 PUSH2 0xA6C JUMP JUMPDEST SWAP3 POP POP DUP2 SWAP1 SSTORE POP DUP1 PUSH1 0x1 PUSH0 DUP3 DUP3 SLOAD PUSH2 0x344 SWAP2 SWAP1 PUSH2 0xA6C JUMP JUMPDEST SWAP3 POP POP DUP2 SWAP1 SSTORE POP PUSH0 CALLER PUSH20 0xFFFFFFFFFFFFFFFFFFFFFFFFFFFFFFFFFFFFFFFF AND DUP3 PUSH1 0x40 MLOAD PUSH2 0x370 SWAP1 PUSH2 0xACC JUMP JUMPDEST PUSH0 PUSH1 0x40 MLOAD DUP1 DUP4 SUB DUP2 DUP6 DUP8 GAS CALL SWAP3 POP POP POP RETURNDATASIZE DUP1 PUSH0 DUP2 EQ PUSH2 0x3AA JUMPI PUSH1 0x40 MLOAD SWAP2 POP PUSH1 0x1F NOT PUSH1 0x3F RETURNDATASIZE ADD AND DUP3 ADD PUSH1 0x40 MSTORE RETURNDATASIZE DUP3 MSTORE RETURNDATASIZE PUSH0 PUSH1 0x20 DUP5 ADD RETURNDATACOPY PUSH2 0x3AF JUMP JUMPDEST PUSH1 0x60 SWAP2 POP JUMPDEST POP POP SWAP1 POP DUP1 PUSH2 0x3F3 JUMPI PUSH1 0x40 MLOAD PUSH32 0x8C379A000000000000000000000000000000000000000000000000000000000 DUP2 MSTORE PUSH1 0x4 ADD PUSH2 0x3EA SWAP1 PUSH2 0xB2A JUMP JUMPDEST PUSH1 0x40 MLOAD DUP1 SWAP2 SUB SWAP1 REVERT JUMPDEST CALLER PUSH20 0xFFFFFFFFFFFFFFFFFFFFFFFFFFFFFFFFFFFFFFFF AND PUSH32 0x7FCF532C15F0A6DB0BD6D0E038BEA71D30D808C7D98CB3BF7268A95BF5081B65 DUP4 PUSH1 0x40 MLOAD PUSH2 0x439 SWAP2 SWAP1 PUSH2 0x82A JUMP JUMPDEST PUSH1 0x40 MLOAD DUP1 SWAP2 SUB SWAP1 LOG2 POP POP JUMP JUMPDEST PUSH0 PUSH0 PUSH0 CALLER PUSH20 0xFFFFFFFFFFFFFFFFFFFFFFFFFFFFFFFFFFFFFFFF AND PUSH20 0xFFFFFFFFFFFFFFFFFFFFFFFFFFFFFFFFFFFFFFFF AND DUP2 MSTORE PUSH1 0x20 ADD SWAP1 DUP2 MSTORE PUSH1 0x20 ADD PUSH0 KECCAK256 SLOAD SWAP1 POP SWAP1 JUMP JUMPDEST PUSH0 SELFBALANCE SWAP1 POP SWAP1 JUMP JUMPDEST PUSH0 PUSH20 0xFFFFFFFFFFFFFFFFFFFFFFFFFFFFFFFFFFFFFFFF AND DUP3 PUSH20 0xFFFFFFFFFFFFFFFFFFFFFFFFFFFFFFFFFFFFFFFF AND SUB PUSH2 0x4FD JUMPI PUSH1 0x40 MLOAD PUSH32 0x8C379A000000000000000000000000000000000000000000000000000000000 DUP2 MSTORE PUSH1 0x4 ADD PUSH2 0x4F4 SWAP1 PUSH2 0xB92 JUMP JUMPDEST PUSH1 0x40 MLOAD DUP1 SWAP2 SUB SWAP1 REVERT JUMPDEST PUSH0 DUP2 GT PUSH2 0x53F JUMPI PUSH1 0x40 MLOAD PUSH32 0x8C379A000000000000000000000000000000000000000000000000000000000 DUP2 MSTORE PUSH1 0x4 ADD PUSH2 0x536 SWAP1 PUSH2 0x9B9 JUMP JUMPDEST PUSH1 0x40 MLOAD DUP1 SWAP2 SUB SWAP1 REVERT JUMPDEST DUP1 PUSH0 PUSH0 CALLER PUSH20 0xFFFFFFFFFFFFFFFFFFFFFFFFFFFFFFFFFFFFFFFF AND PUSH20 0xFFFFFFFFFFFFFFFFFFFFFFFFFFFFFFFFFFFFFFFF AND DUP2 MSTORE PUSH1 0x20 ADD SWAP1 DUP2 MSTORE PUSH1 0x20 ADD PUSH0 KECCAK256 SLOAD LT ISZERO PUSH2 0x5BE JUMPI PUSH1 0x40 MLOAD PUSH32 0x8C379A000000000000000000000000000000000000000000000000000000000 DUP2 MSTORE PUSH1 0x4 ADD PUSH2 0x5B5 SWAP1 PUSH2 0xA21 JUMP JUMPDEST PUSH1 0x40 MLOAD DUP1 SWAP2 SUB SWAP1 REVERT JUMPDEST DUP1 PUSH0 PUSH0 CALLER PUSH20 0xFFFFFFFFFFFFFFFFFFFFFFFFFFFFFFFFFFFFFFFF AND PUSH20 0xFFFFFFFFFFFFFFFFFFFFFFFFFFFFFFFFFFFFFFFF AND DUP2 MSTORE PUSH1 0x20 ADD SWAP1 DUP2 MSTORE PUSH1 0x20 ADD PUSH0 KECCAK256 PUSH0 DUP3 DUP3 SLOAD PUSH2 0x609 SWAP2 SWAP1 PUSH2 0xA6C JUMP JUMPDEST SWAP3 POP POP DUP2 SWAP1 SSTORE POP DUP1 PUSH0 PUSH0 DUP5 PUSH20 0xFFFFFFFFFFFFFFFFFFFFFFFFFFFFFFFFFFFFFFFF AND PUSH20 0xFFFFFFFFFFFFFFFFFFFFFFFFFFFFFFFFFFFFFFFF AND DUP2 MSTORE PUSH1 0x20 ADD SWAP1 DUP2 MSTORE PUSH1 0x20 ADD PUSH0 KECCAK256 PUSH0 DUP3 DUP3 SLOAD PUSH2 0x65B SWAP2 SWAP1 PUSH2 0xBB0 JUMP JUMPDEST SWAP3 POP POP DUP2 SWAP1 SSTORE POP DUP2 PUSH20 0xFFFFFFFFFFFFFFFFFFFFFFFFFFFFFFFFFFFFFFFF AND CALLER PUSH20 0xFFFFFFFFFFFFFFFFFFFFFFFFFFFFFFFFFFFFFFFF AND PUSH32 0xDDF252AD1BE2C89B69C2B068FC378DAA952BA7F163C4A11628F55A4DF523B3EF DUP4 PUSH1 0x40 MLOAD PUSH2 0x6BF SWAP2 SWAP1 PUSH2 0x82A JUMP JUMPDEST PUSH1 0x40 MLOAD DUP1 SWAP2 SUB SWAP1 LOG3 POP POP JUMP JUMPDEST PUSH1 0x1 SLOAD DUP2 JUMP JUMPDEST PUSH0 CALLVALUE GT PUSH2 0x713 JUMPI PUSH1 0x40 MLOAD PUSH32 0x8C379A000000000000000000000000000000000000000000000000000000000 DUP2 MSTORE PUSH1 0x4 ADD PUSH2 0x70A SWAP1 PUSH2 0xC2D JUMP JUMPDEST PUSH1 0x40 MLOAD DUP1 SWAP2 SUB SWAP1 REVERT JUMPDEST CALLVALUE PUSH0 PUSH0 CALLER PUSH20 0xFFFFFFFFFFFFFFFFFFFFFFFFFFFFFFFFFFFFFFFF AND PUSH20 0xFFFFFFFFFFFFFFFFFFFFFFFFFFFFFFFFFFFFFFFF AND DUP2 MSTORE PUSH1 0x20 ADD SWAP1 DUP2 MSTORE PUSH1 0x20 ADD PUSH0 KECCAK256 PUSH0 DUP3 DUP3 SLOAD PUSH2 0x75E SWAP2 SWAP1 PUSH2 0xBB0 JUMP JUMPDEST SWAP3 POP POP DUP2 SWAP1 SSTORE POP CALLVALUE PUSH1 0x1 PUSH0 DUP3 DUP3 SLOAD PUSH2 0x776 SWAP2 SWAP1 PUSH2 0xBB0 JUMP JUMPDEST SWAP3 POP POP DUP2 SWAP1 SSTORE POP CALLER PUSH20 0xFFFFFFFFFFFFFFFFFFFFFFFFFFFFFFFFFFFFFFFF AND PUSH32 0xE1FFFCC4923D04B559F4D29A8BFC6CDA04EB5B0D3C460751C2402C5C5CC9109C CALLVALUE PUSH1 0x40 MLOAD PUSH2 0x7C3 SWAP2 SWAP1 PUSH2 0x82A JUMP JUMPDEST PUSH1 0x40 MLOAD DUP1 SWAP2 SUB SWAP1 LOG2 JUMP JUMPDEST PUSH0 PUSH0 PUSH0 DUP4 PUSH20 0xFFFFFFFFFFFFFFFFFFFFFFFFFFFFFFFFFFFFFFFF AND PUSH20 0xFFFFFFFFFFFFFFFFFFFFFFFFFFFFFFFFFFFFFFFF AND DUP2 MSTORE PUSH1 0x20 ADD SWAP1 DUP2 MSTORE PUSH1 0x20 ADD PUSH0 KECCAK256 SLOAD SWAP1 POP SWAP2 SWAP1 POP JUMP JUMPDEST PUSH0 DUP2 SWAP1 POP SWAP2 SWAP1 POP JUMP JUMPDEST PUSH2 0x824 DUP2 PUSH2 0x812 JUMP JUMPDEST DUP3 MSTORE POP POP JUMP JUMPDEST PUSH0 PUSH1 0x20 DUP3 ADD SWAP1 POP PUSH2 0x83D PUSH0 DUP4 ADD DUP5 PUSH2 0x81B JUMP JUMPDEST SWAP3 SWAP2 POP POP JUMP JUMPDEST PUSH0 PUSH0 REVERT JUMPDEST PUSH0 PUSH20 0xFFFFFFFFFFFFFFFFFFFFFFFFFFFFFFFFFFFFFFFF DUP3 AND SWAP1 POP SWAP2 SWAP1 POP JUMP JUMPDEST PUSH0 PUSH2 0x870 DUP3 PUSH2 0x847 JUMP JUMPDEST SWAP1 POP SWAP2 SWAP1 POP JUMP JUMPDEST PUSH2 0x880 DUP2 PUSH2 0x866 JUMP JUMPDEST DUP2 EQ PUSH2 0x88A JUMPI PUSH0 PUSH0 REVERT JUMPDEST POP JUMP JUMPDEST PUSH0 DUP2 CALLDATALOAD SWAP1 POP PUSH2 0x89B DUP2 PUSH2 0x877 JUMP JUMPDEST SWAP3 SWAP2 POP POP JUMP JUMPDEST PUSH0 PUSH1 0x20 DUP3 DUP5 SUB SLT ISZERO PUSH2 0x8B6 JUMPI PUSH2 0x8B5 PUSH2 0x843 JUMP JUMPDEST JUMPDEST PUSH0 PUSH2 0x8C3 DUP5 DUP3 DUP6 ADD PUSH2 0x88D JUMP JUMPDEST SWAP2 POP POP SWAP3 SWAP2 POP POP JUMP JUMPDEST PUSH2 0x8D5 DUP2 PUSH2 0x812 JUMP JUMPDEST DUP2 EQ PUSH2 0x8DF JUMPI PUSH0 PUSH0 REVERT JUMPDEST POP JUMP JUMPDEST PUSH0 DUP2 CALLDATALOAD SWAP1 POP PUSH2 0x8F0 DUP2 PUSH2 0x8CC JUMP JUMPDEST SWAP3 SWAP2 POP POP JUMP JUMPDEST PUSH0 PUSH1 0x20 DUP3 DUP5 SUB SLT ISZERO PUSH2 0x90B JUMPI PUSH2 0x90A PUSH2 0x843 JUMP JUMPDEST JUMPDEST PUSH0 PUSH2 0x918 DUP5 DUP3 DUP6 ADD PUSH2 0x8E2 JUMP JUMPDEST SWAP2 POP POP SWAP3 SWAP2 POP POP JUMP JUMPDEST PUSH0 PUSH0 PUSH1 0x40 DUP4 DUP6 SUB SLT ISZERO PUSH2 0x937 JUMPI PUSH2 0x936 PUSH2 0x843 JUMP JUMPDEST JUMPDEST PUSH0 PUSH2 0x944 DUP6 DUP3 DUP7 ADD PUSH2 0x88D JUMP JUMPDEST SWAP3 POP POP PUSH1 0x20 PUSH2 0x955 DUP6 DUP3 DUP7 ADD PUSH2 0x8E2 JUMP JUMPDEST SWAP2 POP POP SWAP3 POP SWAP3 SWAP1 POP JUMP JUMPDEST PUSH0 DUP3 DUP3 MSTORE PUSH1 0x20 DUP3 ADD SWAP1 POP SWAP3 SWAP2 POP POP JUMP JUMPDEST PUSH32 0x456C206D6F6E746F206465626520736572206D61796F72206120300000000000 PUSH0 DUP3 ADD MSTORE POP JUMP JUMPDEST PUSH0 PUSH2 0x9A3 PUSH1 0x1B DUP4 PUSH2 0x95F JUMP JUMPDEST SWAP2 POP PUSH2 0x9AE DUP3 PUSH2 0x96F JUMP JUMPDEST PUSH1 0x20 DUP3 ADD SWAP1 POP SWAP2 SWAP1 POP JUMP JUMPDEST PUSH0 PUSH1 0x20 DUP3 ADD SWAP1 POP DUP2 DUP2 SUB PUSH0 DUP4 ADD MSTORE PUSH2 0x9D0 DUP2 PUSH2 0x997 JUMP JUMPDEST SWAP1 POP SWAP2 SWAP1 POP JUMP JUMPDEST PUSH32 0x53616C646F20696E737566696369656E74650000000000000000000000000000 PUSH0 DUP3 ADD MSTORE POP JUMP JUMPDEST PUSH0 PUSH2 0xA0B PUSH1 0x12 DUP4 PUSH2 0x95F JUMP JUMPDEST SWAP2 POP PUSH2 0xA16 DUP3 PUSH2 0x9D7 JUMP JUMPDEST PUSH1 0x20 DUP3 ADD SWAP1 POP SWAP2 SWAP1 POP JUMP JUMPDEST PUSH0 PUSH1 0x20 DUP3 ADD SWAP1 POP DUP2 DUP2 SUB PUSH0 DUP4 ADD MSTORE PUSH2 0xA38 DUP2 PUSH2 0x9FF JUMP JUMPDEST SWAP1 POP SWAP2 SWAP1 POP JUMP JUMPDEST PUSH32 0x4E487B7100000000000000000000000000000000000000000000000000000000 PUSH0 MSTORE PUSH1 0x11 PUSH1 0x4 MSTORE PUSH1 0x24 PUSH0 REVERT JUMPDEST PUSH0 PUSH2 0xA76 DUP3 PUSH2 0x812 JUMP JUMPDEST SWAP2 POP PUSH2 0xA81 DUP4 PUSH2 0x812 JUMP JUMPDEST SWAP3 POP DUP3 DUP3 SUB SWAP1 POP DUP2 DUP2 GT ISZERO PUSH2 0xA99 JUMPI PUSH2 0xA98 PUSH2 0xA3F JUMP JUMPDEST JUMPDEST SWAP3 SWAP2 POP POP JUMP JUMPDEST PUSH0 DUP2 SWAP1 POP SWAP3 SWAP2 POP POP JUMP JUMPDEST POP JUMP JUMPDEST PUSH0 PUSH2 0xAB7 PUSH0 DUP4 PUSH2 0xA9F JUMP JUMPDEST SWAP2 POP PUSH2 0xAC2 DUP3 PUSH2 0xAA9 JUMP JUMPDEST PUSH0 DUP3 ADD SWAP1 POP SWAP2 SWAP1 POP JUMP JUMPDEST PUSH0 PUSH2 0xAD6 DUP3 PUSH2 0xAAC JUMP JUMPDEST SWAP2 POP DUP2 SWAP1 POP SWAP2 SWAP1 POP JUMP JUMPDEST PUSH32 0x4C61207472616E73666572656E6369612066616C6CC3B3000000000000000000 PUSH0 DUP3 ADD MSTORE POP JUMP JUMPDEST PUSH0 PUSH2 0xB14 PUSH1 0x17 DUP4 PUSH2 0x95F JUMP JUMPDEST SWAP2 POP PUSH2 0xB1F DUP3 PUSH2 0xAE0 JUMP JUMPDEST PUSH1 0x20 DUP3 ADD SWAP1 POP SWAP2 SWAP1 POP JUMP JUMPDEST PUSH0 PUSH1 0x20 DUP3 ADD SWAP1 POP DUP2 DUP2 SUB PUSH0 DUP4 ADD MSTORE PUSH2 0xB41 DUP2 PUSH2 0xB08 JUMP JUMPDEST SWAP1 POP SWAP2 SWAP1 POP JUMP JUMPDEST PUSH32 0x44697265636369C3B36E20696E76C3A16C696461000000000000000000000000 PUSH0 DUP3 ADD MSTORE POP JUMP JUMPDEST PUSH0 PUSH2 0xB7C PUSH1 0x14 DUP4 PUSH2 0x95F JUMP JUMPDEST SWAP2 POP PUSH2 0xB87 DUP3 PUSH2 0xB48 JUMP JUMPDEST PUSH1 0x20 DUP3 ADD SWAP1 POP SWAP2 SWAP1 POP JUMP JUMPDEST PUSH0 PUSH1 0x20 DUP3 ADD SWAP1 POP DUP2 DUP2 SUB PUSH0 DUP4 ADD MSTORE PUSH2 0xBA9 DUP2 PUSH2 0xB70 JUMP JUMPDEST SWAP1 POP SWAP2 SWAP1 POP JUMP JUMPDEST PUSH0 PUSH2 0xBBA DUP3 PUSH2 0x812 JUMP JUMPDEST SWAP2 POP PUSH2 0xBC5 DUP4 PUSH2 0x812 JUMP JUMPDEST SWAP3 POP DUP3 DUP3 ADD SWAP1 POP DUP1 DUP3 GT ISZERO PUSH2 0xBDD JUMPI PUSH2 0xBDC PUSH2 0xA3F JUMP JUMPDEST JUMPDEST SWAP3 SWAP2 POP POP JUMP JUMPDEST PUSH32 0x456C20646570C3B37369746F206465626520736572206D61796F722061203000 PUSH0 DUP3 ADD MSTORE POP JUMP JUMPDEST PUSH0 PUSH2 0xC17 PUSH1 0x1F DUP4 PUSH2 0x95F JUMP JUMPDEST SWAP2 POP PUSH2 0xC22 DUP3 PUSH2 0xBE3 JUMP JUMPDEST PUSH1 0x20 DUP3 ADD SWAP1 POP SWAP2 SWAP1 POP JUMP JUMPDEST PUSH0 PUSH1 0x20 DUP3 ADD SWAP1 POP DUP2 DUP2 SUB PUSH0 DUP4 ADD MSTORE PUSH2 0xC44 DUP2 PUSH2 0xC0B JUMP JUMPDEST SWAP1 POP SWAP2 SWAP1 POP JUMP INVALID LOG2 PUSH5 0x6970667358 0x22 SLT KECCAK256 DUP11 CALLDATALOAD 0xAF PUSH11 0x2FE66A0303F0EBE86CA308 0xDE GAS 0xDC MUL 0xAF 0xC5 0xD8 0xBE 0xBE 0xDE BLOCKHASH PUSH32 0x366D5C7A6A64736F6C634300081F003300000000000000000000000000000000 "
				},
				"gasEstimates": {
					"creation": {
						"codeDepositCost": "640200",
						"executionCost": "5679",
						"totalCost": "645879"
					},
					"external": {
						"balances(address)": "2824",
						"deposit()": "infinite",
						"getBalance(address)": "2916",
						"getContractBalance()": "334",
						"getMyBalance()": "2585",
						"getTotalBalance()": "2433",
						"totalBalance()": "2469",
						"transfer(address,uint256)": "infinite",
						"withdraw(uint256)": "infinite"
					}
				},
				"methodIdentifiers": {
					"balances(address)": "27e235e3",
					"deposit()": "d0e30db0",
					"getBalance(address)": "f8b2cb4f",
					"getContractBalance()": "6f9fb98a",
					"getMyBalance()": "4c738909",
					"getTotalBalance()": "12b58349",
					"totalBalance()": "ad7a672f",
					"transfer(address,uint256)": "a9059cbb",
					"withdraw(uint256)": "2e1a7d4d"
				}
			},
			"storageLayout": {
				"storage": [
					{
						"astId": 5,
						"contract": "SimpleWallet.sol:SimpleWallet",
						"label": "balances",
						"offset": 0,
						"slot": "0",
						"type": "t_mapping(t_address,t_uint256)"
					},
					{
						"astId": 8,
						"contract": "SimpleWallet.sol:SimpleWallet",
						"label": "totalBalance",
						"offset": 0,
						"slot": "1",
						"type": "t_uint256"
					}
				],
				"types": {
					"t_address": {
						"encoding": "inplace",
						"label": "address",
						"numberOfBytes": "20"
					},
					"t_mapping(t_address,t_uint256)": {
						"encoding": "mapping",
						"key": "t_address",
						"label": "mapping(address => uint256)",
						"numberOfBytes": "32",
						"value": "t_uint256"
					},
					"t_uint256": {
						"encoding": "inplace",
						"label": "uint256",
						"numberOfBytes": "32"
					}
				}
			},
			"userdoc": {
				"kind": "user",
				"methods": {},
				"version": 1
			}
		}
	}
}